:020000040000fa
:080000000002040000000000f2
:020000040000fa
:10000800da030000da030000da030000da03000074
:10001800da030000da030000da030000da03000064
:10002800da030000da030000da030000984d00004c
:10003800da030000da030000da030000f84d0000dc
:10004800da030000da030000da030000d20200003d
:1000580018030000da030000da030000da030000e6
:10006800da030000da030000da030000da03000014
:10007800da030000da030000da030000da03000004
:10008800da030000da030000da030000da030000f4
:10009800da030000da0300001c030000620300001a
:1000a800da030000da030000da030000da030000d4
:1000b800da030000da030000da030000da030000c4
:1000c800da030000da030000da030000da030000b4
:1000d800da030000da030000da030000da030000a4
:1000e800da030000da030000da030000da03000094
:1000f800da030000da030000da030000da03000084
:10010800da030000da030000da030000da03000073
:10011800da030000da030000da030000da03000063
:10012800da030000da030000da030000da03000053
:10013800da030000da030000da030000da03000043
:10014800da030000da030000da030000da03000033
:10015800da030000da030000da030000da03000023
:10016800da030000da030000da030000da03000013
:10017800da030000da030000da030000da03000003
:10018800da030000da030000da030000da030000f3
:10019800da030000da030000da030000da030000e3
:1001a800da030000da030000da030000da030000d3
:1001b800c04e0000da030000da030000da03000092
:1001c800da030000da030000da030000da030000b3
:1001d800da030000da030000da030000da030000a3
:1001e800da030000da030000da030000da03000093
:0801f800da030000da03000045
:020000040000fa
:10020800da030000da030000da030000da03000072
:10021800da030000da030000da030000da03000062
:10022800da030000da030000da030000984d00004a
:10023800da030000da030000da030000f84d0000da
:10024800da030000da030000da030000d20200003b
:1002580018030000da030000da030000da030000e4
:10026800da030000da030000da030000da03000012
:10027800da030000da030000da030000da03000002
:10028800da030000da030000da030000da030000f2
:10029800da030000da0300001c0300006203000018
:1002a800da030000da030000da030000da030000d2
:1002b800da030000da030000da030000da030000c2
:1002c800da030000da030000da030000da030000b2
:1002d800da030000da030000da030000da030000a2
:1002e800da030000da030000da030000da03000092
:1002f800da030000da030000da030000da03000082
:10030800da030000da030000da030000da03000071
:10031800da030000da030000da030000da03000061
:10032800da030000da030000da030000da03000051
:10033800da030000da030000da030000da03000041
:10034800da030000da030000da030000da03000031
:10035800da030000da030000da030000da03000021
:10036800da030000da030000da030000da03000011
:10037800da030000da030000da030000da03000001
:10038800da030000da030000da030000da030000f1
:10039800da030000da030000da030000da030000e1
:1003a800da030000da030000da030000da030000d1
:1003b800c04e0000da030000da030000da03000090
:1003c800da030000da030000da030000da030000b1
:1003d800da030000da030000da030000da030000a1
:1003e800da030000da030000da030000da03000091
:0803f800da030000da03000043
:020000040000fa
:10040000afeb2000ce2925000e018800000000007f
:10041000000020000000e000020032000001200087
:10042000200288000c000700a02a23000100200001
:100430000f000700000020000000e0000200320072
:100440000000020000000000164d02000000000045
:100450000040da000000fe00a08320000000e00061
:1004600002003200002020009001880000000600f9
:10047000a1028800800078000000eb001a0037001d
:10048000e280400054a0b4009101ba00e280400034
:1004900054a0b4009102ba00e280400054a0b4001d
:1004a0000002eb00472bde00f507b200a601880032
:1004b000602ce10008003a000049eb000201e8006e
:1004c000020039003420ec0002f0a0008301e900b2
:1004d000f9ff3e00040037006128e100010032000e
:1004e0000082eb00040007001101ba000200e000e6
:1004f000e3ff3a000000060004d0a300e20f490029
:100500001c003900810278003549ba000201e80078
:10051000020039003420ec0002f0a0008301e90061
:100520000f0032002549ba000201e800020039003c
:100530003420ec0002f0a0008301e9000800320042
:100540000400e0000600320015c9ba000201e8000c
:10055000020039003420ec0002f0a0008301e90021
:100560008180e80054a0b4000300e000e2ff3a00fc
:10057000000006009102ba00055978008301e900e5
:10058000f7ff3200c82ade00055978008301e90030
:10059000f3ff32000400e000f1ff320011d9ba008d
:1005a000eeff3700809fbe00849fbe00869fbe0086
:1005b0008560a9002222ab00020032002222a9009d
:1005c000170037002242ab0015003a002202ab00b0
:1005d000130032001540800000c8bf006780200073
:1005e00011c0b300361180000642780086f37a000d
:1005f0000683fb0026118800ed4f520002003200f6
:10060000ea4f520001003a00014078008502e800fc
:100610002202ab00f3ff3a001540880000e8b70063
:100620004f03be004f02be004f00be000040060058
:100630008580a90000400600809fbe00849fbe0008
:10064000869fbe0087c0a9003222ab0002003200a4
:100650003222a900170037003242ab0015003a00e1
:100660003202ab00130032003548800001c8bf00e1
:10067000a790200011c0b300b61180000642780098
:1006800086f37a000683fb00a6118800ed4f520026
:1006900002003200ea4f520001003a0001407800a7
:1006a0008502e8003202ab00f3ff3a0035488800cb
:1006b00001e8b7004f03be004f02be004f00be006e
:1006c0000040060087e0a900004006000668ef0031
:1006d0000228ef0000000600889fbe000004be0054
:1006e000faff0700c8e2a80042c7a90004fc2f00d7
:1006f00026358000860262007500b300253588002b
:1007000035368000050262003400b30034368800bc
:1007100042c7a8004249dd00ce41de0083017100de
:100720004241dd0000402200410f20002802070066
:100730000002e90044118800aa40a800aa20a900ec
:10074000aa00a900a9c0a800a9a0a900a980a90081
:100750000002eb002411880014118800f5f32f002b
:1007600026222000168b6200041188002062a80057
:1007700021e2a8002342a8009580a8009560a80067
:100780008580a9008560a9006488200054508800f5
:10079000648020006450880000a0260081012000b1
:1007a0006126070080c82900d70207004f04be0059
:1007b000000006000040da000000fe00e20f5000da
:1007c00015003e0082027800e00f51001100320057
:1007d0000003eb002202ab00feff32003411800068
:1007e00084707b0024118800ed0f5200020032005b
:1007f000ea0f520003003a00a400200024118800f0
:10080000040037008502e9000603e800e08f52008b
:10081000f0ff3a00050151000200780000000600d8
:100820000a00fa00e20f500022003e00c47580006a
:10083000e10f5200060032008723200046232000eb
:100840002423200005232000e08f530004003a00f9
:10085000872220004622200024222000052220009a
:10086000000028001500600003003a00800b7800ab
:1008700007002800958a73000540200094826200da
:1008800001003a0014a0a0008202780006003700a0
:10089000940378000710b200fdff3200b103fb00a3
:1008a000070b78008502e900e08f5200f8ff3a005c
:1008b0000800370034002000c0bf9f00e2bf9f0047
:1008c000b4bf9f00d1bf9f006a805700d2060700c7
:1008d0006fb99700020078000080fa00000006005f
:1008e00003f0a200889fbe008a9fbe008c1f780084
:1008f00000010700070133006450e1004f0032009f
:100900006420e1005200320003826c0007003b00cb
:100910000905d0000306d000820f54000c065d00cc
:1009200002003900020032008901780003067800d5
:100930008582550004003d000003fd008103fd0099
:100940008502ea008b854200840f720002003b00a2
:1009500060001000e08018006011b8000005eb0096
:100960007a28e1000a00390006007800c75ddd0042
:10097000f707b200878075002d0037008281710073
:100980000a017800610560008180d1000080d300f9
:100990008502e900f9ff3b00060440008784480017
:1009a00002003b0060041400e0841c000988a300de
:1009b000070032008a817100828171006101640048
:1009c0008904d1000884d3008b05e80017003700a4
:1009d0000978a30013003a000b00e0001300340074
:1009e0008b05e9000804440089844c000a44740023
:1009f0000978a3000d003a000b00e0000700340066
:100a00008b05e9000804440089844c0001003a0089
:100a10000b0020000978a300f7ff32000001eb0073
:100a200002003700828171000a0178007600070019
:100a30000cf0a70001f0a000bf0037006420e10027
:100a400002003a00838f6c00bf0033000801be0033
:100a50000200be00b80037000081eb00f100370053
:100a6000889fbe008a9fbe008c1f7800a1000700ef
:100a7000a800330003866c006450e1002e003200b1
:100a80006420e100330032006150e1002f003200a9
:100a90006120e1003100320085855500eb07b00090
:100aa0000900200008042000050037000804440065
:100ab00089844c000a0031000603430087834b0001
:100ac0000001530081815b00f8ff33000203be0088
:100ad0000800a0000804440089844c00f6ff390097
:100ae000c639dd00830173000100320013002000cd
:100af0008904d1000884d3000998a30005003200be
:100b00000800a7000300a0008904d1000884d300d6
:100b10008b05e8008904d1000884d3000001eb00b4
:100b20000281d2003800070001f0a1000cf0a700fc
:100b300001f0a000800037006420e1008200320054
:100b40000801be000200be00f7ff37006120e1008f
:100b50007d0032006000b800f3ff37000000200085
:100b600001f82700f0ff3700f4ff2f002b013700ba
:100b70000001be004a0007000470a70003f0a100b6
:100b80006509b100160032000d0035006828e1004b
:100b900006003500f0ff2f00f1ff27000300e00002
:100ba00013003b0001002800000005000000400089
:100bb000818048008502e900fcff3a000800370008
:100bc000f88f420002003c008000eb0000000500ae
:100bd0008100d1000080d3008502e800fcff3a00cc
:100be0000300e00002003b0060001000e0801800fd
:100bf000000006004f89de008201780024013700e2
:100c00006011b8003201370081002000618055007a
:100c10000b003d000b00200061fe2f000100e100f1
:100c20001d00340082817100610164008904d100db
:100c30000884d3000000e800faff3a0071002000a9
:100c400061006400030070000200600009003200cf
:100c500061044400e0844c000988a50005003200ce
:100c60008b05e8006808e10002003a008904d10021
:100c70000884d300f20f20000258e10005003d0077
:100c8000c75ddd00f907b2008980750008007800b3
:100c9000000006000bf827008b007800000005001c
:100ca000c70ade00f107b200f50fb20008003200fb
:100cb000e1cf4200020032000170a00024000500d4
:100cc000810f700001003200040805004400050097
:100cd000810f700002003a00140005008502e9004f
:100ce0000000400081c04800fcff3b000170a000f4
:100cf000240005000004be00e9ff07000003be0059
:100d00000405be000200be00e5ff0700844f750029
:100d1000000006000200be006450e100050036003d
:100d20006420e100020036000968a30001003a00d7
:100d30000800be000160a0004f0678004f05be000d
:100d40004f04be0000000600f0ff2f00f1ff270057
:100d5000f9ff3700889fbe008a9fbe008c1f780075
:100d6000e4ff0700ebff330003866c006450e100f2
:100d7000240032006420e100270032006150e100cd
:100d8000220032006120e100210032008b85420008
:100d9000eb07b1000134b800003ab8000804420083
:100da00089844a00013ab8000030b80088804000c9
:100db00009014a000400330000004000818048001f
:100dc000020149008b05e900c909dd0083017000bb
:100dd0000100320013002000c814de004814dd00ba
:100de0004709de001200b200c808de000884700067
:100df00085ff070001f0a1000cf0a70001f0a000a2
:100e0000cdff37006120e100cfff32000801be00b6
:100e10000200be00f7ff37006150e100fcff3a001e
:100e2000c9ff3700889fbe008a9fbe008c9fbe000e
:100e3000820578000004be0099ff07000800be008c
:100e40006420e1000700390002003a00f1ff2700aa
:100e5000f0ff2f000160a00012022000d26d880078
:100e6000550037006120e10003003a000b00a700a5
:100e700001f823005000370001f0a100020021001a
:100e800093642400800007000800be0004003500c1
:100e9000b2fd2000930c2400bc0007000004be003b
:100ea0000005eb000b00a6004f0dde0001f0a100d5
:100eb0000004be0032982f0023ea2300a5ff07009c
:100ec0000001eb0003f023000b00a70003f8230050
:100ed00084fe070026ff07000000a7000a00a2000a
:100ee00044ff07000b00e000030032000200200076
:100ef00003f023007afe070001f0a2000006be0006
:100f0000020020009304240092ff07000801be00a5
:100f100074fe0700809fbe000c00be0022a22a00c3
:100f2000d3a723008bff07004f01be006dfe070013
:100f30000004be0001f0a10002002000039823007d
:100f4000510007000800be00190035000001be0076
:100f500080ff07000006be00b2c52900e36223003f
:100f60007cff070022222b00f3942b005dfe07007c
:100f70000c01be0077ff0700e273280083c0230046
:100f800058fe07000c01be0072ff070042aa2a00ab
:100f9000a3e22b0053fe07000c01be006dff07000b
:100fa0000801be006bff07000801be004dfe0700f0
:100fb0000a00a70001f0a2004f06be004f05be00c8
:100fc0004f04be00000006000001eb0095ff370053
:100fd0006022b800060220000000d0008180d2000c
:100fe0000482d2008582d2000000a00002025200da
:100ff00083825a00030031000202420083824a00c9
:101000000000a1000603e900f3ff3a00000006001b
:10101000efff07000400be0000000600889fbe002e
:101020008a9fbe00841f780032ff07004f007800bf
:1010300011003300f0ff2f00838f6c0006003b008f
:10104000040565000a00a7000800370009f0a600a3
:101050001000200008003700820f5400838f5c00ce
:10106000030039001000200001003e0000002000b5
:1010700009f0a7000000ea004f05be004f04be00c3
:101080000000e0000000060014002000e3ff37002d
:10109000881f7800030478000300e00007003d008b
:1010a00060001000e080180060011900e081190064
:1010b00002003b0001f02d00030037000400070090
:1010c00008f0a70001f0a0004f047800000006001f
:1010d000889fbe008a9fbe000082700004027100db
:1010e00004827100260032000004be000200be002f
:1010f0006011b8006b092000950220000182cf002a
:101100000a0039000541b1000082cf000700390014
:101110000541b1000982cf00040039000541b1004a
:101120000882cf00010039000541b100054252009c
:10113000120032000a003b008281710061016400ec
:101140008100d1000080d3008984d3000884d300bb
:101150008b05e8000442e800f7ff3a00070037007b
:101160000804440089844c00000048008180480045
:101170008b05e9000442e900f9ff3a00a2fe0700ee
:101180004f05be004f04be00000006000400200012
:1011900000003700889fbe008a9fbe008c1f780029
:1011a0004f26dd00d3fe0700dafe33006120e100a8
:1011b000430032006250e10041003e003e00390031
:1011c0006420e1003c003200058255000f003b0026
:1011d0000402e80038003a00800f5300818f5b0062
:1011e000350034000800be0003f0a10001f0a600a5
:1011f00003f0a0000cf0a700bafd0700cefe3700f8
:101200000603430087834b000c464600000553004d
:1012100081855b00020033000a03be000c00a000c1
:101220000402e900f6ff3b00850578000602430052
:1012300087824b0004003a006000b80009f0a70064
:1012400001f0a000bcfe37000002520081825a006b
:101250000704e000040033000603430087834b00cb
:101260008b05e900faff3700090578000604be0087
:101270000203be006011b80063fe0700e00f5200d9
:10128000e08f5a000700350002003c000c08a30064
:10129000040032000601be0003f0a0000cf0a7001d
:1012a00090fd07000a85680001f0a1000af0a70080
:1012b00001f0a000a0fe37000800be009efe37002f
:1012c000100220000cf0a600d06d88009efe3700b2
:1012d000889fbe000004be00050037000000fb0030
:1012e000890078004a000700e10f40000400320046
:1012f00038407800e04f5000f8ff3a000000eb0063
:101300004f04be000000060021e92000881f78007d
:10131000efff070021e9200000047800a000200072
:101320003b000700080078004f047800000006002a
:1013300015c0b30001002000e4ea200050758800c9
:1013400061758800054a780000000600e4ea200084
:101350008042eb0094cf120002003a0010002000ff
:10136000f3ff07005075800061758000d2e624000d
:10137000631c24002a0407009403230005002000b6
:101380000002420081824a00547588006575880019
:101390000500780000f0a100000006000c00fa0033
:1013a000889fbe00f4ff270000047800d4bf9f0090
:1013b0008004eb0088bf9f0099bf9f00a8bf9f00db
:1013c000240c200078815700b4bf9f00cfb0970055
:1013d00070805700520007000fba9700094a780042
:1013e0000fba9700080052004f04be000080fa00b8
:1013f0000000060020e920000000fa006881570084
:10140000cfb89700460007000080fa0000000600f1
:10141000889fbe00010478008084eb0038029000b1
:10142000e20262003b003200040378009802900060
:101430000620b20002003a00e08f520035003a0068
:101440000490a0008004780034049800f90fb200e2
:10145000e08f520002003a00a8029000050c7800cc
:10146000ea8f540005003a000408b20003003a0075
:1014700088007800d0002000e5ff070018029000e7
:10148000d8029000850f52000b0032000402e800e1
:1014900015c0b3001404980018027800094a7800b7
:1014a000040ce80024eb2000054a7800ea8f540081
:1014b00018003a00050037000940780088007800dd
:1014c0009303070080047800120037003802900070
:1014d0000410b2000f00320018019000a800900024
:1014e00048009000cefc070018029000840f5000c6
:1014f00004003200380290000403b3003404980062
:101500008084eb000002eb00140498002802900095
:10151000040c7800090078004f04be0000000600ab
:10152000ef03b000889fbe008a9fbe008c9fbe0064
:10153000800678008e1f78000007eb00d1af9f0077
:10154000a2b79f0066033700dfa8970054c2b3001c
:101550008100e800d1af9f00844f500006003a00a0
:10156000010278000006eb0001c3b30000c2b30023
:10157000b7c2b3000e0037003d0290000404b20071
:10158000040032001d027800004a7800840ee80052
:10159000050037000000fb008d0078009cff07006d
:1015a000e10f40004e0332000e07e8004c03370005
:1015b00084027800d2c2b30034437800824f5300d3
:1015c0000900320005003c00804f53000800320043
:1015d000874f53000c003a0007003700814f53003b
:1015e00009003a00060037000c30a000f0ff370079
:1015f0000c00a000eeff37000c10a000ecff37003d
:101600000c20a000eaff37006202660001003200f1
:101610000c00a10068026600010032000c20a1004d
:101620000602fb000403b100e90f52000c003e006b
:10163000050378000002eb00b603fb006a22b90044
:101640000703b10086027800048243009603fb0082
:101650000703b100e98f5300f7ff36000800370099
:101660000002eb00a7c2b300874f530004003a000a
:10167000afb197008502e80043027800a3b79f004e
:101680000003eb0096b79f00e6c2b300954f13002e
:101690000c003a000ce0a00064435300d54f130047
:1016a00003003200050378000000eb00090037005a
:1016b000afb397008502e80047047800a7b79f0002
:1016c00098b79f0005037800090037006a00b90049
:1016d0000080430086027800b603fb000703b100d8
:1016e000e98f5300f9ff360090b79f00f5ff3700f0
:1016f000b6427800cac6b300d6af9f008acf520068
:10170000250032000f003c0036c6b30086cf5200e1
:101710009e00320004003c00e0cf5200f50232008f
:101720006b4353000f00370046c6b30086cf52000c
:10173000170032006543430086cf5200b2003a00e2
:101740001300370036c7b30086cf52001f003200a7
:1017500007003c006443530086cf5200140032005f
:101760000643e80086cf5200a7003a001300370076
:1017700056c7b30086cf5200aa003200634343002d
:1017800086cf5200a0003a00e5779f000d00370099
:10179000e5779f00a5003700f003660005012000f3
:1017a00001003200050028000c867200d0ff3700cf
:1017b000e5779f000c60a0009c003700e5779f0054
:1017c0000c50a0000c70a00098003700afb5970037
:1017d000e5779f00cb027800abb79f00b5b79f00bd
:1017e000e08f520002003a00e1e72000b1b79f000d
:1017f0003fb397008002eb00010037008502e8004c
:10180000e6c37a00e0cf5300fcff3a00c5b79f0063
:101810001fb19700e00f510005003200cfb19700d3
:10182000830f51000200310082027800c5b79f008b
:10183000cfb297000004eb00850f52000100360084
:10184000050452006806660009c2b3000f003200aa
:10185000290037003d0290000404b2000400320069
:101860001d027800094a7800840ee8000500370060
:101870008d00780000022000e5fe0700e10f400027
:10188000010032000e07e8000804e900e00f5400f0
:10189000f0ff3a000084eb0017003700bd02900013
:1018a0000504b20009003200880278009d03780028
:1018b00035437800864b780005047800870ee800f1
:1018c000e04f53000a003a00110037008802780008
:1018d0008d0078003500fb0084bf9f000504780070
:1018e000cbfe07000fba9700e10f4000080032005e
:1018f0000e07e800060037000c02780008067800a2
:101900003fb49700cfb497005fb59700efb597004d
:10191000890278008504e900e08f5200dfff3a0079
:10192000b8b79f00c9b79f00dab79f00ebb79f0019
:101930000c04780009c2b30004067800e00f5600da
:101940000f003a00660237003d0290000404b20026
:10195000040032001d027800094a7800840ee80075
:10196000050037008d00780000022000a8fe070067
:10197000e10f4000010032000e07e8000804e90012
:10198000e00f5400f0ff3a0055023700afb0970067
:101990007003660041047800a1b79f00cfc4de0049
:1019a000090578008a0578000800be000a01be001b
:1019b0004800de00c80add0000807200e0779f006a
:1019c000e00f530009003200e04f500007003200e2
:1019d000e14f40000500320026002000f0779f0014
:1019e000887f9f00c6b79f000300370017002000c4
:1019f000c7b79f00f8779f0078fb2f000884470047
:101a0000b8b79f0082ff370069fb2f001a00200043
:101a100089844700e5779f00b9b79f00cab79f0048
:101a20007bff3700e5779f000c0cb3008c02780039
:101a3000050cb2003b003a00e00f560005003d00e7
:101a4000afb297004501be004500be00a5b79f009c
:101a50000f003700f0026600120032002fb497002a
:101a60004803be00f69f9f0087a79f00a8b79f006e
:101a700098029000cfaade0095a79f00a5a79f001f
:101a80007f9897008fa097001fa19700afa19700a4
:101a9000b0b79f00c1b79f00d2b79f00e3b79f00c8
:101aa0000b003700afb09700c10278000504780042
:101ab000cfc4de00090578008a057800a1b79f0031
:101ac000b8b79f00c9b79f00dab79f00ebb79f0078
:101ad0003fb09700cfb097005fb19700efb197008c
:101ae000e00f5000e08f5800e00f5900e08f5900e0
:101af00032003d006000b8006011b8003fb49700ac
:101b0000cfb497005fb59700efb597003c00b300e6
:101b100008045000898458000a0559008b85590033
:101b200022003700e00f560005003d00afb29700dd
:101b30004501be004500be00a5b79f000f0037005d
:101b4000f0026600120032002fb497008004eb0010
:101b50004803be000005eb0096af9f00a7af9f00b3
:101b6000b9af9f00caaf9f001fa89700afa897000a
:101b70003fa99700cfa99700a8b79f00b0b79f00d3
:101b8000c1b79f00d2b79f00e3b79f000b0037009b
:101b9000afb09700c1027800a1b79f00050478009c
:101ba000090020000a0020000b002000b8b79f00a9
:101bb000c9b79f00dab79f00ebb79f009fb49700ab
:101bc000e08f54000d003a001a0020003fb097004b
:101bd000cfb097005fb19700efb197009ab79f0021
:101be000e00f5000e08f5800e00f5900e08f5900df
:101bf000020032008000eb0091b79f000c017800da
:101c000005042000020cb20082b79f00850f51002e
:101c10003400320003003c00e00f510008003200a5
:101c200048003700050820008fb19700858f5100cc
:101c300014003200050c2000858f510041003a004d
:101c400046dc200015c0b3003600be003601be00e1
:101c50003fb49700cfb497005fb59700efb59700fa
:101c60000040e10001c8e10002d0e10003d8e1003a
:101c7000330039008542e800f4cf5200f2ff3a0009
:101c80002f00370015c0b300000120000100200024
:101c90006011b8003fb49700cfb497005fb59700cc
:101ca000efb597000040e10001c8e10002d0e1007b
:101cb00003d8e10022003900490020000000d000d4
:101cc0008180d2000281d2008381d2008904e900a0
:101cd000faff3a008542e800f0cf5200edff3a00eb
:101ce0001700370015c0b30080002000010020005d
:101cf0006011b8003fb49700cfb497005fb597006c
:101d0000efb597000040e10001c8e10002d0e1001a
:101d100003d8e1000a003900390020000000d0009b
:101d20008180d2000281d2008381d2008904e9003f
:101d3000faff3a008542e800f5cf5200edff3a0085
:101d4000e5779f006f7597009fb597008a02fb00ab
:101d50008b8f520002003d00eb779f00040037009c
:101d60001fb09700850f500001003d0095b79f0000
:101d7000e00f520003003200e3026600010032006f
:101d80000402e90005002400850266000600320016
:101d90009fb09700810f52000200340001025200f0
:101da000010037000002eb006f7197008001eb002b
:101db0008202fb00f3af9f00850f52000200340047
:101dc00085025200f5af9f00640266003b003200be
:101dd000e202660061026600e08f520011003200ec
:101de000bd0290000504b200080032009d02780098
:101df000b6c2b300e00f52000100320006c3e80093
:101e0000864a7800850ee80015003700b0022000f1
:101e1000e00f5200010032000080e8008d007800e1
:101e20000c003700e00f52000e0032003d0290001f
:101e30000404b200050032001d02780005c2b300a0
:101e4000054a7800840ee800050037008d00780010
:101e5000000220006efd0700e10f4000010032008b
:101e60000e07e8007faa9700e00f52004f003200f3
:101e700008c3b300840478003d0290000404b2005b
:101e8000040032001d027800084a7800840ee80041
:101e9000050037008d007800000320005cfd07007e
:101ea000e10f4000010032000e07e8008904e9005c
:101eb000f1ff3a00f9af9f003c003700ffaa9700fe
:101ec000e08f5200140032006802660012003a00ef
:101ed00008c2b300850478003d0290000404b200fb
:101ee000040032001d027800084a7800840ee800e1
:101ef000050037008d0078000002200044fd070037
:101f0000e10f4000010032000e07e8008904e900fb
:101f1000f1ff3a00f9af9f00e2026600610266003d
:101f2000e08f520011003200bd0290000504b200a3
:101f3000080032009d027800b6c2b300e00f5200e4
:101f40000100320006c3e800864a7800850ee800ea
:101f500015003700b0022000e00f520001003200ef
:101f60000080e8008d0078000c003700e00f520080
:101f70000e0032003d0290000404b2000500320061
:101f80001d02780005c2b300054a7800840ee800ff
:101f9000050037008d007800000220001cfd0700be
:101fa000e10f4000010032000e07e8001fb3970068
:101fb000c5db20000602e900f0046600c223dd0054
:101fc0000c057800c7a79f000a02b2006323b9007e
:101fd000e99f9f00060478004322dd00b8a79f0018
:101fe00085024200da9f9f00e5af9f00a300370003
:101ff0009fb597000fb097008b05e9000104200002
:102000009bb79f00810f50007300320003003c001b
:10201000e00f5000080032007e0037000408200066
:102020000fb19700840f510056003200040c2000bd
:10203000840f510077003a00e00f56001f003d006a
:10204000efa997003304be002305be003fb0970000
:10205000cfb097005fb19700efb197000802be00c4
:102060000a03be009f0107000802be000a03be006b
:10207000e0779f000000fb00cf80de0001017800c8
:1020800082017800000207003fb29700cfb29700ac
:102090005fb39700efb397000002520081825a00ad
:1020a00002035b0083835b00b4b79f00c5b79f004a
:1020b000d6b79f00e7b79f002e003700ef9a970032
:1020c000e08f5200220032006fab97003fb29700c2
:1020d000cfb297003604be002605be000400be0045
:1020e0000801be0084bf9f00f5b79f000005eb000c
:1020f000b7fb07000801be00e0779f000000fb006f
:10210000cf80de00c60007000fba9700ffb297002d
:102110008aaf9f000004520081845a00d8a79f0014
:10212000e9a79f008004eb00f9a79f005fa097003c
:10213000efa097007fa197008fa99700b0b79f00ed
:10214000c1b79f00d2b79f00e3b79f0009003700d7
:10215000efa897003fb19700110278001100090025
:102160000481d800a4002000110009000480d800d8
:10217000e1779f00ef7197000343b000e3779f0082
:1021800024003700d4e62000df9a9700e08f520049
:1021900001003200c4e520003fb09700cfb09700a7
:1021a0005fb19700efb197004fa397000603e900d6
:1021b000050033008301d1000281d3008180d30068
:1021c0000080d300f9ff37006f00600064407800a2
:1021d000e0779f000f0037003fb29700cfb2970023
:1021e0005fb39700efb397003fa497000804e9009e
:1021f000050033008703d1000683d3008582d30016
:102200000482d300f9ff3700674262000443b00044
:10221000e4779f003d0290000404b2000700320002
:102220009d0278006f729700844a7800850ee8005e
:10223000e04f520007003a0007003700ef749700a4
:102240008d0078000900fb0071fc0700e10f4000e1
:10225000010032000e07e8004fa59700bfa59700c8
:102260006fa8970064055500e3855500680050008d
:10227000caa79f00bba79f00e0af9f009fb0970039
:10228000e08f50005aff3a006806660014003200e2
:102290007fa99700e00f51001100340008c2b3007d
:1022a000820478003d0290000404b2000400320071
:1022b0001d027800084a7800840ee8000500370007
:1022c0008d0078000002200051fc0700e10f400063
:1022d000010032000e07e8008904e900f1ff3a002e
:1022e000dfa9970013407800e0779f00e04f50008f
:1022f00095fc3a000e0078004f0778004f06be00ac
:102300004f05be004f04be00ef03b1000000060001
:102310000200fa00889fbe0001047800a0ff9f0021
:1023200038029000840278000504b20002003200f6
:102330000000fb0035003700e202620005003a00b1
:102340000403b30015049800340498000080eb00e7
:102350002e003700d8049000e08f540006003a00a9
:1023600012002000e6805700480090002cf907007a
:102370001904980023003700a8029000e08f520053
:1023800008003a0065eb20000430a0002504980006
:10239000050c7800340498002500200055049800ae
:1023a0001504980018019000a800900048009000c3
:1023b0001bf90700280290008082eb0015049800aa
:1023c000affa9700054a7800040ce8002ffa97004e
:1023d000ea4f52000b003a00380290000410b2009d
:1023e0000800320018019000a800900048009000fa
:1023f0000bf907000002eb00a802900014049800fb
:10240000050c78002ffa97000400fb004f04be0073
:102410000080fa000000060000c0da00000006009c
:10242000020ab900001bb9000200b8008100420096
:102430008100430000000600889fbe008a9fbe0006
:102440003004be002005be000404440085844c0016
:1024500006054d0087854d000898be000a90be0015
:102460000440e10005c8e10006d0e10007d8e10022
:1024700002003100680040001008e8004f05be006f
:102480004f04be00000006001000fa00889fbe0046
:102490008a9fbe00110020000605be000404be0095
:1024a0003002be002003be00c4b79f00d5b79f0016
:1024b000e6b79f00f7b79f000802520089825a00d2
:1024c0000a035b008b835b0084bf9f0095bf9f0066
:1024d000a6bf9f00b7bf9f000498be000698be002d
:1024e0004fb29700dfb297006fb39700ffb397002a
:1024f0000820e10009a8e1000ab0e1000bb8e10002
:10250000010039008000eb004f05be00108810006c
:102510004f04be000080fa00000006001400fa001c
:10252000889fbe008a9fbe008c9fbe000006eb0005
:102530003e000700ccb79f00bcb79f00acb79f0020
:102540009cb79f008cb79f000605be000404be0028
:102550000d0420004fb39700bfb2970086034300dd
:102560002fb29700e00f530004003d003d0007002c
:102570000f004000b0ff07000300370039000700dc
:102580000f004000c0ff0700cfb2970095bf9f002b
:10259000e08f5200090035002b00070014002000d6
:1025a000050020006033b8000000720081807200d6
:1025b00002017300838173001c0007000c06e80011
:1025c0008d0f5600e3ff3a001fba9700e00f52004c
:1025d00005003d000802be000a03be0000fe2f00f9
:1025e0000f00400094ff07004faa9700e00f520031
:1025f00008003a000fb497009fb497002fb59700da
:10260000bfb59700d8b79f00e9b79f00fab79f0002
:102610008bbf9f000c0007004f06be004f05be0099
:102620004f04be000080fa00000006000100070011
:102630000000060090b79f00a1b79f00b2b79f00af
:10264000c3b79f000000060001000700000006005d
:102650001fb09700afb097003fb19700cfb1970080
:10266000000006004f2bde00f9ff07008683730091
:10267000858242004f23de00a7b79f00868272004a
:102680000402420095b79f00ffaa97004f2bde007f
:10269000858242000602720084b79f006faa9700ed
:1026a0004f23de000402420086827200f5af9f00d5
:1026b0004f18de0000027200e5ff0700e4af9f0044
:1026c00000004000818048000201490083814900e8
:1026d0000802be000a03be00d6ff070000fe2f005e
:1026e00000000600881f780018002000881f78006e
:1026f0008aff07008f87e9004f047800000006007a
:10270000801feb0085ff07008f87e90000000600af
:10271000889fbe008a9fbe00e00f5000e08f5800e7
:10272000e00f5900e08f59000c003d006044b800f4
:102730006055b8000000540081805c0002015d001b
:1027400083815d00180020001500070008003d008f
:10275000180007000004eb00050037000004eb0040
:102760000f00070002003d001200070018002000c3
:10277000dcff0700e00f5400060032006022b800c2
:102780006033b8000000520081805a0002015b00f3
:1027900083815b004f05be004f04be0000000600b1
:1027a000e00f5200e08f5a00e00f5b00e08f5b000b
:1027b000000006006044b8006055b80004025400f0
:1027c00085825c0006035d0087835d0000000600d3
:1027d000889fbe008a9fbe008c1f7800e00f5000cb
:1027e000e08f5800e00f5900e08f59000d003d00c8
:1027f0006044b8006055b8001c0020000000540080
:1028000081805c0002015d0083815d000820e100a1
:1028100009a8e1000ab0e1000bb8e1000d003d009d
:10282000080037000006eb00e00f5200e08f5a006e
:10283000e00f5b00e08f5b0006003d006044b800e5
:102840006055b8000402540085825c0006035d00f8
:1028500087835d00aaff0700e00f560006003200e4
:102860006022b8006033b8000000520081805a0036
:1028700002015b0083815b004f0678004f05be00bc
:102880004f04be0000000600889fbe008a9fbe0065
:102890008c1f78000006eb00e00f5000e08f58001e
:1028a000e00f5900e08f590007003d006044b80078
:1028b0006055b8001c0020000000540081805c00be
:1028c00002015d0083815d00e00f5200e08f5a003d
:1028d000e00f5b00e08f5b0007003d006044b80044
:1028e0006055b8000c00a2000402540085825c0010
:1028f00006035d0087835d000c000700e00f5600b3
:10290000060032006022b8006033b80000005200b8
:1029100081805a0002015b0083815b004f067800d2
:102920004f05be004f04be0000000600889fbe0099
:102930008a9fbe008c9fbe000404b8000506b80044
:102940008904460060854e000606b8000a05460068
:10295000e0854e000706b8008b054600040eb8005f
:10296000890446000a854e00e0854d00050eb8003a
:102970000a0546008b854e00060eb8008b05460002
:102980000416b8000a0546008b854e000516b800ef
:102990008b054600041eb8008b0546000800be00eb
:1029a0000a01be004f06be004f05be004f04be0028
:0429b000000006001d
:020000040000fa
:1029b40091010000dd01000091010000dd01000033
:1029c40065010000dd01000065010000dd0100007b
:1029d4003e010000dd0100003e010000dd010000b9
:1029e4003e010000dd010000c2010000650100009d
:1029f40091010000dd01000091010000dd010000f3
:102a040065010000dd01000065010000dd0100003a
:102a14003e010000dd0100003e010000dd01000078
:102a24003e010000dd0100003e0100002c01000019
:102a340091010000dd01000091010000dd010000b2
:102a440065010000dd01000065010000dd010000fa
:102a54003e010000dd0100003e010000dd01000038
:102a64003e010000dd010000fd000000ee0000005a
:102a74003e010000dd0100007d020000bb030000f8
:102a84003e010000dd010000cb02000059020000fd
:102a94003e010000dd01000065010000dd010000d1
:102aa40023030000bb030000a9010000230300006e
:102ab400000000000000000001010000010200000d
:102ac40002030000040500000506000007090000d9
:102ad4000a0b00000c0e00000f110000121400007d
:102ae40015170000191b00001d1f00002123000002
:102af400252800002a2c00002f3100003436000065
:102b0400393b00003e41000043460000494c0000b0
:102b14004f520000555800005a5d000061640000e7
:102b2400676a00006d70000073760000797c000015
:102b340080830000868900008c8f0000929500003d
:102b4400989b00009ea20000a5a70000aaad00006b
:102b5400b0b30000b6b90000bcbe0000c1c40000a0
:102b6400c6c90000cbce0000d0d30000d5d70000ea
:102b7400dadc0000dee00000e2e40000e6e8000049
:102b8400eaeb0000edee0000f0f10000f3f40000c9
:102b9400f5f60000f8f90000fafa0000fbfc00006a
:102ba400fdfd0000fefe0000feff0000ffff000030
:102bb400ffff0000ffff0000fefe0000fefd00001e
:102bc400fdfc0000fbfa0000faf90000f8f6000032
:102bd400f5f40000f3f10000f0ee0000edeb00006e
:102be400eae80000e6e40000e2e00000dedc0000c9
:102bf400dad70000d5d30000d0ce0000cbc9000046
:102c0400c6c40000c1be0000bcb90000b6b30000d9
:102c1400b0ad0000aaa70000a5a200009e9b000082
:102c240098950000928f00008c8900008683000034
:102c3400807c000079760000737000006d6a0000eb
:102c440067640000615d00005a580000555200009e
:102c54004f4c000049460000434100003e3b000049
:102c640039360000343100002f2c00002a280000df
:102c740025230000211f00001d1b00001917000060
:102c840015140000121100000f0e00000c0b0000c0
:102c94000a090000070600000505000004030000ff
:102ca4000202000001010000010000000000000019
:102cb400fffe0000fdfc0000fbfa0000f9f8000034
:102cc400f7f60000f5f40000f3f20000f1f0000064
:102cd400efee0000eceb0000eae90000e8e700009a
:102ce400e6e50000e4e30000e2e10000e0df0000cc
:102cf400dedd0000dcdb0000dad90000d8d70000fc
:102d0400d6d50000d4d30000d2d10000d0cf00002b
:102d1400cecd0000cccb0000cac90000c7c600005d
:102d2400c5c40000c3c20000c1c00000bfbe000093
:102d3400bdbc0000bbba0000b9b80000b7b60000c3
:102d4400b5b40000b3b20000b1b00000afae0000f3
:102d5400adac0000abaa0000a9a80000a7a6000023
:102d6400a5a30000a2a10000a09f00009e9d00005a
:102d74009c9b00009a99000098970000969500008b
:102d84009493000092910000908f00008e8d0000bb
:102d94008c8b00008a8900008887000086850000eb
:102da40084830000828100007f020000030400008d
:102db4000506000007080000090a00000b0c0000cb
:102dc4000d0e00000f10000011120000131400007b
:102dd4001516000017180000191a00001b1c00002b
:102de4001d1e00001f2000002122000023240000db
:102df40026270000282900002a2b00002c2d000083
:102e04002e2f000030310000323300003435000032
:102e140036370000383900003a3b00003c3d0000e2
:102e24003e3f000040410000424300004445000092
:102e340046470000484a00004b4c00004d4e00003d
:102e44004f500000515200005354000055560000ea
:102e540057580000595a00005b5c00005d5e00009a
:102e64005f6000006162000063640000656600004a
:102e740067680000696a00006b6c00006d6f0000f9
:102e840070710000727300007475000076770000a2
:102e9400787900007a7b00007c7d00007e7f000052
:102ea4000001000002030000040500000607000002
:102eb400080900000a0b00000c0d00000e0f0000b2
:102ec400101100001314000015160000171800005c
:102ed400191a00001b1c00001d1e00001f2000000a
:102ee40021220000232400002526000027280000ba
:102ef400292a00002b2c00002d2e00002f3000006a
:102f04003132000033340000353600003839000017
:102f14003a3b00003c3d00003e3f000040410000c1
:102f24004243000044450000464700004849000071
:102f34004a4b00004c4d00004e4f00005051000021
:102f440052530000545500005657000058590000d1
:102f54005a5c00005d5e00005f600000616200007a
:102f6400636400006566000067680000696a000029
:102f74006b6c00006d6e00006f70000071720000d9
:102f8400737400007576000077780000797a000089
:102f94007b7c00007d7e0000808100008283000035
:102fa4008485000086870000888900008a8b0000e1
:102fb4008c8d00008e8f0000909100009293000091
:102fc4009495000096970000989900009a9b000041
:102fd4009c9d00009e9f0000a0a10000a2a30000f1
:102fe400a5a60000a7a80000a9aa0000abac000099
:102ff400adae0000afb00000b1b20000b3b4000049
:10300400b5b60000b7b80000b9ba0000bbbc0000f8
:10301400bdbe0000bfc00000c1c20000c3c40000a8
:10302400c5c60000c7c90000cacb0000cccd000053
:10303400cecf0000d0d10000d2d30000d4d5000000
:10304400d6d70000d8d90000dadb0000dcdd0000b0
:10305400dedf0000e0e10000e2e30000e4e5000060
:10306400e6e70000e8e90000eaeb0000ecee00000f
:10307400eff00000f1f20000f3f40000f5f60000b8
:10308400f7f80000f9fa0000fbfc0000fdfe000068
:10309400ffff0000ffff0000ffff0000ffff000034
:1030a400ffff0000ffff0000ffff0000ffff000024
:1030b400ffff0000ffff0000ffff0000ffff000014
:1030c400ffff0000ffff0000ffff0000ffff000004
:1030d400ffff0000ffff0000ffff0000ffff0000f4
:1030e400ffff0000ffff0000ffff0000ffff0000e4
:1030f400ffff0000ffff0000ffff0000ffff0000d4
:10310400ffff0000ffff0000ffff0000ffff0000c3
:10311400ffff0000ffff0000ffff0000ffff0000b3
:10312400ffff0000ffff0000ffff0000ffff0000a3
:10313400ffff0000ffff0000ffff0000ffff000093
:10314400ffff0000ffff0000ffff0000ffff000083
:10315400ffff0000ffff0000ffff0000ffff000073
:10316400ffff0000ffff0000ffff0000ffff000063
:10317400ffff0000ffff0000ffff0000ffff000053
:10318400ffff0000ffff0000ff0000000000000040
:10319400000000000000000000000000000000002b
:1031a400000000000000000000000000000000001b
:1031b400000000000000000000000000000000000b
:1031c40000000000000000000000000000000000fb
:1033f400ffff0000ff0000000000000000000000cc
:1034040000000000000000000000000000000000b8
:1034140000000000000000000000000000000000a8
:103424000000000000000000000000000000000098
:103434000000000000000000000000000000000088
:103444000000000000000000000000000000000078
:103454000000000000000000000000000000000068
:103464000000000000000000000000000000000058
:103474005031000064750000ddaf0000038d0000d2
:10348400b1fe0000d7e30000d88e00008d85000057
:103494004cd90000fbf100004bf80000cb4b0000be
:1034a400f84600002ce700001335000090c7000028
:1034b400d0880000ba700000554f0000045200008c
:1034c4007f8d000082dd0000d82f000023660000fd
:1034d40083d200009b5600000ef30000f6eb0000c0
:1034e400a7c7000063380000dfcd0000d1ee000064
:1034f40004fc00000f85000047b80000adbd0000cb
:10350400ec8d0000c07000004f35000091080000f1
:10351400a67d000039430000aac00000a7ae000049
:1035240084130000e4040000448e00009a4e00005e
:1035340016e000006a330000313c0000a85f000080
:103544003cd8000080ea00004d370000c825000088
:10355400ba9a00002e7700004af0000025230000ec
:1035640099580000743d00006d7a00003ded0000a4
:10357400d4a30000b55b00005bc60000fcb20000f1
:1035840052130000150a00003f8a00000285000063
:10359400ade700008123000055bc00009cf700004b
:1035a4008cbf00000595000052cc0000e60b000023
:1035b4004ef6000081d9000096d90000afa30000a8
:1035c4008a910000f7830000e1b90000f342000093
:1035d4009f6600001847000064170000f17b00009c
:1035e400b3be0000e2a300006dcb0000091e000082
:1035f400e5e10000b9530000874f0000df930000ad
:103604001fcb000082630000e45600009c380000d9
:10361400edd800000a9100000ab4000041cf000078
:1036240002440000271d000065340000a45100007e
:1036340071410000bfb7000000510000d46c0000cd
:10364400bbdb00003cc10000bea500002518000043
:103654007de80000a2290000e29800009c6e0000b2
:103664004f6f0000707300002120000054720000ae
:10367400796900006e670000207400006f2000006c
:103684006164000064200000746f00006f2000007b
:103694006d6100006e790000207300006365000016
:1036a4006e650000732100000025000075200000f5
:1036b40069730000206100006e200000696e000044
:1036c400766100006c6900006420000073630000f0
:1036d400656e0000652e00002e2e0000200a0000fa
:1036e40000520000656900006e6900007469000002
:1036f4006e67000020730000636500006e650000c3
:1037040020250000750a00000053000077690000be
:1037140074630000686900006e6700002074000094
:103724006f20000073630000656e0000653a0000be
:1037340020250000690a00000053000063650000b2
:103744006e65000020720000616e000020740000ad
:103754006f6f0000206c00006f6e0000672e000089
:103764002052000065730000657400007469000055
:103774006e67000020660000726100006d65000045
:1037840073200000636f0000756e00007465000014
:1037940072200000746f0000203000002e2e000004
:1037a4002e000000663a0000256900002073000026
:1037b4003a25000069000000496e000069740000a9
:1037c400696e000067200000646500006d6f0000f2
:1037d4002e2e00002e0d000000410000206c000081
:1037e4006574000074650000722100003a20000036
:1037f40027250000632700000d0a00000052000086
:103804006573000074740000696e00006720000096
:1038140066720000616d0000657300000d00000019
:10382400546f0000676700006c6900006e67000059
:10383400204300004c550000540d000000540000cb
:103844006861000074200000636800006172000079
:1038540020690000732000006e6f000074200000d7
:10386400612000006e7500006d620000657200004a
:10387400206f0000722000006c650000747400006a
:10388400657200003a20000027250000632700002d
:103894000d0a000000570000656c0000636f000013
:1038a4006d650000207400006f200000707200003d
:1038b4006f6a000065630000743a00002025000070
:1038c400732100000d0a0000005000006c65000028
:1038d40061730000652000006a7500006d700000cf
:1038e4002052000032380000207400006f000000f5
:1038f400746f000020470000726f0000756e0000b6
:10390400642e00002e2e0000000000000a0a0000b1
:10391400554100005254000020730000686f0000fd
:10392400756c0000642000006265000020770000d0
:103934006f7200006b6900006e6700002061000078
:1039440074200000313100003532000030300000b6
:103954002062000061750000642000006e6f0000aa
:10396400772100000d00000053650000747400000e
:10397400696e00006720000075700000204300009d
:103984004c550000543a00000d0000000d0a0000e0
:10399400446f00006e650000210d0000000000006f
:1039a400496e000069740000696e00006720000021
:1039b40073630000656e0000652000002569000047
:1039c4003a200000257300000a000000496e000040
:1039d40069740000696e00006720000073630000d2
:1039e400656e000065200000256900003a20000093
:1039f400257300000a000000496e0000697400008d
:103a0400696e00006720000073630000656e0000ab
:103a140065200000256900003a200000257300009d
:043a24000a00000094
:020000040000fa
:103a28003120000008ff000000ff0000ffff000039
:103a3800ffff0000ffff0000ffff0000ffff000086
:103a4800ffff0000ffff0000ffff0000ffff000076
:103a5800ffff0000ffff0000ffff0000ffff000066
:103a6800ffff0000ffff0000ffff0000ffff000056
:103a7800ffff0000ffff0000ffff0000ffff000046
:103a8800ffff0000ffff0000ffff0000e0ff000055
:103a9800ffe00000ffff0000e0e00000e0e00000c1
:103aa800ffff0000e0ff0000e0e50000ffff00006e
:103ab800d8d80000d8ff0000ff1d00001d1d000021
:103ac8001dff00001d1d00001d1d00001d2700001a
:103ad8002727000027ff000027c30000ffc30000be
:103ae800c3ff0000ffe50000ffff0000ffe000004b
:103af80000ff0000e0000000e0ff00000000000000
:103b0800e0000000ffe00000e0ff000000d8000037
:103b1800ffd8000000000000d81d0000ff000000d2
:103b2800000000001dff000000000000001d000054
:103b3800000000002727000000270000c3c3000082
:103b4800ff000000c3ff0000e5000000ffff0000c9
:103b5800e0000000ffe0000000e0000000ff0000bf
:103b6800ffe0000000ff0000e0e0000000ff0000b0
:103b7800d8000000d8000000ffd800001d00000099
:103b8800ffff0000ff1d000000ff0000ffff000016
:103b980027000000ff27000027000000c3c3000023
:103ba800c3000000ffe5000000e0000000ff000087
:103bb800ffe0000000ff0000e0000000e00000005f
:103bc800ffff0000ffe00000e0ff0000e000000051
:103bd800ffd8000000d8000000ff00001d1d0000f5
:103be80000ff0000ffff00001d000000ffff0000b5
:103bf800ff27000000ff00002727000000c3000087
:103c0800c3c3000000ff0000e5000000e000000062
:103c1800ffff0000e0000000ffe0000000e00000ff
:103c280000ff0000ffff0000e0e0000000e00000ef
:103c380000ff0000d8000000d8000000ff1d0000b1
:103c48001d000000ffff0000ff1d000000ff000036
:103c5800ffff000027000000ff27000027000000ea
:103c6800c3c30000c3000000ffe5000000e000003f
:103c780000ff0000ffe0000000ff0000e00000007f
:103c8800e0000000ffff0000ffe00000e00000008f
:103c9800e5000000ffd8000000d8000000ff000089
:103ca8001d1d000000ff0000ffff00001d000000b8
:103cb800ffff0000ff27000000ff0000272700008b
:103cc80000c30000c3c3000000ff0000e5000000bf
:103cd800e0000000ffff0000e0e00000e0e000007e
:103ce80000ff0000e0e00000e0e00000ffe000006e
:103cf80000e5000000ff0000d8000000d800000028
:103d0800ff1d0000001d00001d1d00001d1d0000fe
:103d180000ff0000ffff000027000000ff27000051
:103d2800c3000000c3c30000c3000000ffe00000a0
:103d380000e0000000ff0000ffe0000000000000bd
:103d4800e0000000e0ff00000000000000e00000cc
:103d5800e0000000e5d80000d8d8000000d8000036
:103d680000ff00001d1d0000ff0000000000000013
:103d78001d000000ffff0000ff27000000ff0000fb
:103d880027c3000000c30000c3c30000e5e500002e
:103d9800e0000000e0000000ffff0000e00000007d
:103da800ffe0000000e0000000ff0000ffff00004f
:103db800e0e0000000d8000000000000d80000008b
:103dc800d8000000ff1d00001d000000ffff0000dc
:103dd800ff1d000000ff0000ffff0000270000009b
:103de800ff270000c3000000c3c30000c300000099
:103df80000e0000000e0000000ff0000ffe000001d
:103e080000ff0000e0000000e0000000ffff0000ed
:103e1800ffe00000e5000000d8000000ffd8000027
:103e280000d8000000ff00001d1d000000ff00007a
:103e3800ffff00001d000000ffff0000ff2700003b
:103e480000ff0000c3c3000000c30000c3e500007a
:103e580000ff0000e0000000e0000000ffff00009d
:103e6800e0000000ffe0000000e0000000ff0000ac
:103e7800ffe00000ff000000d8d8000000ff0000ad
:103e8800d80000001d000000ff1d00001d000000fc
:103e9800ffff0000ff1d000000ff0000ffff000003
:103ea80027000000ffc30000c3000000c3c30000d8
:103eb800e5000000ffe0000000e0000000ff000057
:103ec800ffe0000000ff0000e0000000e00000004c
:103ed800ffff0000e0000000ffd80000d80000004d
:103ee800ffd80000001d000000ff00001d1d00009d
:103ef80000ff0000ffff00001d000000ffff0000a2
:103f0800ff27000000ff0000c3c3000000c300003b
:103f1800e5e5000000ff0000e0000000e000000010
:103f2800ffff0000e0000000ffe0000000ff0000cd
:103f3800e0e00000e0e0000000ff0000d8d800004a
:103f480000ff0000d80000001d1d00001dff00003c
:103f5800001d00001d1d00001dff00002727000098
:103f68002727000027270000c3c3000000c3000064
:103f7800ffe50000e5000000ffe0000000ff000092
:103f8800e0e00000e0ff000000ff0000ff0000008c
:103f9800ffff00000000000000000000ffff00001d
:103fa80000000000ffff000000ff0000000000000c
:103fb80000ff0000ff0000000000000000ff0000fc
:103fc80000000000000000000000000000000000e9
:103fd800ff000000ff00000000ff0000ff000000dd
:103fe800ffff000000000000ffff0000ffff0000cf
:103ff800ffff0000ffff0000ffff0000ffff0000c1
:10400800ffff0000ffff0000ffff0000ffff0000b0
:10401800ffff0000ffff0000ffff0000ffff0000a0
:10402800ffff0000ffff0000ffff0000ffff000090
:10403800ffff0000ffff0000ffff0000ffff000080
:10404800ffff0000ffff0000ffff0000ffff000070
:10405800ffff0000ffff0000ffff0000ffff000060
:10406800ffff0000d8d80000ff1d0000ffff000080
:104078001d1d00001d1d00001dff00001d1d00006e
:104088002727000027270000ff270000ffc30000a4
:10409800c3c30000ffff0000ffff0000ffff000098
:1040a800ffff0000ffff0000ffff0000ffff000010
:1040b800ffff0000ffff0000ffff0000ffff000000
:1040c800ffff0000d8ff000000d800001d0000001e
:1040d800ffff0000001d0000000000001dff0000a1
:1040e800000000000027000027000000c3c30000f4
:1040f800ff00000000000000ffff0000ffff0000bd
:10410800ffff0000ffff0000ffff0000ffff0000af
:10411800ffff0000ffff0000ffff0000ffff00009f
:10412800ffff0000ffd8000000ff00001d1d000079
:1041380000ff0000ffff00001d000000ff1d000041
:1041480000ff0000ffff00002727000000c3000059
:10415800c3000000ffff0000ffff0000ffff00009a
:10416800ffff0000ffff0000ffff0000ffff00004f
:10417800ffff0000ffff0000ffff0000ffff00003f
:10418800ffff0000ffff0000d8000000ff1d000037
:104198001d000000ffff0000ff1d000000ff0000e1
:1041a8001d000000ffff0000ff270000270000009f
:1041b800c3c3000000ff0000ffff0000ffff000076
:1041c800ffff0000ffff0000ffff0000ffff0000ef
:1041d800ffff0000ffff0000ffff0000ffff0000df
:1041e800ffff0000ffff0000ffd8000000ff0000f5
:1041f8001d1d000000ff0000ffff00001d00000063
:10420800ff1d000000ff0000ffff0000272700003f
:1042180000c30000c3000000ffff0000ffff000014
:10422800ffff0000ffff0000ffff0000ffff00008e
:10423800ffff0000ffff0000ffff0000ffff00007e
:10424800ffff0000ffff0000ffff0000d800000094
:10425800ff1d00001d000000ffff0000ff1d000003
:1042680000ff000027000000ffff0000ff270000fc
:10427800c3000000c3c3000000ff0000ffff0000f0
:10428800ffff0000ffff0000ffff0000ffff00002e
:10429800ffff0000ffff0000ffff0000ffff00001e
:1042a800ffff0000ffff0000ffff0000ffd8000035
:1042b80000ff00001d1d000000ff0000ffff0000c0
:1042c8001d000000ffff000027270000272700002f
:1042d80027c3000000c3000000c30000e5e500009c
:1042e800ffff0000ffff0000ffff0000ffff0000ce
:1042f800ffff0000ffff0000ffff0000ffff0000be
:10430800ffff0000ffff0000ffff0000ffff0000ad
:10431800d81d00001d1d00001d000000ffff00004b
:10432800ff1d000000ff000027ff00000000000044
:1043380000270000c3000000c3000000ff000000c9
:10434800e5000000ffff0000ffff0000ffff000086
:10435800ffff0000ffff0000ffff0000ffff00005d
:10436800ffff0000ffff0000ffff0000ffff00004d
:10437800ffd80000000000001d1d000000ff000025
:10438800ffff00001d000000ff27000000ff0000e5
:10439800ffff0000c3c3000000c3000000ff0000cf
:1043a800ffff0000e0ff0000ffff0000ffff00002c
:1043b800ffff0000ffff0000ffff0000ffff0000fd
:1043c800ffff0000ffff0000ffff0000ffff0000ed
:1043d800ffff00001d000000ff1d00001d00000081
:1043e800ffff0000ff1d000000ff00002700000085
:1043f800ffff0000ffc30000c3000000c30000006f
:10440800ffff0000ffe0000000ff0000ffff0000ca
:10441800ffff0000ffff0000ffff0000ffff00009c
:10442800ffff0000ffff0000ffff0000ffff00008c
:10443800ffff0000ff1d000000ff00001d1d000021
:1044480000ff0000ffff00001d000000ff27000024
:1044580000ff0000ffff0000c3c3000000c300000e
:1044680000ff0000ffff0000e0000000ffff000069
:10447800ffff0000ffff0000ffff0000ffff00003c
:10448800ffff0000ffff0000ffff0000ffff00002c
:10449800ffff0000ffff00001d000000ff1d0000df
:1044a8001d000000ffff0000ff1d000000ff0000ce
:1044b80027000000ffff0000ffc30000c30000004a
:1044c800c3000000ffff0000e0ff000000ff000045
:1044d800ffff0000ffff0000ffff0000ffff0000dc
:1044e800ffff0000ffff0000ffff0000ffff0000cc
:1044f800ffff0000ffff0000ff1d000000ff00009d
:104508001d0000001d1d00001d1d000027270000c4
:1045180027ff000027270000c3c30000c3000000d6
:10452800c3e50000e5e00000e0e0000000ff000057
:10453800ffff0000ffff0000ffff0000ffff00007b
:10454800ffff0000ffff0000ffff0000ffff00006b
:10455800ffff0000ffff0000ffff0000ff0000005a
:10456800ffff000000ff0000000000000000000046
:104578000000000000ff0000000000000000000034
:1045880000ff000000000000000000000000000024
:10459800ffff0000ffff0000ffff0000ffff00001b
:1045a800ffff0000ffff0000ffff0000ffff00000b
:1045b800ffff0000ffff0000ffff0000ffff0000fb
:1045c800ffff0000ffff0000ffff0000ffff0000eb
:1045d800ffff0000ffff0000ffff0000ffff0000db
:1045e800ffff0000ffff0000ffff0000ffff0000cb
:1045f800ffff0000ffff0000ffff0000ffff0000bb
:10460800ffff0000ffff0000ffff0000ffff0000aa
:10461800ffff0000ffff0000ffff0000ffff00009a
:10462800ffff0000ffff0000ffff0000ffff00008a
:10463800ffff0000ffff0000ffff0000ffff00007a
:10464800ffff0000ffff0000ffff0000ffff00006a
:10465800ffff0000ffff0000ffff0000ffff00005a
:10466800ffff0000ffff0000ff1e00001808000009
:104678000e0000000e0e00000e0e00000e0e0000d0
:104688000e0e00000e0e00000e0e00000e0e0000b2
:104698000e0e00000e0e000000000000000e0000cc
:1046a8000e0e00000e0e00000e0e00000e0e000092
:1046b8000e0e00000e0e00000e0e00000e0e000082
:1046c8000e0e00000e0e00000e0e00000e0e000072
:1046d800000000000101000001000000000e0000c1
:1046e8000e0e00000e0e00000e0e00000e0e000052
:1046f8000e0e00000e0e00000e0e00000e0e000042
:104708000e0e00000e0e00000e000000000100005a
:104718000101000001010000010000000e0e000070
:104728000e0e00000e0e00000e0e00000e0e000011
:104738000e0e00000e0e00000e0e00000e0e000001
:10474800000000000000000001010000010100005d
:104758000101000001010000000e00000e0e000023
:104768000e0e00000e0e00000e0e00000e0e0000d1
:104778000e0e00000e0e00000000000000010000f8
:104788000101000001010000010100000103000017
:1047980000010000010000000e0e00000e0e0000d7
:1047a8000e0e00000e0e00000e0e00000e0e000091
:1047b8000e000000000100000100000001010000df
:1047c80001010000010100000101000003000000d8
:1047d800010000000e0e00000e0e00000e0e00007c
:1047e8000e0e00000e0e00000e0e0000000000006d
:1047f80001010000010100000001000001010000aa
:104808000101000001010000010100000101000098
:10481800000e00000e0e00000e0e00000e0e00002e
:104828000e0e00000e000000000100000101000053
:104838000101000001010000010000000101000069
:10484800010100000101000000000000000e00004e
:104858000e0e00000e0e00000e0e00000e0e0000e0
:10486800000000000101000001000000010100003b
:10487800010100000100000001010000000000002b
:104888000000000000000000000e00000e0e0000f6
:104898000e0e00000e0e00000e0e000000010000bb
:1048a80000000000000100000101000001010000fb
:1048b8000001000001000000000e00000e000000d2
:1048c80000000000000000000e0e00000e0e0000a8
:1048d8000e0e00000e0000000001000001010000a3
:1048e80001010000010100000101000000010000b9
:1048f800010000000e0e00000e0e0000000e000069
:10490800000000000e0e00000e0e00000e0e00004b
:104918000e0000000101000001010000010000007c
:104928000101000001000000010100000100000079
:104938000e0e00000e0e00000e0000000e0000001b
:104948000e0e00000e0e00000e0e0000000000000b
:104958000101000001000000000100000101000049
:104968000001000001010000000000000e0e000020
:104978000e0e00000e0e00000e0e00000e0e0000bf
:104988000e0e00000e0000000001000001000000f3
:10499800000100000101000000000000010100000a
:1049a80001000000000e00000e0e00000e0e0000b8
:1049b8000e0e00000e0e00000e0e00000e0e00007f
:1049c8000e000000010100000101000001010000cb
:1049d80000000000010100000101000000000000cb
:1049e8000e0e00000e0e00000e0e00000e0e00004f
:1049f8000e0e00000e0e00000e0e00000e0000004d
:104a0800000000000000000000000000010100009c
:104a18000101000001000000000e00000e0e000061
:104a28000e0e00000e0e00000e0e00000e0e00000e
:104a38000e0e00000e0e00000e0e00000001000019
:104a48000101000001010000010100000101000056
:104a5800000000000e0e00000e0e00000e0e0000fa
:104a68000e0e00000e0e00000e0e00000e0e0000ce
:104a78000e0e00000e000000010000000101000001
:104a8800010100000101000001010000000e00000a
:104a98000e0e00000e0e00000e0e00000e0e00009e
:104aa8000e0e00000e0e00000e0e00000e0e00008e
:104ab8000e000000000100000100000000000000de
:104ac8000000000001000000000e00000e0e0000b3
:104ad8000e0e00000e0e00000e0e00000e0e00005e
:104ae8000e0e00000e0e00000e0e00000001000069
:104af80001000000000e00000e0e00000e00000075
:104b080000000000000000000e0e00000e0e000065
:104b18000e0e00000e0e00000e0e00000e0e00001d
:104b28000e0e00000e00000001000000000e000044
:104b38000e0e00000e0e00000e0e00000e0000000b
:104b480002020000000e00000e0e00000e0e000013
:104b58000e0e00000e0e00000e0e00000e0e0000dd
:104b68000e000000000000000e0e00000e0e0000f7
:104b78000e0e00000e0e00000e00000002000000e5
:104b8800020000000e0e00000e0e00000e0e0000c7
:104b98000e0e00000e0e00000e0e000000000000b9
:104ba8000e0e00000e0e00000e0e00000e0e00008d
:104bb8000e0e0000000000000000000000000000d1
:104bc800000e00000e0e00000e0e00000e0e00007b
:104bd8000e0e00000e0e0000000e00000e0e00006b
:104be8000e0e00000e0e00000e0e00000e0e00004d
:104bf8000e0000000e000000000e0000000e000075
:104c08000e0e00000e0e00000e0e00000e0e00002c
:104c18000e0e00001e180000080e0000000e000016
:104c28000e0e00000e0e00000e0e00000e0e00000c
:104c38000e0e00000e0e00000e0e00000e0e0000fc
:104c48000e000000000000000e0e00000e0e000016
:104c58000e0e00000e0e00000e0e00000e0e0000dc
:104c68000e0e00000e0e00000e0e00000e0e0000cc
:104c78000e0e00000e0e00000e00000000010000e5
:104c880001010000000000000e0e00000e0e0000e2
:104c98000e0e00000e0e00000e0e00000e0e00009c
:104ca8000e0e00000e0e00000e0e00000e0e00008c
:104cb8000e0e0000000000000101000001010000cc
:104cc80001010000000e00000e0e00000e0e000094
:104cd8000e0e00000e0e00000e0e00000e0e00005c
:104ce8000e0e0000000000000000000000000000a0
:104cf80000010000010100000101000000010000a6
:104d0800010000000e0e00000e0e00000e0e000046
:104d18000e0e00000e0e00000e0e00000e00000029
:104d28000001000001010000000100000101000075
:104d38000101000001000000030000000101000063
:104d4800000e00000e0e00000e0e00000e0e0000f9
:104d58000e0e00000e0e0000000000000101000011
:104d68000101000001000000010100000101000034
:104d7800010100000303000000010000000e000014
:104d88000e0e00000e0e00000e0e00000e0e0000ab
:104d98000e000000000100000100000000010000fa
:104da80001010000010100000101000001010000f3
:104db8000101000001010000010000000e0e0000ca
:104dc8000e0e00000e0e00000e0e00000000000087
:104dd80001000000000100000101000001010000c5
:104de80001000000000100000101000001010000b5
:104df80001000000000000000e0e00000e0e000072
:104e08000e0e00000e00000000010000010100006d
:104e18000101000001010000010000000000000085
:104e28000101000001000000000000000000000077
:104e3800000000000e0e00000e0e00000e0e000016
:104e48000000000001010000010000000101000055
:104e58000101000000000000010100000101000044
:104e6800000000000e00000000000000000000002c
:104e7800000e00000e0e00000e00000000010000f1
:104e88000100000000010000010100000000000016
:104e9800000100000101000001010000000e0000f7
:104ea8000e0e0000000e00000e000000000e0000b4
:104eb8000e0e0000000000000101000001010000ca
:104ec80001010000000000000001000001010000d5
:104ed8000101000001010000000e00000e0e00009c
:104ee800000000000e0e0000000e00000e0e000074
:104ef8000e0000000000000000000000000000009c
:104f08000001000001010000010100000101000092
:104f180001000000000e00000e0e00000e00000050
:104f28000e0e00000e0e00000e0e00000e0e000009
:104f38000e0e00000e00000000010000010100003c
:104f48000101000001010000010100000000000053
:104f58000e0e00000e0e00000e0e00000e0e0000d9
:104f68000e0e00000e0e00000e0e00000e0e0000c9
:104f78000000000001010000010100000101000023
:104f88000101000001000000000e00000e0e0000ec
:104f98000e0e00000e0e00000e0e00000e0e000099
:104fa8000e0e00000e0e00000e00000000010000b2
:104fb80001010000010100000101000001010000e1
:104fc800000000000e0e00000e0e00000e0e000085
:104fd8000e0e00000e0e00000e0e00000e0e000059
:104fe8000e0e000000000000010100000101000099
:104ff800010100000101000001000000000e000096
:105008000e0e00000e0e00000e0e00000e0e000028
:105018000e0e00000e0e00000e0e00000e00000026
:105028000001000001010000010100000101000071
:1050380001010000010000000e0e00000e0e00002d
:105048000e0e00000e0e00000e0e00000e0e0000e8
:105058000e0e00000e0e000000000000010000000f
:105068000100000000000000000000000100000036
:10507800000000000e0e00000e0e00000e0e0000d4
:105088000e0e00000e0e00000e0e00000e0e0000a8
:105098000e0e00000001000000000000000e0000dd
:1050a8000e0e00000e0e00000000000002000000be
:1050b800000e00000e0e00000e0e00000e0e000086
:1050c8000e0e00000e0e00000e0e00000e00000076
:1050d800000000000e0e00000e0e00000e0e000074
:1050e8000e0e00000e00000002000000020000008a
:1050f8000e0e00000e0e00000e0e00000e0e000038
:105108000e0e00000e0e00000e0000000e0e000035
:105118000e0e00000e0e00000e0e00000e0e000017
:10512800000000000200000002020000000e000063
:105138000e0e00000e0e00000e0e00000e0e0000f7
:105148000e0e00000e0e00000e0e00000e0e0000e7
:105158000e0e00000e0e00000e0e00000e000000e5
:105168000000000000000000000e00000e0e00000d
:105178000e0e00000e0e00000e0e00000e0e0000b7
:105188000e0e00000e0e00000e0e00000e0e0000a7
:105198000e0e00000e0e00000e0000000e000000b3
:1051a800000e0000000e00000e0e00000e0e0000a3
:1051b8000e0e00000e0e00000e0e00000e1e000067
:1051c800180800000e0000000e0e00000e0e000071
:1051d8000e0e00000e0e00000e0e00000e0e000057
:1051e8000e0e00000e0e00000e0e00000000000063
:1051f800000000000e0e00000e0e00000e0e000053
:105208000e0e00000e0e00000e0e00000e0e000026
:105218000e0e00000e0e00000e0e00000e0e000016
:105228000e0e000000000000010100000101000056
:105238000000000000000000000e00000e0e00003c
:105248000e0e00000e0e00000e0e00000e0e0000e6
:105258000e00000000000000000000000e0000002a
:105268000001000001010000010000000101000030
:105278000000000000000000000e00000e0e0000fc
:105288000e0e00000e0e00000e00000000000000d0
:105298000101000001000000000000000101000001
:1052a80001010000000300000301000000000000ed
:1052b80000000000000000000e0e00000e0e0000ae
:1052c8000e0e0000000000000101000001010000b6
:1052d80001010000000100000101000001010000bf
:1052e8000003000001010000000000000e0e000095
:1052f8000e0e00000e0e00000e0e00000e00000044
:10530800000100000100000001010000010100008f
:10531800010100000101000001010000010100007d
:10532800010100000000000000000000000e000065
:105338000e0e00000e0e000000000000010100002b
:10534800000000000101000001010000010100004f
:10535800010100000101000001010000010000003e
:10536800000000000e0e00000e0e00000e0e0000e1
:105378000e00000000010000000000000101000014
:105388000101000001010000010000000000000010
:105398000101000001010000000000000e0e0000e5
:1053a8000e0e00000e0e00000e0e000000000000a1
:1053b80001010000010100000001000001010000de
:1053c80001000000000000000101000001010000d0
:1053d80000000000000e00000e0e00000e0e00007f
:1053e8000e0e00000e000000000100000101000088
:1053f80000000000010100000101000000000000a1
:10540800010100000101000001000000000e000081
:105418000e0e00000e0e00000e0e00000e0e000014
:10542800000100000101000001010000010100006d
:10543800010100000000000000010000010100005f
:1054480001010000010000000e0e00000e0e000019
:105458000e0e00000e0e00000e0e000000000000f0
:105468000000000001010000010100000000000030
:10547800000100000101000001010000010100001d
:10548800010000000e0e00000e0e00000e0e0000bf
:105498000e0e00000e0e00000e0e00000e000000a2
:1054a80000000000000000000101000001010000f0
:1054b80001010000010100000101000000000000de
:1054c8000e0e00000e0e00000e0e00000e0e000064
:1054d8000e0e00000e0e00000e0e00000e00000062
:1054e80000010000010100000101000001010000ad
:1054f8000101000001000000000e00000e0e000077
:105508000e0e00000e0e00000e0e00000e0e000023
:105518000e0e00000e0e0000000000000101000049
:10552800010100000101000001010000010100006b
:10553800000000000e0e00000e0e00000e0e00000f
:105548000e0e00000e0e00000e0e00000e0e0000e3
:105558000e00000000010000010100000101000030
:10556800010100000101000001000000000e000020
:105578000e0e00000e0e00000e0e00000e0e0000b3
:105588000e0e00000e0e00000e0e000000000000bf
:1055980001000000010100000101000001010000fc
:1055a80001010000000000000e0e00000e0e0000b9
:1055b8000e0e00000e0e00000e0e00000e0e000073
:1055c8000e0e00000e0e0000000100000001000099
:1055d80001010000010100000101000001010000bb
:1055e800000e00000e0e00000e0e00000e0e000051
:1055f8000e0e00000e0e00000e0e00000e0e000033
:105608000e00000001000000010000000000000082
:10561800000000000000000001000000000e000073
:105628000e0e00000e0e00000e0e00000e0e000002
:105638000e0e00000e0e00000e0e0000000000000e
:1056480000000000000e00000e0e00000e0e00000c
:105658000e00000000020000000000000e0e000016
:105668000e0e00000e0e00000e0e00000e0e0000c2
:105678000e0e00000e0e0000000e00000e0e0000c0
:105688000e0e00000e0e00000e0e00000e0e0000a2
:105698000002000002000000000e00000e0e0000d4
:1056a8000e0e00000e0e00000e0e00000e0e000082
:1056b8000e0e00000e0e00000e0e00000e0e000072
:1056c8000e0e00000e0e00000e0e0000000000007e
:1056d80002020000000e00000e0e00000e0e000078
:1056e8000e0e00000e0e00000e0e00000e0e000042
:1056f8000e0e00000e0e00000e0e00000e0e000032
:105708000e0e00000e000000000000000000000067
:10571800000000000e0e00000e0e00000e0e00002d
:105728000e0e00000e0e00000e0e00000e0e000001
:105738000e0e00000e0e00000e0e00000e0e0000f1
:105748000e0e0000000e0000000000000e00000019
:105758000e0e00000e0e00000e0e00000e0e0000d1
:105768000e0e00000e0e00000d0e000008e30000f3
:1057780000e3000000e30000e3e30000e3e30000cf
:1057880000e30000e3e30000e3e3000000f20000b0
:1057980000e30000e3e3000000f2000000e3000083
:1057a800e3e30000e3000000f20000000000000056
:1057b80000000000f2000000e3e30000e3e3000063
:1057c80000000000000000000000000000000000d1
:1057d80000e30000e3e30000e3000000fcfc00003d
:1057e8000000000000fc0000fc000000e3e30000f3
:1057f800e3e300000000000000000000f2000000e9
:105808000000000000e30000e3e30000e3e3000021
:10581800006d00006d0000006d6d000000e30000e9
:10582800e3e30000e3e30000e3e30000000000001e
:105838000000000000e30000e3e30000e3e30000f1
:10584800e3e30000e3000000ffff0000ff000000aa
:10585800e3e30000e3e30000e3e30000e30000000b
:1058680000ff0000ffff000000000000e300000050
:1058780000000000e3e300000000000000ff00005b
:105888000000000000e3000000e3000000e3000067
:10589800e30000000000000000000000000000001d
:1058a800e3e30000e3000000e3e300000000000081
:1058b80000000000000000000000000000000000e0
:1058c80000e30000e3e3000000000000e300000044
:1058d80000e30000e3e30000e3e30000e30d000061
:1058e8000e080000e3000000e3000000e3e300000e
:1058f800e3e30000e3000000e3e30000e3e300006b
:10590800e3000000f2000000e3e30000e300000011
:10591800f2000000e3e30000e3e3000000f200000f
:10592800000000000000000000f2000000e300009a
:10593800e3e30000e30000000000000000000000b6
:105948000000000000000000e3e30000e3e30000c3
:1059580000fc0000fc00000000000000fcfc00004f
:1059680000e30000e3e30000e300000000000000a3
:1059780000f200000000000000000000e3e3000067
:10598800e3e30000e30000006d6d0000006d00001f
:105998006d000000e3e30000e3e30000e3e3000040
:1059a800e30000000000000000000000e3e3000046
:1059b800e300000000e30000e3e3000000ff000054
:1059c800ffff000000e30000e3e30000e300000045
:1059d800e3e3000000000000ffff0000ff000000fc
:1059e80000e30000e3e3000000e30000e300000040
:1059f80000000000ff00000000000000e3e30000da
:105a0800e3000000e3e300000000000000000000e5
:105a18000000000000e30000e3e3000000e30000f2
:105a2800e30000000000000000000000000000008b
:105a38000000000000000000e3e30000e3000000b5
:105a480000e3000000000000e3e30000e3e30000df
:105a5800e3e300000d0e000008e3000000e300008f
:105a680000e30000e3e30000e3e3000000e30000dc
:105a7800e3e30000e3e3000000f2000000e30000bd
:105a8800e3e3000000f2000000e30000e3e30000ad
:105a9800e3000000f2000000000000000000000029
:105aa800f2000000e3e30000e3e300000000000070
:105ab80000000000000000000000000000e30000fb
:105ac800e3e30000e3000000fcfc0000000000002d
:105ad80000fc0000fc000000e3e30000e3e300003a
:105ae8000000000000000000f200000000000000bc
:105af80000e30000e3e30000e3e30000006d0000c2
:105b08006d0000006d6d000000e30000e3e300009d
:105b180000e30000e3e300000000000000000000d4
:105b280000e30000e3e30000e3000000e3e300001b
:105b3800e3000000ffff0000ff000000e3e30000b7
:105b4800e3e3000000e30000e300000000ff0000c2
:105b5800ffff000000000000e3e30000e300000096
:105b6800e3e300000000000000ff00000000000068
:105b780000e30000e3e3000000e30000e3000000ae
:105b8800000000000000000000000000e3e3000047
:105b9800e3000000e3e30000000000000000000054
:105ba80000000000000000000000000000e300000a
:105bb800e3e3000000000000e300000000e3000051
:105bc800e3e30000e3e30000e30d00000e0800003b
:105bd800e3000000e3000000e3e30000e3e300006b
:105be800e3000000e3e30000e3e30000e30000005b
:105bf800f2000000e3e30000e3000000f200000010
:105c0800e3e30000e3e3000000f20000000000000e
:105c18000000000000f2000000e30000e3e30000e1
:105c2800e300000000000000000000000000000089
:105c380000000000e3e30000e3e3000000fc0000d4
:105c4800fc00000000000000fcfc000000e3000075
:105c5800e3e30000e30000000000000000f20000a1
:105c68000000000000000000e3e30000e3e30000a0
:105c7800e30000006d6d0000006d00006d00000085
:105c8800e3e30000e3e30000e3e30000e3000000d7
:105c98000000000000000000e3e30000e3e3000070
:105ca80000000000e3e3000000ff0000ffff000029
:105cb80000e30000e3e30000e3000000e3e300008a
:105cc80000000000ffff0000ff00000000e30000ec
