:020000040000fa
:080000000002040000000000f2
:020000040000fa
:100008006203000062030000620300006203000054
:100018006203000062030000620300006203000044
:10002800620300006203000062030000403a00001f
:10003800620300006203000062030000783a0000d7
:10004800620300006203000062030000d2020000a5
:100058000003000062030000620300006203000066
:1000680062030000620300006203000062030000f4
:1000780062030000620300006203000062030000e4
:1000880062030000620300006203000062030000d4
:1000980062030000620300006203000062030000c4
:1000a80062030000620300006203000062030000b4
:1000b80062030000620300006203000062030000a4
:1000c8006203000062030000620300006203000094
:1000d8006203000062030000620300006203000084
:1000e8006203000062030000620300006203000074
:1000f8006203000062030000620300006203000064
:100108006203000062030000620300006203000053
:100118006203000062030000620300006203000043
:100128006203000062030000620300006203000033
:100138006203000062030000620300006203000023
:100148006203000062030000620300006203000013
:100158006203000062030000620300006203000003
:1001680062030000620300006203000062030000f3
:1001780062030000620300006203000062030000e3
:1001880062030000620300006203000062030000d3
:1001980062030000620300006203000062030000c3
:1001a80062030000620300006203000062030000b3
:1001b800743900006203000062030000620300005b
:1001c8006203000062030000620300006203000093
:1001d8006203000062030000620300006203000083
:1001e8006203000062030000620300006203000073
:0801f800620300006203000035
:020000040000fa
:100208006203000062030000620300006203000052
:100218006203000062030000620300006203000042
:10022800620300006203000062030000403a00001d
:10023800620300006203000062030000783a0000d5
:10024800620300006203000062030000d2020000a3
:100258000003000062030000620300006203000064
:1002680062030000620300006203000062030000f2
:1002780062030000620300006203000062030000e2
:1002880062030000620300006203000062030000d2
:1002980062030000620300006203000062030000c2
:1002a80062030000620300006203000062030000b2
:1002b80062030000620300006203000062030000a2
:1002c8006203000062030000620300006203000092
:1002d8006203000062030000620300006203000082
:1002e8006203000062030000620300006203000072
:1002f8006203000062030000620300006203000062
:100308006203000062030000620300006203000051
:100318006203000062030000620300006203000041
:100328006203000062030000620300006203000031
:100338006203000062030000620300006203000021
:100348006203000062030000620300006203000011
:100358006203000062030000620300006203000001
:1003680062030000620300006203000062030000f1
:1003780062030000620300006203000062030000e1
:1003880062030000620300006203000062030000d1
:1003980062030000620300006203000062030000c1
:1003a80062030000620300006203000062030000b1
:1003b8007439000062030000620300006203000059
:1003c8006203000062030000620300006203000091
:1003d8006203000062030000620300006203000081
:1003e8006203000062030000620300006203000071
:0803f800620300006203000033
:020000040000fa
:100400006fd02000ce2925000e01880000000000da
:10041000000020000000e000020032000001200087
:10042000200288000c000700e06722000100200085
:100430000f000700000020000000e0000200320072
:10044000000002000000000048260200000000003a
:100450000040da000000fe00001020000000e00074
:1004600002003200002020009001880000000600f9
:10047000a1028800800078000000eb001a0037001d
:10048000e280400054a0b4009101ba00e280400034
:1004900054a0b4009102ba00e280400054a0b4001d
:1004a0000002eb00472bde00f507b200a601880032
:1004b000602ce10008003a000049eb000201e8006e
:1004c000020039003420ec0002f0a0008301e900b2
:1004d000f9ff3e00040037006128e100010032000e
:1004e0000082eb00040007001101ba000200e000e6
:1004f000e3ff3a000000060004d0a300e20f490029
:100500001c003900810278003549ba000201e80078
:10051000020039003420ec0002f0a0008301e90061
:100520000f0032002549ba000201e800020039003c
:100530003420ec0002f0a0008301e9000800320042
:100540000400e0000600320015c9ba000201e8000c
:10055000020039003420ec0002f0a0008301e90021
:100560008180e80054a0b4000300e000e2ff3a00fc
:10057000000006009102ba00055978008301e900e5
:10058000f7ff3200c82ade00055978008301e90030
:10059000f3ff32000400e000f1ff320011d9ba008d
:1005a000eeff3700841f78000200fa008560a90082
:1005b0001411800062026200e00f5200020032005b
:1005c0002222a9000b00370014118000640262008f
:1005d000e00f520007003a0002003700341180009b
:1005e000044f78001411800061026200e00f520095
:1005f000faff3a000080fa004f027800004006003f
:10060000841f78000200fa0004488000040f78007c
:100610001e027800241188008580a9000080fa005d
:100620004f027800004006000000fa0042c7a9000f
:100630002535800004fc2f00048262007400b300a2
:10064000243588003536800004fc2f0004826200c7
:100650003400b3003436880042c7a800f4192000e3
:10066000441188000002eb00041188002062a800f9
:100670000002eb001411880021e2a8002342a80028
:100680008560a9009560a800950580000470200091
:1006900005027200940588000080fa000000060040
:1006a0000400fa00000f7800110798001e0278007d
:1006b000044888000002eb00040078000080fa0083
:1006c000000006000040da000000fe0003f0a20077
:1006d000889fbe008a9fbe008c1f78000001070023
:1006e000070133006450e1004f0032006420e10054
:1006f0005200320003826c0007003b000905d00065
:100700000306d000820f54000c065d000200390081
:1007100002003200890178000306780085825500c6
:1007200004003d000003fd008103fd008502ea0096
:100730008b854200840f720002003b0060001000b5
:10074000e08018006011b8000005eb007a28e10095
:100750000a00390006007800c75ddd00f707b20027
:10076000878075002d003700828171000a017800b2
:10077000610560008180d1000080d3008502e9001e
:10078000f9ff3b00060440008784480002003b005c
:1007900060041400e0841c000988a30007003200f4
:1007a0008a81710082817100610164008904d10035
:1007b0000884d3008b05e800170037000978a300f0
:1007c00013003a000b00e000130034008b05e90031
:1007d0000804440089844c000a4474000978a3008a
:1007e0000d003a000b00e000070034008b05e90023
:1007f0000804440089844c0001003a000b002000ea
:100800000978a300f7ff32000001eb000200370077
:10081000828171000a017800760007000cf0a700c1
:1008200001f0a000bf0037006420e10002003a00a0
:10083000838f6c00bf0033000801be000200be00c1
:10084000b80037000081eb00f1003700889fbe0040
:100850008a9fbe008c1f7800a1000700a80033000b
:1008600003866c006450e1002e0032006420e10039
:10087000330032006150e1002f0032006120e100be
:100880003100320085855500eb07b00009002000db
:1008900008042000050037000804440089844c0047
:1008a0000a0031000603430087834b000001530018
:1008b00081815b00f8ff33000203be000800a00046
:1008c0000804440089844c00f6ff3900c639dd0075
:1008d0008301730001003200130020008904d1005d
:1008e0000884d3000998a300050032000800a7007f
:1008f0000300a0008904d1000884d3008b05e80020
:100900008904d1000884d3000001eb000281d200e9
:100910003800070001f0a1000cf0a70001f0a000d2
:10092000800037006420e100820032000801be0030
:100930000200be00f7ff37006120e1007d003200b9
:100940006000b800f3ff37000000200001f8270026
:10095000f0ff3700f4ff2f001b0137000001be003d
:100960004a0007000470a70003f0a1006509b10068
:10097000160032000d0035006828e1000600350041
:10098000f0ff2f00f1ff27000300e00013003b0001
:1009900001002800000005000000400081804800a0
:1009a0008502e900fcff3a0008003700f88f42009a
:1009b00002003c008000eb00000005008100d10037
:1009c0000080d3008502e800fcff3a000300e0004d
:1009d00002003b0060001000e080180000000600ec
:1009e0004f89de0082017800140137006011b800e1
:1009f0002201370081002000618055000b003d007e
:100a00000b00200061fe2f000100e1001d003400fa
:100a100082817100610164008904d1000884d300df
:100a20000000e800faff3a00710020006100640055
:100a300003007000020060000900320061044400fd
:100a4000e0844c000988a500050032008b05e80011
:100a50006808e10002003a008904d1000884d3004c
:100a6000f20f20000258e10005003d00c75ddd00e7
:100a7000f907b200898075000800780000000600c0
:100a80000bf827008b00780000000500c70ade0085
:100a9000f107b200f50fb20008003200e1cf4200ca
:100aa000020032000170a00024000500810f7000d8
:100ab000010032000408050044000500810f7000a9
:100ac00002003a00140005008502e9000000400021
:100ad00081c04800fcff3b000170a000240005001d
:100ae0000004be00e9ff07000003be000405be00cd
:100af0000200be00e5ff0700844f750000000600fd
:100b00000200be006450e100050036006420e100f0
:100b1000020036000968a30001003a000800be0088
:100b20000160a0004f0678004f05be004f04be00d4
:100b300000000600f0ff2f00f1ff2700f9ff37004b
:100b4000889fbe008a9fbe008c1f7800e4ff0700cc
:100b5000ebff330003866c006450e1002400320098
:100b60006420e100270032006150e10022003200e1
:100b70006120e100210032008b854200eb07b100cb
:100b80000134b800003ab8000804420089844a00e1
:100b9000013ab8000030b8008880400009014a00de
:100ba0000400330000004000818048000201490039
:100bb0008b05e900c909dd008301700001003200e6
:100bc00013002000c814de004814dd004709de00d1
:100bd0001200b200c808de000884700085ff07001c
:100be00001f0a1000cf0a70001f0a000cdff37003c
:100bf0006120e100cfff32000801be000200be000c
:100c0000f7ff37006150e100fcff3a00c9ff3700f1
:100c1000889fbe008a9fbe008c9fbe008205780020
:100c20000004be0099ff07000800be006420e10038
:100c30000700390002003a00f1ff2700f0ff2f0003
:100c40000160a00012022000f26788005500370002
:100c50006120e10003003a000b00a70001f8230027
:100c60005000370001f0a10002002100936424002d
:100c7000700007000800be0004003500b2fd20002f
:100c8000930c2400ac0007000004be000005eb003c
:100c90000b00a6004f0dde0001f0a1000004be0015
:100ca00032982f0023ea2300a5ff07000001eb0084
:100cb00003f023000b00a70003f8230084fe0700c5
:100cc00026ff07000000a7000a00a20044ff07005b
:100cd0000b00e000030032000200200003f02300bc
:100ce0007afe070001f0a2000006be00020020000c
:100cf0009304240092ff07000801be0074fe070061
:100d0000809fbe000c00be0022a22a00d3a72300b1
:100d10008bff07004f01be006dfe07000004be0000
:100d200001f0a10002002000039823004100070009
:100d30000800be00190035000001be0080ff07005a
:100d40000006be00b2c52900e36223007cff070055
:100d500022222b00f3942b005dfe07000c01be0045
:100d600077ff0700e273280083c0230058fe0700c6
:100d70000c01be0072ff070042aa2a00a3e22b006a
:100d800053fe07000c01be006dff07000801be0006
:100d90006bff07000801be004dfe07000a00a70018
:100da00001f0a2004f06be004f05be004f04be007a
:100db000000006000001eb0095ff3700af000700c0
:100dc0000400be0000000600889fbe008a9fbe008f
:100dd000841f780042ff07004f00780011003300a5
:100de000f0ff2f00838f6c0006003b0004056500b8
:100df0000a00a7000800370009f0a6001000200034
:100e000008003700820f5400838f5c000300390014
:100e10001000200001003e000000200009f0a700a3
:100e20000000ea004f05be004f04be000000e000d5
:100e30000000060014002000e3ff3700881f780040
:100e4000030478000300e00007003d00600010008c
:100e5000e080180060011900e081190002003b00e9
:100e600001f02d00030037000400070008f0a70080
:100e700001f0a0004f04780000000600889fbe002b
:100e80008a9fbe000082700004027100048271001b
:100e9000260032000004be000200be006011b8004f
:100ea0006b092000950220000182cf000a00390062
:100eb0000541b1000082cf00070039000541b100b3
:100ec0000982cf00040039000541b1000882cf003b
:100ed000010039000541b100054252001200320004
:100ee0000a003b0082817100610164008100d10031
:100ef0000080d3008984d3000884d3008b05e800e8
:100f00000442e800f7ff3a000700370008044400f5
:100f100089844c0000004800818048008b05e9006e
:100f20000442e900f9ff3a00b2fe07004f05be0097
:100f30004f04be000000060004002000000037003f
:100f4000889fbe008a9fbe008c1f78004f26dd0060
:100f5000e3fe0700eafe33006120e10043003200b7
:100f60006250e10041003e003e0039006420e10093
:100f70003c003200058255000f003b000402e800ef
:100f800038003a00800f5300818f5b003500340039
:100f90000800be0003f0a10001f0a60003f0a000cd
:100fa0000cf0a700cafd0700defe37000603430071
:100fb00087834b000c4646000005530081855b008b
:100fc000020033000a03be000c00a0000402e90086
:100fd000f6ff3b00850578000602430087824b0040
:100fe00004003a006000b80009f0a70001f0a0007a
:100ff000ccfe37000002520081825a000704e00054
:10100000040033000603430087834b008b05e9008f
:10101000faff3700090578000604be000203be008f
:101020006011b80073fe0700e00f5200e08f5a0015
:101030000700350002003c000c08a3000400320049
:101040000601be0003f0a0000cf0a700a0fd070001
:101050000a85680001f0a1000af0a70001f0a000d5
:10106000b0fe37000800be00aefe370010022000c0
:101070000cf0a600f0678800aefe37006022b800d2
:10108000060220000000d0008180d2000482d2003d
:101090008582d2000000a0000202520083825a0022
:1010a000030031000202420083824a000000a100d6
:1010b0000603e900f3ff3a000000060015c0b30084
:1010c0000100200044d020000068880011688800da
:1010d000054a78000000060044d020008042eb0062
:1010e00094cf120002003a0010002000f3ff070026
:1010f0000068800011688000d2e62400631c240090
:10110000180007009403230005002000000242009d
:1011100081824a000468880015688800050078000c
:1011200000f0a10000000600000278000000eb00c3
:101130000401e80084027800030020006103b80085
:101140000000e8008600410065437b00e04f53004b
:10115000faff3a000482ea0004804000cf80de00fb
:1011600000000600020ab900001bb9000200b80026
:0c117000810042008100430000000600e6
:020000040000fa
:10117c00000000000000000001010000010200005e
:10118c00020300000405000005060000070900002a
:10119c000a0b00000c0e00000f11000012140000ce
:1011ac0015170000191b00001d1f00002123000053
:1011bc00252800002a2c00002f31000034360000b6
:1011cc00393b00003e41000043460000494c000002
:1011dc004f520000555800005a5d00006164000039
:1011ec00676a00006d70000073760000797c000067
:1011fc0080830000868900008c8f0000929500008f
:10120c00989b00009ea20000a5a70000aaad0000bc
:10121c00b0b30000b6b90000bcbe0000c1c40000f1
:10122c00c6c90000cbce0000d0d30000d5d700003b
:10123c00dadc0000dee00000e2e40000e6e800009a
:10124c00eaeb0000edee0000f0f10000f3f400001a
:10125c00f5f60000f8f90000fafa0000fbfc0000bb
:10126c00fdfd0000fefe0000feff0000ffff000081
:10127c00ffff0000ffff0000fefe0000fefd00006f
:10128c00fdfc0000fbfa0000faf90000f8f6000083
:10129c00f5f40000f3f10000f0ee0000edeb0000bf
:1012ac00eae80000e6e40000e2e00000dedc00001a
:1012bc00dad70000d5d30000d0ce0000cbc9000097
:1012cc00c6c40000c1be0000bcb90000b6b300002b
:1012dc00b0ad0000aaa70000a5a200009e9b0000d4
:1012ec0098950000928f00008c8900008683000086
:1012fc00807c000079760000737000006d6a00003d
:10130c0067640000615d00005a58000055520000ef
:10131c004f4c000049460000434100003e3b00009a
:10132c0039360000343100002f2c00002a28000030
:10133c0025230000211f00001d1b000019170000b1
:10134c0015140000121100000f0e00000c0b000011
:10135c000a09000007060000050500000403000050
:10136c00020200000101000001000000000000006a
:020000040000fa
:10137c001010000008030000001c000003e4000033
:10138c000303000003e40000030300000303000058
:10139c0003030000030300000303000003e4000048
:1013ac000303000003030000e403000003e4000057
:1013bc0003f5000003030000030300000303000017
:1013cc0003030000e4030000e4e400000303000056
:1013dc00e4030000e40300000303000003f5000035
:1013ec0003030000e4e40000e4e40000e403000074
:1013fc00e4030000e4030000030300000303000007
:10140c00e4030000e4e40000e4e40000e4e4000091
:10141c00e40300000303000003030000e4030000e6
:10142c00e4e4000003e40000e4e40000f5e4000060
:10143c00e4030000e4f5000003030000e4e4000012
:10144c00e4e40000f5e40000e4e40000e4f500004e
:10145c00e4e40000e4e4000003e4000003e4000022
:10146c00e4e40000e4e40000e4f50000e4f500002e
:10147c00e4e40000e4e4000003e4000003e4000002
:10148c00e4e40000e4f50000e4f50000e4f50000fd
:10149c00f5e40000e4e4000003e40000e4e40000f0
:1014ac00e4e40000f5e40000f5f50000f5f50000bb
:1014bc00f5f50000e4030000e4e40000e4e40000bf
:1014cc00e4f50000f5f50000f5ff0000f5f500006f
:1014dc00e4f50000e4e40000e4030000e4e40000b0
:1014ec00f5f50000f5ff0000f5ff0000f5ff00002a
:1014fc00f5f50000e4e40000e4030000e4e400007f
:10150c00f5f50000ffff0000ffff0000fff50000f5
:10151c00f5e40000e4e400000303000003e4000031
:10152c00e4f50000f5ff0000ffff0000fff50000f0
:10153c00f5e40000e4e400000303000003e4000011
:10154c00e4e40000f5f50000f5f50000f5e400001a
:10155c00e4e40000e40300000303000003030000c4
:10156c0003e40000e4e40000e4e40000e4e4000030
:10157c000303000003030000031000001008000028
:10158c00030000000303000003030000030300003a
:10159c000303000003e400000303000003e4000065
:1015ac00030300000303000003f5000003e4000044
:1015bc0003030000e40300000303000003e4000045
:1015cc000303000003030000e4030000e403000035
:1015dc0003e40000e4030000e40300000303000044
:1015ec000303000003030000e4030000e403000015
:1015fc00e4e40000e4e40000e403000003f5000070
:10160c00030300000303000003030000e4e40000f4
:10161c00e4e40000e4e40000e4030000e403000060
:10162c000303000003f50000e4030000e4e4000001
:10163c00f5e40000e4e4000003e40000e40300002f
:10164c00e403000003e40000e4e40000e4f500001f
:10165c00e4e40000e4e40000f5e40000e4e400004d
:10166c00e403000003e40000e4e40000e4f50000ff
:10167c00e4f50000e4e40000e4e40000e4e400002d
:10168c0003e4000003e40000e4e40000f5f50000ce
:10169c00e4f50000e4f50000e4e40000e4e40000fc
:1016ac0003e40000e4030000e4f50000f5f500009d
:1016bc00f5f50000f5e40000f5e40000e4e40000ba
:1016cc00e4e40000e4e40000e4f50000e4f50000cc
:1016dc00f5ff0000f5f50000f5f50000e4e400006e
:1016ec00e4e40000e4e40000e4f50000f5ff000091
:1016fc00f5ff0000f5ff0000f5f50000f5e4000033
:10170c00e403000003e40000e4e40000f5f500004d
:10171c00ffff0000ffff0000fff50000f5e40000f4
:10172c00e403000003e40000e4e40000f5f500002d
:10173c00ffff0000ffff0000f5f50000e4e40000ef
:10174c000303000003030000e4e40000e4e40000f1
:10175c00f5f50000f5f50000f5e40000e4e4000008
:10176c0003030000030300000303000003e4000074
:10177c00e4e40000e4e40000e4e4000003030000ff
:10178c000303000008080000080300000003000029
:10179c00e4030000e4030000030300000303000063
:1017ac000303000003e40000030300000303000034
:1017bc0003030000e4e40000e40300000303000062
:1017cc00e4e40000e4e40000f5e40000e4e40000dc
:1017dc00e4e40000f5f50000f5e40000e4e40000aa
:1017ec00e4f50000f5ff0000f5f50000e40300004f
:1017fc00e4f50000ffff0000f5e40000e403000046
:10180c00e4e40000f5f50000e4e400000308000047
:10181c00080800000300000003030000030300009d
:10182c00030300000303000003e40000e4030000d2
:10183c00e4e400000303000003030000e4e4000000
:10184c00e4e40000e403000003e40000e4e400002e
:10185c00e4f50000e4e4000003e40000f5e400001b
:10186c00e4e40000e4030000e4e40000e4f500001c
:10187c00f5f50000e4e4000003e40000f5ff0000cf
:10188c00ffff0000f5e4000003e40000e4f50000b5
:10189c00f5f50000e4030000311000000800000022
:1018ac00000000000000000000000000000000002c
:1018bc0000000000000000000525000000250000cd
:1018cc002529000000000000004a0000250000004f
:1018dc0000000000040500004f00000000000000a4
:1018ec000000000025250000050500000000000098
:1018fc000000000025250000250500000000000068
:10190c0000000000002a0000734e000000000000e0
:10191c000000000000000000292a00004a4e0000d0
:10192c006f4f000073250000000000004a73000098
:10193c0073040000006f00007373000000000000cf
:10194c002973000073730000734f00007373000061
:10195c00250000004e730000734f00004f4a00003a
:10196c004a4f0000000000004f730000730000009d
:10197c000000000000000000002500002a2a0000e2
:10198c004f4f00004e7300004e000000004f00004f
:10199c0073730000000000007373000073000000fc
:1019ac00002a00007373000073730000737300004f
:1019bc0073250000004f0000737300004f4f0000b0
:1019cc004e4a00002a0000000073000073730000f0
:1019dc00000000000000000000000000252a0000ac
:1019ec002a250000054f0000734a0000000000008b
:1019fc004f73000073050000007300007373000048
:101a0c00000000004a730000737300004e73000066
:101a1c0073730000250000004f730000734e00002c
:101a2c004e4f00004e4a000000000000737300008f
:101a3c00730000000000000000000000002a0000fd
:101a4c002a2a0000000000004f7300004f00000025
:101a5c00004e00007373000025000000737300003b
:101a6c0073000000004e0000737300004f00000074
:101a7c00256f000073290000004f000073730000f5
:101a8c00000000004a4f00004e00000000730000f0
:101a9c007373000000000000000000000000000054
:101aac002a2a00004a040000004f0000734f000077
:101abc00000000004f73000073050000007300006d
:101acc0073730000000000004e730000734e0000a2
:101adc0000000000054a0000000000006f730000c9
:101aec0073000000006f00004f4f0000000000006a
:101afc007373000073000000000000000000000081
:101b0c00002a00004a4a0000040000004f73000045
:101b1c004e000000004e0000737300002500000012
:101b2c007373000073000000004f0000737300001b
:101b3c002a0000000000000000000000006f000000
:101b4c0073730000050000004f4f000025000000db
:101b5c000073000073730000000000000000000020
:101b6c0000000000294a00004a000000004e00005e
:101b7c006f4a0000000000004e730000736f0000fd
:101b8c004f73000073730000000000004f730000df
:101b9c00737300006f4f00004f4f000025000000d2
:101bac0073730000734e00004e4f00004f00000096
:101bbc0000000000737300007300000000000000c0
:101bcc0000000000002a00004e4e0000250000001e
:101bdc004f4f00002a000000004e000073730000fd
:101bec00737300007373000073000000004f00005b
:101bfc00737300004f6f00004f4f00006f290000ff
:101c0c000073000073730000737300006f4e0000cc
:101c1c00000000000073000073730000000000005f
:101c2c0000000000000000004a4f00004a4f000076
:101c3c004f4f00006f250000000000000000000066
:101c4c004f73000073730000730500000000000068
:101c5c004f73000073730000736f00004e4f000051
:101c6c002500000073730000734f00006f730000b9
:101c7c007329000000000000737300007300000063
:101c8c00004e00004f4a0000002500006f4a000083
:101c9c004a4f00004f4f00002900000000000000d8
:101cac00004e00007373000073250000000000005c
:101cbc00004f0000736f00002a00000000000000bd
:101ccc000000000000730000737300002504000086
:101cdc00737300006f00000000730000737300004a
:101cec00000000007373000073000000256f0000fb
:101cfc002a2500002a6f00004a290000000000007d
:101d0c00000000004a730000734f00000000000048
:101d1c00000000004f730000732500000005000058
:101d2c0025250000000000006f73000073250000e3
:101d3c000473000073730000000000007373000054
:101d4c007300000000730000737300000025000096
:101d5c004f4a0000000500004f4a00004a000000f6
:101d6c0000000000004a0000737300004f000000e8
:101d7c0000000000004e00007373000029000000fa
:101d8c006f730000732a0000006f00007373000073
:101d9c002a250000737300006f0000000073000020
:101dac007373000073730000737300007300000002
:101dbc002a4f00004a000000004f00004f4a00006c
:101dcc0000000000000000004a730000734f000088
:101ddc0000000000000000004e7300007373000050
:101dec0073730000737300002a0000006f7300000f
:101dfc00732a000025730000736f000000000000c0
:101e0c00737300007373000073730000737300002e
:101e1c00004f00004f4a0000000000004e4a000036
:101e2c004e00000000000000004a00007373000028
:101e3c004f00000000000000004e00007373000013
:101e4c007373000073730000734a0000006f00008e
:101e5c00737300002a050000737300004f04000028
:101e6c00004e00004e6f000073730000737300008f
:101e7c004f000000294e000029000000004e000019
:101e8c002a4a00000000000000000000254a000063
:101e9c004a2a000000000000000000004a2a00004e
:101eac002a730000736f00004f73000025000000c0
:101ebc006f73000073250000004e00004f4f0000b0
:101ecc00001d000010080000000000002525000087
:101edc002525000025250000292500000000000014
:101eec002525000025250000052500000500000023
:101efc000000000000000000002500002505000087
:101f0c0005000000006f0000737300004f730000a9
:101f1c004f73000073000000007300007373000027
:101f2c00737300007373000025000000002900008b
:101f3c0073730000737300004f730000732500006f
:101f4c006f730000736f0000736f00002a73000042
:101f5c0000000000737300007373000073730000c3
:101f6c0073290000000000002a7300007373000046
:101f7c007373000073730000256f0000737300000f
:101f8c006f4e00006f4f00007300000000730000e4
:101f9c00734f00004a4a0000737300002a000000cf
:101fac00004a000073730000734e0000737300004e
:101fbc00732500006f73000073250000004a0000b9
:101fcc0073730000000000007373000073000000c6
:101fdc00257300006f4a0000000000004e730000e3
:101fec00734f0000002500006f730000294f0000a4
:101ffc00737300004a0000004f7300007300000070
:10200c00007300007373000000290000737300005c
:10201c004a000000004e0000737300004e000000e8
:10202c00000500004a0000004f730000732a0000f6
:10203c00004f000073730000000000006f7300007d
:10204c007300000029730000734a000000000000b8
:10205c004f730000732a0000000000000000000015
:10206c00006f0000737300002a0000004f73000023
:10207c0073000000006f0000734f00000029000087
:10208c00737300004a000000004f000073730000df
:10209c00736f00004f4f00004f2500004f7300007e
:1020ac00732a0000004f0000737300000000000052
:1020bc006f7300007300000025730000734a00006a
:1020cc00000000004f730000734f00006f4f0000c2
:1020dc004f6f0000294f0000737300002a000000ae
:1020ec004f73000073000000006f0000737300005a
:1020fc0000250000737300004e000000004f00002c
:10210c0073730000737300006f4e00004f250000c6
:10211c004f73000073290000004f00007373000020
:10212c00000000006f7300007300000029730000b2
:10213c00734e0000000000004f7300006f2a000077
:10214c000000000000000000004f0000737300004e
:10215c002a0000004f73000073000000006f0000a5
:10216c007373000000250000737300004e00000024
:10217c00004f0000737300002500000005250000cf
:10218c00250000006f730000732a0000044f00004c
:10219c0073730000000000007373000073000000f4
:1021ac0025730000734e0000000000004e73000009
:1021bc0073290000006f0000737300002a73000085
:1021cc007373000073730000737300006f000000e2
:1021dc00007300007373000000250000737300008f
:1021ec004f000000004e000073730000737300007a
:1021fc0073730000732a00004f73000073730000a8
:10220c0073730000734f0000000000006f73000038
:10221c007300000029730000734f000000000000e1
:10222c004e7300007373000073730000737300002f
:10223c004a4a0000734f00006f6f0000734f00009c
:10224c004a000000004f0000734f00000025000002
:10225c004f4f00004f000000004a00002a2a0000e7
:10226c00737300006f4f00007325000031100000e5
:10227c00080000000000000000000000000000004a
:10228c00000000000000000000000000080c00002e
:10229c00081000001014000004000000001c0000d6
:1022ac000c04000000000000080c00003c080000ba
:1022bc0000000000080400000c0c00000c080000da
:1022cc000400000000040000101000000c0c0000c2
:1022dc000400000000000000001800005d1c00005d
:1022ec0000000000000000000000000014140000ba
:1022fc00181c00005d3c00005d1000000000000098
:10230c001c7e00007e080000005d00007e5d000069
:10231c0008000000145d00005d7e00005d3c0000c4
:10232c007e5d00000c0000001c7e00005d3c000087
:10233c003c1c00001c1c0000000000003c5d000068
:10234c007e000000000000000000000000100000f3
:10235c00181800003c3c00001c5d00001c00000034
:10236c00003c00007e7e0000080800007e7e00001d
:10237c007e040000001800005d5d00007e5d000022
:10238c005d7e00007e100000001c00007e5d0000e1
:10239c003c3c00001c1c000018000000007e0000eb
:1023ac007e7e000000000000000000000000000025
:1023bc0010180000181000000c3c00007e1c0000df
:1023cc00000000001c7e00007e0c0000005d000080
:1023dc007e7e0000000000001c7e00007e7e00005f
:1023ec001c5d00007e7e0000100000003c7e0000a2
:1023fc005d1c00001c3c00001c1c000000000000c8
:10240c007e7e00007e000000000000000000000046
:10241c000018000018180000080000001c5d0000e7
:10242c003c000000001c00007e7e00000c00000040
:10243c007e7e00007e000000001c00007e7e0000fe
:10244c003c000000103c00007e140000003c00002a
:10245c007e5d0000080000001c3c00001c00000019
:10246c00007e00007e7e00000000000000000000e6
:10247c00000000001814000018080000003c0000c8
:10248c005d1c0000000000001c7e00007e080000a7
:10249c00007e00007e7e0000000000001c7e00001c
:1024ac007e1c0000000400000c1800000800000056
:1024bc005d7e00007e040000003c00003c1c00001f
:1024cc00000000007e7e00007e0000000000000086
:1024dc0000000000001800001c180000080000009c
:1024ec003c5d00001c000000001c00007e7e000013
:1024fc000c0000005d7e00005d000000001c000070
:10250c007e7e0000180000000000000000000000ab
:10251c00005d00007e7e00000c0400003c3c0000ce
:10252c0010000000007e00007e7e00000000000015
:10253c000000000000000000141c00001c0800003b
:10254c00001c00005d1c0000000000001c7e000050
:10255c007e5d00003c7e00007e7e000000000000de
:10256c003c7e00007e7e00005d1c00001c3c0000d8
:10257c00100000007e7e00007e1c00001c3c000051
:10258c001c000000000000007e7e00007e000000a9
:10259c000000000000000000001800001c1c0000df
:1025ac000c0800003c3c000018000000001c00005f
:1025bc007e7e00007e7e00007e7e00005d000000be
:1025cc00003c00005d5d00003c5d00001c3c000018
:1025dc005d140000005d00007e5d00005d7e00006b
:1025ec005d1c000000000000007e00007e7e0000ec
:1025fc000000000000000000000000001c1c000097
:10260c001c3c00003c3c00005d140000000000007d
:10261c00040800001c7e00007e7e00007e08000086
:10262c00000000003c7e00005d7e00005d5d00004f
:10263c001c1c0000100000005d7e00007e3c0000b1
:10264c005d5d00007e140000000000007e7e000036
:10265c007e000000001c00003c1c0000001000006c
:10266c005d1c00001c3c00003c3c00001400000001
:10267c0000000000001c00007e7e00007e100000a8
:10268c0000000000003c00005d5d0000180400002c
:10269c000404000008000000005d00007e7e0000c5
:1026ac00100800007e5d00005d000000007e000050
:1026bc007e7e0000000000007e7e00007e00000098
:1026cc000c5d000018100000145d00001c140000cc
:1026dc0000000000000000001c7e00007e3c00009a
:1026ec0000000000000000001c5d00007e100000d7
:1026fc00000c000010140000040000005d7e0000bf
:10270c007e100000087e00007e7e000000000000ad
:10271c007e7e00007e040000047e00007e7e0000b1
:10272c00001000001c1c0000040c00001c1c00000d
:10273c001c00000000000000001c00007e7e000059
:10274c003c00000000000000001c00005d7e00004a
:10275c00140400003c7e00007e140000005d0000ac
:10276c007e7e0000180c00007e7e00005d040000e0
:10277c00007e00007e7e00007e7e00007e7e0000db
:10278c007e000000181c00001c040000081c000047
:10279c003c1c000000000000000000001c7e00003b
:1027ac007e3c000000000000000000001c7e0000c9
:1027bc007e7e00007e5d00007e7e00001800000022
:1027cc005d7e00007e180000107e00007e5d000023
:1027dc00080000007e7e00007e7e00007e7e0000f1
:1027ec007e7e0000003c00003c1c00000008000045
:1027fc001c1c00001c000000000000000018000061
:10280c007e7e00003c00000000000000001c000068
:10281c005d7e00005d7e00005d7e00007e18000085
:10282c00005d00007e7e0000180c00007e7e000023
:10283c003c080000001c00001c5d00007e7e0000b7
:10284c007e7e00003c000000141c00001400000000
:10285c00041c0000181c0000000000000000000018
:10286c000c1c00001c180000000000000000000000
:10287c001c140000147e00005d5d00003c5d000037
:10288c00100000005d7e00005d100000041c0000c4
:10289c003c3c0000081d0000100800000000000077
:1028ac000c100000100c00001010000014100000a0
:1028bc00000000000c0c0000100c00000c0c0000c0
:1028cc000c0000000000000000080000040c0000d8
:1028dc000c0c000008040000005d00007e7e00006f
:1028ec003d7e00003c7e00005e000000007e00008b
:1028fc007e7e00005e5e00007e5e00001000000028
:10290c00001400005d5e00007e5e00003d7e000055
:10291c005e0c00005d7e00007e5d00007e5d0000b0
:10292c00187e0000000000007e7e00007e5e00002d
:10293c007e5e00007e14000000000000185e0000a7
:10294c005e7e00005e5e00007e7e0000105d00007a
:10295c007e7e00003d1c00005d3c00007e000000ff
:10296c00007e00007e3d0000181c00007e5e000012
:10297c0018000000001c00007e7e00007e1c000081
:10298c005d7e00007e1000005d7e00005e14000085
:10299c00001c00007e7e0000000000005e7e000037
:1029ac007e000000105d00005d1c000000000000b7
:1029bc001c7e00007e3c0000001000003d7e0000ec
:1029cc00143d00007e5e00001c0000003c7e0000f8
:1029dc007e040000005e00007e7e000000140000fb
:1029ec005e7e00001c000000001c00007e7e0000cb
:1029fc001c000000040c0000180800003c7e0000c5
:102a0c007e140000003c00007e7e000000000000f0
:102a1c005d7e00007e000000145e00007e1c000045
:102a2c00000000001c7e00007e180000000000006a
:102a3c0000000000003d00007e7e00001800000039
:102a4c003c7e00007e000000005d00007e3d00002a
:102a5c00001400007e7e00001c000000003c000002
:102a6c007e7e00007e5d00001c1c00003c100000ff
:102a7c003d7e00007e180000003c00007e7e0000c1
:102a8c00000000005d7e00007e000000145e00006f
:102a9c005e180000000000003c5d00005e3d000080
:102aac005d1c00003c5d0000143d00007e7e0000bb
:102abc00140000003c7e00007e000000005d000061
:102acc007e5e0000001000007e7e00001c000000f6
:102adc00003d00007e5e00007e5e00005d1c00007c
:102aec001c1000003c7e00007e140000001c000046
:102afc007e7e0000000000005d7e00007e00000075
:102b0c00147e00007e1c0000000000003c5e0000f3
:102b1c005d1800000404000004080000003c0000e4
:102b2c007e7e0000180000003c7e00007e0000004d
:102b3c00005d00007e7e0000001000007e7e000024
:102b4c001c000000001c00005e7e00001000000055
:102b5c000c100000140400005d7e00007e180000c4
:102b6c00083c00007e5e0000000000005d7e00005e
:102b7c005e000000107e00007e1c000000000000c3
:102b8c001c5e00007e140000043d00007e7e0000f0
:102b9c00145e00007e7e00007e7e00007e7e0000c3
:102bac005d000000005d00007e7e0000041000004f
:102bbc007e7e00003c000000001c00007e7e0000b9
:102bcc007e7e00005e7e00007e1800003c7e0000d1
:102bdc007e7e00007e7e00007e3c00000000000037
:102bec005d7e00007e040000147e00007e3c000030
:102bfc00000000001c5d00007e5d00007e5e000099
:102c0c007e7e0000181c00005d3d00003d5d000054
:102c1c005e3c00001c000000003d00005d3d00001b
:102c2c00041000003d3d00003c000000001c0000b2
:102c3c00141400007e5d00005d3d00005d1000007e
:020000040000fa
:102c4c000200fa00000f78001e0278000500200038
:102c5c000400be0062f707000002be0002fd200067
:102c6c00930424000400be00b2f707000002be006b
:102c7c0002002000433324000400be00f0f60700dd
:102c8c000002be000400be000080fa000000060036
:102c9c001000fa00889fbe00008fbe00220798002b
:102cac00330798004407980055079800660798006a
:102cbc00770798002e019000be0190001e00be0008
:102ccc007ff607000002be000404be006e019000f7
:102cdc00fe0190003eb89700ceb8970078f607003a
:102cec000002be000401be000800be0091f7070000
:102cfc000002be000404be002e019000be01900034
:102d0c004e009000de0090006df607000002be0041
:102d1c000401be000800be00c9f607000002be0098
:102d2c006e019000fe0190000400be0065f60700e5
:102d3c000002be000400be0005f707000002be0042
:102d4c0004027800040078004f04be000080fa00f2
:102d5c00000006000200fa00000f780000000000de
:102d6c00010037000000000034388000620262006d
:102d7c00e00f5200fbff3a001e0278000438880076
:102d8c0004602600143888000080fa000000060059
:102d9c000400fa00008fbe000000000001003700a4
:102dac00000000003438800061026200e00f520025
:102dbc00fbff32001e02be0004027800643888005b
:102dcc001e02be0004027800743888001e02be0089
:102ddc0004027800843888001e02be0004027800c9
:102dec00943888000080fa00000006000800fa0001
:102dfc00000f7800110798002207980033079800fd
:102e0c000000000001003700000000003438800092
:102e1c0062026200e00f5200fbff3a009e0290003b
:102e2c000405200004aab900040278001e02420026
:102e3c00043888001e0278006120b8001e02900041
:102e4c00050020000605200006abb900060378003b
:102e5c006021b900820378000703430084027800e4
:102e6c0004052000042ab8000503430086027800fc
:102e7c000002420081824a00402ade00840278006f
:102e8c00043026000502720014388800000000008f
:102e9c00010037000000000034388000620262003c
:102eac00e00f5200fbff3a002e029000cc22dd0016
:102ebc003e02900005027200043888002e02900039
:102ecc00c422de000440260005027200143888007b
:102edc0000000000010037000000000034388000c2
:102eec0062026200e00f5200fbff3a000406200071
:102efc000438880004702600143888000080fa001a
:102f0c00000006000800fa00008fbe00220798009f
:102f1c00330798000000000001003700000000009b
:102f2c003438800062026200e00f5200fbff3a006e
:102f3c002e029000be029000040278000438880033
:102f4c00042026001438880000000000010037001f
:102f5c00000000003438800062026200e00f520072
:102f6c00fbff3a001e02be00040278000438880001
:102f7c0004302600143888000000000001003700df
:102f8c00000000003438800062026200e00f520042
:102f9c00fbff3a00041e2f00043888000440260072
:102fac001438880000000000010037000000000009
:102fbc003438800062026200e00f5200fbff3a00de
:102fcc00040e200004388800047026001438880091
:102fdc000080fa00000006002e00fa00881f78001e
:102fec00700f98000117980012179800231798007b
:102ffc0034179800451798005617980067179800d3
:10300c007e0990008e1190003e109000ce10900022
:10301c00abf507000002be0005f0a10014079800f4
:10302c00250798001e119000ae1190005e109000c4
:10303c00ee109000a2f507000002be0005f0a10002
:10304c00340798004507980018c0b3003e01900063
:10305c00ce0190001e009000ae0090003af60700e2
:10306c0000027800e00f520001003c000044eb002d
:10307c00e04f5400030032001e029000ae0290009c
:10308c00020037003e029000ce02900054079800d8
:10309c00650798007e0990008e1190003e109000fc
:1030ac00ce10900086f507000002be005e01900075
:1030bc00ee0190000400be00e1f507000002be0026
:1030cc0074079800050f98001e119000ae11900027
:1030dc005e109000ee10900079f507000002be0023
:1030ec005e019000ee0190000400be00d4f50700d4
:1030fc000002be00140f9800250f98000002eb0090
:10310c00040f7800390037007e0190008e09900082
:10311c007e0890008e1090006af507000002be0039
:10312c00740f9800051798007e0890008e10900080
:10313c0007f607000002be0004027800cfa2de00f2
:10314c00340f9800450f98001e099000ae099000ae
:10315c001e109000ae1090005af507000002be0041
:10316c0014179800251798001e109000ae109000b0
:10317c00f7f507000002be0004027800cfa2de00c3
:10318c00540f9800650f98003e0b9000ce0b9000ea
:10319c00f404200005002000840f5300858f5b0091
:1031ac0011003e005e0b9000ee0b9000f41d200011
:1031bc0005002000840f5300858f5b000a003e0041
:1031cc0030002000e3fe07005e0a9000ee0a90003b
:1031dc0066024200e0824a000401be003e089000f4
:1031ec00ce089000010307001e0fe8005e0090005f
:1031fc00ee009000d6f507000002be000402780035
:10320c009e0f5200c0ff3e004f0478000080fa0071
:10321c00000006001000fa00008fbe002207980084
:10322c0033079800440798005507980066079800e4
:10323c00770798000080fa00000006000000fa00f2
:10324c00000000000100370000000000343880004e
:10325c0062026200e00f5200fbff3a000000eb003c
:10326c00bcfe0700031e2000f20420008000eb00cf
:10327c000000eb00ddfe07000080fa0000000600f5
:10328c000000fa000000eb00b2fe0700031e200055
:10329c00120020008000eb00f0042000d3fe070099
:1032ac000080fa00000006000200fa00000f78000f
:1032bc001e007800a7fe0700031e2000120020004d
:1032cc008000eb000000eb00c8fe0700031e20008e
:1032dc00120020008000eb00e0042000c3fe070079
:1032ec0084cf2000144278000482fb008401780013
:1032fc00e20420008000eb000000eb00bbfe0700a6
:10330c0084cf2000144278008482fb0084cf2000fc
:10331c00144278000482fb00061e200004025300b5
:10332c0085017800e2042000840078000000eb00a6
:10333c00aefe07000080fa00000006000000fa0054
:10334c000000eb0083fe07007463800084017800aa
:10335c00f20420008000eb000000eb00a3fe07004d
:10336c007563800074638000061e20000402530005
:10337c0085017800f2042000840078000000eb0046
:10338c009afe07007563800034062000848f52007b
:10339c0003003e00746380000482e80074638800bc
:1033ac000080fa00000006007200fa00889fbe0040
:1033bc00303798004137980052379800633798009f
:1033cc0074379800053f980092ff20009304240066
:1033dc003e309000ce309000d6f507000002be00c3
:1033ec0002002000433324000400be0014f5070043
:1033fc000002be00140798002507980092ff2000d9
:10340c00930424005e309000ee309000c9f5070064
:10341c000002be0002002000433324000400be0062
:10342c0007f507000002be00340798004507980016
:10343c0092ff2000930424007e3090008e38900080
:10344c00bcf507000002be0002002000433324003c
:10345c000400be00faf407000002be0054079800f6
:10346c00650798001e009000ae0090004ef6070015
:10347c000002be0074079800050f98003e009000f3
:10348c00ce00900048f607000002be00140f980012
:10349c00250f98005e009000ee00900042f60700a9
:1034ac000002be00340f9800450f98001e009000db
:1034bc00ae009000e0f407000002be00540f98002c
:1034cc00650f98003e009000ce009000daf40700e3
:1034dc000002be00740f9800051798005e00900063
:1034ec00ee009000d4f407000002be001417980000
:1034fc00251798001e119000ae1190005e089000e8
:10350c00ee0890008bf507000002be000404be001c
:10351c001e099000ae0990007e0090008e0890006d
:10352c0084f507000002be003e099000ce09900011
:10353c000400be007ff507000002be000401be00bf
:10354c000800be005ff407000002be0034179800ac
:10355c00451798005e0a9000ee0a900005f0a20054
:10356c003e099000ce0990000400be0071f50700e2
:10357c000002be000404be007e0190008e09900083
:10358c001e109000ae1090006af507000002be00fd
:10359c001e099000ae0990000400be0065f50700fe
:1035ac000002be000401be000800be0045f4070086
:1035bc000002be00341f9800451f98007e01900049
:1035cc008e0990007e0890008e10900059f507002f
:1035dc000002be0034279800452798003e09900051
:1035ec00ce0990007e0890008e10900051f50700d7
:1035fc000002be0054179800651798001e11900029
:10360c00ae1190007e0890008e10900049f50700d6
:10361c000002be00541f9800651f98001e0a9000ff
:10362c00ae0a900005f0a200542798006527980078
:10363c001e129000ae12900005f0a2007e019000c8
:10364c008e0990000400be003af507000002be008f
:10365c000404be001e099000ae0990005e089000a4
:10366c00ee08900033f507000002be003e09900002
:10367c00ce0990000400be002ef507000002be002b
:10368c000401be000800be000ef407000002be00dc
:10369c0074179800051f98003e099000ce09900001
:1036ac007e0090008e08900022f507000002be00fc
:1036bc000404be001e119000ae1190005e08900034
:1036cc00ee0890001bf507000002be001e099000da
:1036dc00ae0990000400be0016f507000002be0003
:1036ec000401be000800be00f6f307000002be0095
:1036fc00741f9800052798007e0990008e11900089
:10370c005e089000ee0890000af507000002be006b
:10371c0074279800052f98000002eb00040f780026
:10372c001a0137001e0278006123b900423add000d
:10373c00ce32de00850272004232dd00e6b6200099
:10374c00060242001403be003e129000ce129000fe
:10375c000401be000600be00f6f407000002be0025
:10376c000404be001e0278006123b900423add0059
:10377c00ce32de00850272004232dd00e6b8200057
:10378c00060242001403be003e1a9000ce1a9000ae
:10379c000401be000600be00e6f407000002be00f5
:1037ac000401be000800be00c6f307000002be0004
:1037bc000404be001e0278006123b900423add0009
:1037cc00ce32de00850272004232dd00e6ba200005
:1037dc00060242001403be003e229000ce2290004e
:1037ec000401be000600be00d2f407000002be00b9
:1037fc000401be000800be00b2f307000002be00c8
:10380c001e0378006130b900420bdd00ce03de00f0
:10381c00870373004203dd00e0bc2000000343007b
:10382c00048bbe001e0278006123b900423add0011
:10383c00ce32de00850272004232dd00e6b6200098
:10384c00060242001403be005e129000ee129000bd
:10385c000401be000600be00b6f407000002be0064
:10386c000404be001e0278006123b900423add0058
:10387c00ce32de00850272004232dd00e6b8200056
:10388c00060242001403be005e1a9000ee1a90006d
:10389c000401be000600be00a6f407000002be0034
:1038ac000401be000800be0086f307000002be0043
:1038bc000404be001e0278006123b900423add0008
:1038cc00ce32de00850272004232dd00e6ba200004
:1038dc00060242001403be005e229000ee2290000d
:1038ec000401be000600be0092f407000002be00f8
:1038fc000401be000800be0072f307000002be0007
:10390c001e0378006130b900420bdd00ce03de00ef
:10391c00870373004203dd00e0be20000003430078
:10392c00048bbe001e0278006123b900423add0010
:10393c00ce32de00850272004232dd00e6b6200097
:10394c00060242001403be007e1290008e1a9000f4
:10395c000401be000600be0076f407000002be00a3
:10396c000404be001e0278006123b900423add0057
:10397c00ce32de00850272004232dd00e6b8200055
:10398c00060242001403be007e1a90008e229000a4
:10399c000401be000600be0066f407000002be0073
:1039ac000401be000800be0046f307000002be0082
:1039bc000404be001e0278006123b900423add0007
:1039cc00ce32de00850272004232dd00e6ba200003
:1039dc00060242001403be007e2290008e2a900044
:1039ec000401be000600be0052f407000002be0037
:1039fc000401be000800be0032f307000002be0046
:103a0c0002002000832c24000400be002df30700cc
:103a1c000002be001e0378006130b900420bdd00cd
:103a2c00ce03de00870373004203dd00e0c02000fc
:103a3c0000034300048bbe001e0278006123b90012
:103a4c00423add00ce32de00850272004232dd00e9
:103a5c00e6bc2000060242001402be000200200058
:103a6c00031224000400be0032f407000002be0062
:103a7c000403be001e0278006120b900420add007a
:103a8c00ce02de00850272004202dd00e0c02000a2
:103a9c00000242001402be000401be000600be007b
:103aac0067f307000002be0002002000032224007e
:103abc000400be0003f307000002be001e037800e2
:103acc006130b900420bdd00ce03de0087037300ca
:103adc004203dd00e0c2200000034300048bbe0063
:103aec001e0278006123b900423add00ce32de00be
:103afc00850272004232dd00e6be20000602420062
:103b0c001402be0002002000032724000400be00a3
:103b1c0008f407000002be000403be001e02780079
:103b2c006120b900420add00ce02de00850272007f
:103b3c004202dd00e0c02000000242001402be0080
:103b4c000401be000600be003df307000002be00eb
:103b5c0002002000033724000400be00d9f2070045
:103b6c000002be001e0378006130b900420bdd007c
:103b7c00ce03de00870373004203dd00e0c42000a7
:103b8c0000034300048bbe001e0fe8001e027800e9
:103b9c00e70f5200e3fe34000002eb00040f780044
:103bac008c0037001e007800640240006123b900cd
:103bbc00423add00ce32de00850272004232dd0078
:103bcc00e6c42000060242001403be009e007800ea
:103bdc00648240006120b900420add00ce02de00a2
:103bec00850272004202dd00e0c2200000024200a9
:103bfc001402be001e0078006101b9004218dd00fd
:103c0c00ce10de00810070004210dd00e2c4200006
:103c1c00020040001000be001e0178006114b900c3
:103c2c004249dd00ce41de00830171004241dd00de
:103c3c00e8c22000080141001204be000001be00d1
:103c4c000800be00e4fc07009e02e80044002000cf
:103c5c00110009008402d800010278006123b90028
:103c6c00423add00ce32de00850272004232dd00c7
:103c7c00e6c42000060242001403be009e02e800c7
:103c8c0044002000110009008402d80001027800d1
:103c9c006120b900420add00ce02de00850272000e
:103cac004202dd00e0c22000000242001402be000d
:103cbc001e0078006101b9004218dd00ce10de0054
:103ccc00810070004210dd00e2c4200002004000c0
:103cdc001000be001e0178006114b9004249dd00dd
:103cec00ce41de00830171004241dd00e8c22000bc
:103cfc00080141001204be000001be000800be0015
:103d0c00b5fc07009e02e8004400200011000900e9
:103d1c008402d80001027800640242006123b900d9
:103d2c00423add00ce32de00850272004232dd0006
:103d3c00e6c42000060242001403be009e02e80006
:103d4c0044002000110009008402d8000102780010
:103d5c00640242006120b900420add00ce02de009e
:103d6c00850272004202dd00e0c220000002420027
:103d7c001402be009e017800648041006101b9000c
:103d8c004218dd00ce10de00810070004210dd0014
:103d9c00e2c42000020040001000be009e0178002a
:103dac00648141006114b9004249dd00ce41de005e
:103dbc00830171004241dd00e8c22000080141008e
:103dcc001204be000001be000800be0082fc070009
:103ddc001e0fe8001e027800e30f520071ff340042
:103dec004f04be000080fa00000006000800fa0034
:103dfc00008fbe002207980033079800be02900087
:103e0c000405200004aab900040378002e029000d7
:103e1c006022b9000402780004034300ae02900053
:103e2c0004052000042ab80005034300860278002c
:103e3c001e0f42005e974a00000000000100370090
:103e4c00000000003438800062026200e00f520073
:103e5c00fbff3a001e027800043888001e02be00e8
:103e6c00402ade008402780004302600050272002d
:103e7c00143888000000000001003700000000002a
:103e8c003438800062026200e00f5200fbff3a00ff
:103e9c00640021000438880004402600143888008f
:103eac0000000000010037000000000034388000e2
:103ebc0062026200e00f5200fbff3a000406200091
:103ecc0004388800047026001438880000000000b4
:103edc000080fa00000006001000fa00500798005d
:103eec0061079800624f9800734f9800de029000b3
:103efc00e4042000848f520054013e00ee02900036
:103f0c00e41d2000848f520052013e005e0290009e
:103f1c00e00f5200510132006e029000e00f52008f
:103f2c00500132000002eb001407980032013700f8
:103f3c000002eb00040f7800190137006e4a900064
:103f4c000482fb00cfa2de006a2bb90006037800c6
:103f5c006020b900800378000703430084027800d6
:103f6c00a4002000042ab800050343008602780050
:103f7c0066024200e0824a0006c7200006024200a8
:103f8c001400be006e4a90000482fb00cfa2de003b
:103f9c006a2bb900060378006021b900820378000f
:103fac000703430084027800a4002000042ab80010
:103fbc00050343008602780006c720000602420073
:103fcc00144278008482fb001e02900004aab900ff
:103fdc00040278001e02420005002000040240008a
:103fec00858248009601800004f0a4008582d200ee
:103ffc009501880014427800444798009601880087
:10400c006e4a90000482fb00cfa2de006a2bb9003e
:10401c00060378006020b900800378000703430092
:10402c0084027800a4002000042ab8000503430091
:10403c008602780062024200e0824a0006c7200035
:10404c0006024200944290004e42900084cf5200ef
:10405c00bf0032004e4290000482fb000400780046
:10406c003cfb07007e4a90000482fb00cfa2de00de
:10407c003600200007002000860f5200878f5a0060
:10408c00b5003e0004600100030037002600370035
:10409c0064003700b20037005e0290001e0242003e
:1040ac00340798001e029000c222dd006e029000c0
:1040bc00848242001e0290000402420004824200ec
:1040cc0044079800be029000d4042000848f520054
:1040dc00a5003e004e0290006123b80084cf200062
:1040ec00144278000482fb0005002000001e200012
:1040fc00010020000402500085825800840f5300f8
:10410c00858f5b00d90031004e0290000500200025
:10411c003e039000070020000401be000600be0014
:10412c0032ff07009d0037006e4a90000482fb00ae
:10413c00cfa2de006a2bb900060378006020b9001c
:10414c00800378000703430084027800a400200059
:10415c00042ab800050343008602780006c7200035
:10416c0006024200144278008482fb001e0290007a
:10417c00848252005e029000048242000402e90034
:10418c003407980084cf2000144278008482fb000e
:10419c001e02780004aab900840278006e02900016
:1041ac000482420044079800be029000e404200000
:1041bc00848f52006e003e003e029000e00f5200d1
:1041cc006d0032004e0290006123b80084cf2000b5
:1041dc00144278000482fb0005002000001e200021
:1041ec00010020000402500085825800840f530007
:1041fc00858f5b00620031004e029000e00f520090
:10420c00610032004e029000050020003e03900039
:10421c00070020000401be000600be00f3fe0700ec
:10422c005e0037006e4a90000482fb00cfa2de00d5
:10423c006a2bb900060378006020b900800378006f
:10424c000703430084027800a4002000042ab8006d
:10425c00050343008602780006c7200006024200d0
:10426c00144278000482fb009e0252005e02900011
:10427c00048242000402e9003407980084cf200035
:10428c00144278000481fb006e4a90000482fb000b
:10429c00cfa2de006a2bb900060378006020b900bb
:1042ac00800378000703430084027800a4002000f8
:1042bc00042ab800050343008602780006c72000d4
:1042cc0006024200144290008482fb001e02900001
:1042dc00048252000402e9000492b90084027800be
:1042ec006e0290000482420044079800be029000c7
:1042fc00e4042000848f520025003e004e02900002
:10430c006123b80084cf2000144278000482fb00a3
:10431c0005002000001e20000100200004025000b7
:10432c0085825800840f5300858f5b001a00310082
:10433c004e029000050020003e0390000700200074
:10434c000401be000600be00a8fe070013003700e3
:10435c000000000011003700000000000f003700c3
:10436c00000000000d003700000000000b003700bb
:10437c0000000000090037000000000007003700b3
:10438c0000000000050037000000000003003700ab
:10439c000000000001003700000000001e0fe800c4
:1043ac006e4a90000482fb00cfa2de006a2bb9009b
:1043bc00060378006020b9008003780007034300ef
:1043cc0084027800a4002000042ab80005034300ee
:1043dc008602780006c720000602420014427800cc
:1043ec000482fb009e0f5200d4fe3e001e02900081
:1043fc000402e800140798006e4a90000482fb0047
:10440c00cfa2de006a2bb900060378006020b90049
:10441c00800378000703430084027800a400200086
:10442c00042ab800050343008602780006c7200062
:10443c0006024200144290008482fb001e0290008f
:10444c00848f5200bafe3e000900370000000000c5
:10445c0007003700000000000500370000000000d6
:10446c0003003700000000000100370000000000ce
:10447c000080fa00000006000800fa0020079800ef
:10448c0031079800ae029000f4042000848f520093
:10449c0002003600f40420002407980084cf20008a
:1044ac00144278008482fb002e02900004aab9000a
:1044bc0084027800f41d2000848f52000200360024
:1044cc00f41d2000240798002e0290000402d10055
:1044dc008502200004825200040f780084cf200053
:1044ec00144278008482fb002e02900004aab900ca
:1044fc00040278000402d100050f2000048252004f
:10450c00140798009e027800e4042000848f520067
:10451c001a003e009e029000e41d2000848f520081
:10452c0018003e001e027800e00f52001700340005
:10453c001e029000e00f5200160034003e00900066
:10454c0004fa070084cf2000144278008482fb0018
:10455c002e02900004aab900040378009e02900079
:10456c001e027800860178002e01900085007800ec
:10457c00040078001dfa0700070037000000000057
:10458c0005003700000000000300370000000000a9
:10459c0001003700000000000080fa000000060057
:1045ac001000fa007007980000c2eb0064479800f6
:1045bc0000c2eb0074479800840220002407980086
:1045cc0084cf2000144278008482fb002403200056
:1045dc0004aab90004027800040f78003b003700ed
:1045ec007e0290000442780004424200844278002b
:1045fc002e029000044278000414a20084c05200e1
:10460c006c004700eb0347006a034700fe42900032
:10461c006e4290008141780000017800870078009c
:10462c0006007800320807004e4b9000be4a9000fe
:10463c002e4a9000064178008540780004407800ae
:10464c00f5070700004278000482fb00440798003d
:10465c004e009000bff907002e0290000482e90082
:10466c00240798002e029000e00f520002003d003b
:10467c000002eb00240798000002eb0014079800de
:10468c000a0037001e027800cfa2de001e03900045
:10469c00cfb3de000401be000600be00d3fd070050
:1046ac001e0290000402e800140798009e0290007d
:1046bc00e4042000848f5200f2ff360084cf2000e7
:1046cc00144278000482fb001e0f42001e02780088
:1046dc006123b90084cf2000144278000482fb00cf
:1046ec0005002000001e20000100200004025000e4
:1046fc0085825800840f5300858f5b00b8ff39000a
:10470c000080fa00000006000e00fa006007980016
:10471c0000c2eb004447980000c2eb0054479800dd
:10472c0084cf2000144278008482fb00c403200054
:10473c0004aab90004027800040f78003200370094
:10474c001e02780004427800044242008442780041
:10475c006e0290000442780084c042006a00470058
:10476c00e903470068034700de4290004e42900088
:10477c0081417800000178008700780006007800fd
:10478c00db0707002e4b90009e4a90000e4a9000cb
:10479c000641780085407800044078009e070700a9
:1047ac00004278000482fb00340798003e00900021
:1047bc0068f907000002eb00140798000a003700a4
:1047cc001e027800cfa2de001e039000cfb3de00e5
:1047dc000401be000600be0084fd07001e0290000e
:1047ec000402e800140798009e029000e4042000e4
:1047fc00848f5200f2ff360084cf200014427800e0
:10480c000482fb001e0f42001e0278006123b900d7
:10481c0084cf2000144278000482fb0005002000a5
:10482c00001e200001002000040250008582580068
:10483c00840f5300858f5b00c1ff39000080fa00a4
:10484c00000006000000fa00000000000100370024
:10485c00000000003438800061026200e00f52005a
:10486c00fbff320014002000546788000000000099
:10487c00010037000000000054678000e00f520078
:10488c00fcff3a000080fa00000006000000fa006d
:10489c0000c025000100200034678000cfa2de009c
:1048ac000660290006abb900060378006021b90048
:1048bc008203780007034300840278000460290017
:1048cc00042ab8000503430086027800848fd200c6
:1048dc008582d2000402780004f0a1000003d0000d
:1048ec008403d000070243004220a80085824800c0
:1048fc004200a9004220ae004200a8000482d3006e
:10490c000400be0022f907003467800004f0a70001
:10491c000402ea000402e9004f22de00346788003a
:10492c0046fa07000080fa00000006003400fa0086
:10493c00889fbe008a9fbe008b0407000002eb001c
:10494c00040f78000002eb001407980014002000fc
:10495c00240798001400200034079800140020004d
:10496c005407980084cf2000144278000482fb0086
:10497c00640798005e00900070079800ee009000ad
:10498c00010f98000002eb00140f98000002eb00de
:10499c00240f9800f50420005e029000048252005f
:1049ac00340f9800c51220006e0290000482520051
:1049bc00440f980014c0b300044f98000002eb00a1
:1049cc00540f98000ac025000b0020000a00be00fe
:1049dc00eff8070019fa070008c0250009002000ad
:1049ec0004602100150020000803d0008403d000cf
:1049fc00070243004220a80085824c004200a90017
:104a0c004220ae004200a8000482d3000400be0085
:104a1c00dff8070009fa07009cff070075cf20009c
:104a2c009542780064cf20001442780046678000dd
:104a3c00064378008641780042ce200031ce20001b
:104a4c0020ce20002a07070046ce2000164378000f
:104a5c0035ce20009542780024ce200014427800f8
:104a6c00064178008540780004407800ea0607008b
:104a7c00004278000482fb00540f98001e0078005e
:104a8c00600f98009e009000710f9800ae0290008d
:104a9c007e02900004aab900040278001e0f4200a6
:104aac00be0290000e0a900004aab900040278001d
:104abc009e02900004824200140798003e0a900067
:104acc009e027800848f5200050034003e0a90004c
:104adc00040f78002e0290000402ea0024079800cc
:104aec009e0290004e0a9000848f52000500340004
:104afc004e0b9000160798003e0290000402ea004c
:104b0c00340798001e0a90009e027800848f520091
:104b1c0005003c009e0b9000070f78002e029000c1
:104b2c000402ea00240798009e0290002e0a9000ce
:104b3c00848f520005003c002e089000100798004e
:104b4c003e0290000402ea0034079800446780009b
:104b5c000400780092fe07000000eb007df80700cf
:104b6c00ee0390005e039000fe0a90006e0a900027
:104b7c008701780006017800850078000400780031
:104b8c009af807005e08900072f80700ee03900098
:104b9c005e0390009e0290001e0278008701780050
:104bac000601780085007800040078008ff8070073
:104bbc000e4a90000482fb000402e9004f22de0042
:104bcc000443780014c72000144278008482fb0050
:104bdc0084cf2000144278000482fb0004aab900a0
:104bec008402780024002000110009008402d800ff
:104bfc0000027800851620008482520004c7200031
:104c0c00144278000482fb000402d10004427800b4
:104c1c000482fb0087032000048253008041eb00d8
:104c2c00064178008500780004007800aafc070093
:104c3c004467800063026200e00f520005003a00f6
:104c4c000e4a90000482fb000402e9004f22de00b1
:104c5c00044f98000000eb003ef80700031e2000f4
:104c6c00120020008000eb00f00420005ff8070029
:104c7c00f4fe0700446780000402e80044678800e3
:104c8c0065ff37000000fa000002eb0014278800d3
:104c9c000002eb00242788000002eb003427880078
:104cac000002eb00542788000002eb006427880008
:104cbc000002eb00441688000a87a9000a67a900c5
:104ccc000867a8000887a800a080a800380807007b
:104cdc00ee080700cf09070058f9070013ff07007b
:104cec000002eb00040078000080fa0000000600cf
:020000040000fa
:104cfc00e20c00000800000080000000f60c000030
:104d0c000200000082000000ffff0000f80c000011
:104d1c00020000008200000006000000005c0000a1
:104d2c00002c0000800000000008000000020000c1
:104d3c0080000000700c0000520000008000000099
:104d4c00000a00006a01000080000000c20c000094
:104d5c0020000000820000006a000000006a0000d1
:104d6c0000005900005e000077006a00000000009f
:104d7c0047000000004b000000004f000000000046
:104d8c0077000000f20c000004000000800000001e
:104d9c006a0b00000601000080000000fa0c000005
:104dac000200000082000000cb010000ac520000a9
:104dbc00540900008200000000002000007e00006a
:104dcc001500040084010000029901000005ae00ea
:104ddc0001000500c301000005d801000005ed002d
:104dec0001000500020200000217020000052c0061
:104dfc0002000500410200000556020000056b0090
:104e0c000200020080020000059502000002aa00c8
:104e1c0002000500bf02000005d402000002e900f8
:104e2c0002000500fe020000051303000005280027
:104e3c00030005003d030000055203000005670058
:104e4c00030005007c030000059103000002a6008e
:104e5c0003000200bb03000005d003000005e500c1
:104e6c0003000500fa030000050f040000052400f0
:104e7c000400040039040000044e04000004630024
:104e8c000400040078040000048d04000004a20057
:104e9c0004000400b704000004cc04000002e1008c
:104eac0004000400f6040000040b050000042000bc
:104ebc000500060035050000044a050000045f00eb
:104ecc0005000400740500000489050000049e0020
:104edc0005000400b305000004c805000004dd0053
:104eec0005000400f20500000607060000041c0083
:104efc0006000400310600000446060000055b00b5
:104f0c0006000500700600000585060000059a00e5
:104f1c0006000500af06000003c406000004d9001b
:104f2c0006000400ee06000004030700000418004d
:104f3c00070004002d07000004420700000457007e
:104f4c00070004006d0700000282070000049700b0
:104f5c0007000400ad07000002c207000006d700de
:104f6c0007000400ec070000040108000004160010
:104f7c00080004002c08000004420800000457003c
:104f8c00080003006c08000004810800000496006f
:104f9c0008000600ab08000004c008000004d5009f
:104fac0008000400eb0800000500090000021500d1
:104fbc00090005002a090000063f09000000000056
:104fcc0000000000000000000000000000000000d5
:104fdc0000000000000000000000000000010100c3
:104fec0001010100010101000101010001000100aa
:104ffc0000000000000000000000000000000500a0
:10500c00050000000000000000000000000000008f
:10501c000000000000000000000000000505070073
:10502c000505050007050500000000000000000054
:10503c000000000000000200070501000707040043
:10504c000505070002000000000000000000000041
:10505c00000000000504040002020200010105002a
:10506c000000000000000000000000000000000034
:10507c0002050200050505000505070004000000f7
:10508c000000000000000000000001000100000012
:10509c000000000000000000000000000000000004
:1050ac0000000000040202000101010001010100e6
:1050bc0001010200020400000000000000000000da
:1050cc0001020200040404000404040004040200ad
:1050dc0002010000000000000000000000020700b8
:1050ec0002000000000000000000000000000000b2
:1050fc0000000000000000000000000000000200a2
:10510c000707020000000000000000000000000083
:10511c000000000000000000000000000000000083
:10512c000000010001000000000000000000000071
:10513c000000000000000000070700000000000055
:10514c000000000000000000000000000000000053
:10515c000000000000000000000001000000000042
:10516c000000000000000000000404000404020021
:10517c000202020002010100010100000000000017
:10518c0000070700050505000505050005050500d8
:10519c0005050700000000000000000000010100f0
:1051ac0001010100010101000101010001010100e7
:1051bc0000000000000000000007070004040700c6
:1051cc0001010100010101000101070000000000c4
:1051dc00000000000007070004040700040404009a
:1051ec000404040004040700000000000000000098
:1051fc000005050005050700040404000404040070
:10520c000404040000000000000000000007070078
:10521c000101070004040400040404000404070052
:10522c00000000000000000000070700010107005b
:10523c000505050005050500050507000000000033
:10524c00000000000007070004040400040404002c
:10525c00040404000404040000000000000000002a
:10526c0000070700050507000505050005050500f5
:10527c000505070000000000000000000007070003
:10528c0005050700040404000404040004040700da
:10529c000000000000000000000000000000000002
:1052ac0001000000000000000000010000000000f0
:1052bc0000000000000000000000000001000000e1
:1052cc0000000000000001000100000000000000d0
:1052dc0000000000000000000004020001030200b6
:1052ec0004000000000000000000000000000000ae
:1052fc00000000000000070000070700000000008d
:10530c000000000000000000000000000000000091
:10531c000001020004060200010000000000000071
:10532c00000000000007070005040600020202004e
:10533c000202020002000200000000000000000057
:10534c000007070005070500050505000505050014
:10535c000701070000000000000000000007070024
:10536c0005050700050505000505050005050500f3
:10537c000000000000000000000707000505030006
:10538c0005050500050505000505070000000000e2
:10539c0000000000000707000501010001010100e9
:1053ac0001010100010507000000000000000000e1
:1053bc0000030300050505000505050005050500ae
:1053cc0005050300000000000000000000070700b6
:1053dc0005010700010101000101010001050700a1
:1053ec00000000000000000000070700010107009a
:1053fc000101010001010100010101000000000098
:10540c000000000000070700050101000101010078
:10541c000505050005050700000000000000000060
:10542c000005050005050700050505000505050037
:10543c00050505000000000000000000000101004f
:10544c000101010001010100010101000101010044
:10545c00000000000000000000040400040404002c
:10546c000404040004040400050507000000000007
:10547c0000000000000505000505030005050500fa
:10548c0005050500050505000000000000000000f2
:10549c0000010100010101000101010001010100f5
:1054ac00010107000000000000000000001f1f00a9
:1054bc0015151500151515001515150015151500e4
:1054cc0000000000000000000007070005050500b3
:1054dc000505050005050500050505000000000093
:1054ec000000000000070700050505000505050084
:1054fc000505050005050700000000000000000080
:10550c000007070005050500050505000507070050
:10551c00010101000000000000000000000707006e
:10552c000505050005050500050505000505070031
:10553c000202000000000000000707000505030040
:10554c000505050005050500050505000000000022
:10555c000000000000070700050107000405050016
:10556c00050505000505070000000000000000000f
:10557c0000070700020202000202020002020200ff
:10558c0002020200000000000000000000050500ff
:10559c0005050500050505000505050005050700c1
:1055ac0000000000000000000005050005050500d6
:1055bc0005050500050505000505020000000000b5
:1055cc000000000000151500151515001515150027
:1055dc001515150015151a0000000000000000003c
:1055ec00000505000505020005050500050505007b
:1055fc000505050000000000000000000005050086
:10560c000505020002020200020202000202020070
:10561c000000000000000000000707000404040064
:10562c000202020002030100010107000000000059
:10563c000000000000000000070101000101010052
:10564c000101010001010100010700000000000040
:10565c000001010001010100020202000206040027
:10566c000404040000000000000000000000000022
:10567c0007040400040404000404040004040400eb
:10568c0004070000000000000000000000020500fc
:10569c0000000000000000000000000000000000fe
:1056ac0000000000000000000000000000000000ee
:1056bc0000000000000000000007000000000000d7
:1056cc0000000000000001000200000000000000cb
:1056dc0000000000000000000000000000000000be
:1056ec00000000000705040007070500050507007a
:1056fc000000000000000000000101000101010099
:10570c00070505000505050005050700000000005c
:10571c000000000000000000000000000701010074
:10572c000101010001010700000000000000000061
:10573c000004040004040400070505000505050029
:10574c00050507000000000000000000000000003c
:10575c00000000000701010007070100010107001c
:10576c00000000000000000000000000000000002d
:10577c000701010007070100010101000000000002
:10578c0000000000000000000000000007050500fc
:10579c0005050500050507000404040007070000c3
:1057ac0000000100010101000107050005050500cd
:1057bc0005050500050000000000000000000000c9
:1057cc0000000100000101000101010001010100c4
:1057dc0001000000000000000000000000000400b8
:1057ec000004040004040400040404000404040081
:1057fc000407070000000000010101000101050081
:10580c000505030007050500050500000000000064
:10581c000000000001010100010101000101010073
:10582c000101010001010000000000000000000067
:10583c000000000000001f001515150015151500bf
:10584c001515000000000000000000000000000022
:10585c00000007000505050005050500050500000d
:10586c000000000000000000000000000000070025
:10587c0005050500050505000507000000000000f2
:10588c0000000000000000000000070005050500f6
:10589c0005050500050701000101010001000000dc
:1058ac0000000000000000000705050005050500cc
:1058bc0005050700040404000404000000000000b7
:1058cc0000000000000705000101010001010100ba
:1058dc0001000000000000000000000000000000bb
:1058ec00000705000107070004050500070000007c
:1058fc000000000000000100010101000103010093
:10590c000101010001010100030000000000000082
:10591c000000000000000000000505000505050062
:10592c000505050007000000000000000000000055
:10593c000000000000050500050505000505050033
:10594c000200000000000000000000000000000049
:10595c000015150015151500151515001a00000079
:10596c000000000000000000000000000005050021
:10597c0005020700050505000500000000000000f9
:10598c0000000000000000000005050005050500f2
:10599c0005050500070404000407070000000000cb
:1059ac0000000000000007000404020002020100d5
:1059bc0001070000000000000000000000000400cf
:1059cc0002020200020201000302020002020200b3
:1059dc0004000000000000000101010001010100b1
:1059ec0001010100010101000101010001010000a0
:1059fc00000000000000010002020200020204008c
:105a0c000602020002020200010000000000000079
:105a1c000000000000000000001a05000500000056
:105a2c000000000000000000ea0c0000080000006c
:105a3c0080000000fc0c000002000000820000004e
:105a4c0001000000fe0c00000200000080000000bd
:105a5c00040d00000200000080000000000d00009a
:0c5a6c00040000008000000000000000aa
:020000040000fa
:105a78000c00fa00008fbe00220798003307980038
:105a880044079800550798001e02be0004027800db
:105a9800643888001e02be0004027800743888004a
