:020000040000fa
:080000000002040000000000f2
:020000040000fa
:100008006203000062030000620300006203000054
:100018006203000062030000620300006203000044
:10002800620300006203000062030000b45d000088
:10003800620300006203000062030000ec5d000040
:10004800620300006203000062030000d2020000a5
:100058000003000062030000620300006203000066
:1000680062030000620300006203000062030000f4
:1000780062030000620300006203000062030000e4
:1000880062030000620300006203000062030000d4
:1000980062030000620300006203000062030000c4
:1000a80062030000620300006203000062030000b4
:1000b80062030000620300006203000062030000a4
:1000c8006203000062030000620300006203000094
:1000d8006203000062030000620300006203000084
:1000e8006203000062030000620300006203000074
:1000f8006203000062030000620300006203000064
:100108006203000062030000620300006203000053
:100118006203000062030000620300006203000043
:100128006203000062030000620300006203000033
:100138006203000062030000620300006203000023
:100148006203000062030000620300006203000013
:100158006203000062030000620300006203000003
:1001680062030000620300006203000062030000f3
:1001780062030000620300006203000062030000e3
:1001880062030000620300006203000062030000d3
:1001980062030000620300006203000062030000c3
:1001a80062030000620300006203000062030000b3
:1001b800e05b0000620300006203000062030000cd
:1001c8006203000062030000620300006203000093
:1001d8006203000062030000620300006203000083
:1001e8006203000062030000620300006203000073
:0801f800620300006203000035
:020000040000fa
:100208006203000062030000620300006203000052
:100218006203000062030000620300006203000042
:10022800620300006203000062030000b45d000086
:10023800620300006203000062030000ec5d00003e
:10024800620300006203000062030000d2020000a3
:100258000003000062030000620300006203000064
:1002680062030000620300006203000062030000f2
:1002780062030000620300006203000062030000e2
:1002880062030000620300006203000062030000d2
:1002980062030000620300006203000062030000c2
:1002a80062030000620300006203000062030000b2
:1002b80062030000620300006203000062030000a2
:1002c8006203000062030000620300006203000092
:1002d8006203000062030000620300006203000082
:1002e8006203000062030000620300006203000072
:1002f8006203000062030000620300006203000062
:100308006203000062030000620300006203000051
:100318006203000062030000620300006203000041
:100328006203000062030000620300006203000031
:100338006203000062030000620300006203000021
:100348006203000062030000620300006203000011
:100358006203000062030000620300006203000001
:1003680062030000620300006203000062030000f1
:1003780062030000620300006203000062030000e1
:1003880062030000620300006203000062030000d1
:1003980062030000620300006203000062030000c1
:1003a80062030000620300006203000062030000b1
:1003b800e05b0000620300006203000062030000cb
:1003c8006203000062030000620300006203000091
:1003d8006203000062030000620300006203000081
:1003e8006203000062030000620300006203000071
:0803f800620300006203000033
:020000040000fa
:100400004fd92000ce2925000e01880000000000f1
:10041000000020000000e000020032000001200087
:10042000200288000c000700204f2400010020005b
:100430000f000700000020000000e0000200320072
:1004400000000200000000008644020000000000de
:100450000040da000000fe00c02420000000e000a0
:1004600002003200002020009001880000000600f9
:10047000a1028800800078000000eb001a0037001d
:10048000e280400054a0b4009101ba00e280400034
:1004900054a0b4009102ba00e280400054a0b4001d
:1004a0000002eb00472bde00f507b200a601880032
:1004b000602ce10008003a000049eb000201e8006e
:1004c000020039003420ec0002f0a0008301e900b2
:1004d000f9ff3e00040037006128e100010032000e
:1004e0000082eb00040007001101ba000200e000e6
:1004f000e3ff3a000000060004d0a300e20f490029
:100500001c003900810278003549ba000201e80078
:10051000020039003420ec0002f0a0008301e90061
:100520000f0032002549ba000201e800020039003c
:100530003420ec0002f0a0008301e9000800320042
:100540000400e0000600320015c9ba000201e8000c
:10055000020039003420ec0002f0a0008301e90021
:100560008180e80054a0b4000300e000e2ff3a00fc
:10057000000006009102ba00055978008301e900e5
:10058000f7ff3200c82ade00055978008301e90030
:10059000f3ff32000400e000f1ff320011d9ba008d
:1005a000eeff3700841f78000200fa008560a90082
:1005b0001411800062026200e00f5200020032005b
:1005c0002222a9000b00370014118000640262008f
:1005d000e00f520007003a0002003700341180009b
:1005e000044f78001411800061026200e00f520095
:1005f000faff3a000080fa004f027800004006003f
:10060000841f78000200fa0004488000040f78007c
:100610001e027800241188008580a9000080fa005d
:100620004f027800004006000000fa0042c7a9000f
:100630002535800004fc2f00048262007400b300a2
:10064000243588003536800004fc2f0004826200c7
:100650003400b3003436880042c7a800f4192000e3
:10066000441188000002eb00041188002062a800f9
:100670000002eb001411880021e2a8002342a80028
:100680008560a9009560a800950580000470200091
:1006900005027200940588000080fa000000060040
:1006a0000400fa00000f7800110798001e0278007d
:1006b000044888000002eb00040078000080fa0083
:1006c000000006000040da000000fe0003f0a20077
:1006d000889fbe008a9fbe008c1f78000001070023
:1006e000070133006450e1004f0032006420e10054
:1006f0005200320003826c0007003b000905d00065
:100700000306d000820f54000c065d000200390081
:1007100002003200890178000306780085825500c6
:1007200004003d000003fd008103fd008502ea0096
:100730008b854200840f720002003b0060001000b5
:10074000e08018006011b8000005eb007a28e10095
:100750000a00390006007800c75ddd00f707b20027
:10076000878075002d003700828171000a017800b2
:10077000610560008180d1000080d3008502e9001e
:10078000f9ff3b00060440008784480002003b005c
:1007900060041400e0841c000988a30007003200f4
:1007a0008a81710082817100610164008904d10035
:1007b0000884d3008b05e800170037000978a300f0
:1007c00013003a000b00e000130034008b05e90031
:1007d0000804440089844c000a4474000978a3008a
:1007e0000d003a000b00e000070034008b05e90023
:1007f0000804440089844c0001003a000b002000ea
:100800000978a300f7ff32000001eb000200370077
:10081000828171000a017800760007000cf0a700c1
:1008200001f0a000bf0037006420e10002003a00a0
:10083000838f6c00bf0033000801be000200be00c1
:10084000b80037000081eb00f1003700889fbe0040
:100850008a9fbe008c1f7800a1000700a80033000b
:1008600003866c006450e1002e0032006420e10039
:10087000330032006150e1002f0032006120e100be
:100880003100320085855500eb07b00009002000db
:1008900008042000050037000804440089844c0047
:1008a0000a0031000603430087834b000001530018
:1008b00081815b00f8ff33000203be000800a00046
:1008c0000804440089844c00f6ff3900c639dd0075
:1008d0008301730001003200130020008904d1005d
:1008e0000884d3000998a300050032000800a7007f
:1008f0000300a0008904d1000884d3008b05e80020
:100900008904d1000884d3000001eb000281d200e9
:100910003800070001f0a1000cf0a70001f0a000d2
:10092000800037006420e100820032000801be0030
:100930000200be00f7ff37006120e1007d003200b9
:100940006000b800f3ff37000000200001f8270026
:10095000f0ff3700f4ff2f001b0137000001be003d
:100960004a0007000470a70003f0a1006509b10068
:10097000160032000d0035006828e1000600350041
:10098000f0ff2f00f1ff27000300e00013003b0001
:1009900001002800000005000000400081804800a0
:1009a0008502e900fcff3a0008003700f88f42009a
:1009b00002003c008000eb00000005008100d10037
:1009c0000080d3008502e800fcff3a000300e0004d
:1009d00002003b0060001000e080180000000600ec
:1009e0004f89de0082017800140137006011b800e1
:1009f0002201370081002000618055000b003d007e
:100a00000b00200061fe2f000100e1001d003400fa
:100a100082817100610164008904d1000884d300df
:100a20000000e800faff3a00710020006100640055
:100a300003007000020060000900320061044400fd
:100a4000e0844c000988a500050032008b05e80011
:100a50006808e10002003a008904d1000884d3004c
:100a6000f20f20000258e10005003d00c75ddd00e7
:100a7000f907b200898075000800780000000600c0
:100a80000bf827008b00780000000500c70ade0085
:100a9000f107b200f50fb20008003200e1cf4200ca
:100aa000020032000170a00024000500810f7000d8
:100ab000010032000408050044000500810f7000a9
:100ac00002003a00140005008502e9000000400021
:100ad00081c04800fcff3b000170a000240005001d
:100ae0000004be00e9ff07000003be000405be00cd
:100af0000200be00e5ff0700844f750000000600fd
:100b00000200be006450e100050036006420e100f0
:100b1000020036000968a30001003a000800be0088
:100b20000160a0004f0678004f05be004f04be00d4
:100b300000000600f0ff2f00f1ff2700f9ff37004b
:100b4000889fbe008a9fbe008c1f7800e4ff0700cc
:100b5000ebff330003866c006450e1002400320098
:100b60006420e100270032006150e10022003200e1
:100b70006120e100210032008b854200eb07b100cb
:100b80000134b800003ab8000804420089844a00e1
:100b9000013ab8000030b8008880400009014a00de
:100ba0000400330000004000818048000201490039
:100bb0008b05e900c909dd008301700001003200e6
:100bc00013002000c814de004814dd004709de00d1
:100bd0001200b200c808de000884700085ff07001c
:100be00001f0a1000cf0a70001f0a000cdff37003c
:100bf0006120e100cfff32000801be000200be000c
:100c0000f7ff37006150e100fcff3a00c9ff3700f1
:100c1000889fbe008a9fbe008c9fbe008205780020
:100c20000004be0099ff07000800be006420e10038
:100c30000700390002003a00f1ff2700f0ff2f0003
:100c40000160a000120220001266880055003700e3
:100c50006120e10003003a000b00a70001f8230027
:100c60005000370001f0a10002002100936424002d
:100c7000700007000800be0004003500b2fd20002f
:100c8000930c2400ac0007000004be000005eb003c
:100c90000b00a6004f0dde0001f0a1000004be0015
:100ca00032982f0023ea2300a5ff07000001eb0084
:100cb00003f023000b00a70003f8230084fe0700c5
:100cc00026ff07000000a7000a00a20044ff07005b
:100cd0000b00e000030032000200200003f02300bc
:100ce0007afe070001f0a2000006be00020020000c
:100cf0009304240092ff07000801be0074fe070061
:100d0000809fbe000c00be0022a22a00d3a72300b1
:100d10008bff07004f01be006dfe07000004be0000
:100d200001f0a10002002000039823004100070009
:100d30000800be00190035000001be0080ff07005a
:100d40000006be00b2c52900e36223007cff070055
:100d500022222b00f3942b005dfe07000c01be0045
:100d600077ff0700e273280083c0230058fe0700c6
:100d70000c01be0072ff070042aa2a00a3e22b006a
:100d800053fe07000c01be006dff07000801be0006
:100d90006bff07000801be004dfe07000a00a70018
:100da00001f0a2004f06be004f05be004f04be007a
:100db000000006000001eb0095ff3700af000700c0
:100dc0000400be0000000600889fbe008a9fbe008f
:100dd000841f780042ff07004f00780011003300a5
:100de000f0ff2f00838f6c0006003b0004056500b8
:100df0000a00a7000800370009f0a6001000200034
:100e000008003700820f5400838f5c000300390014
:100e10001000200001003e000000200009f0a700a3
:100e20000000ea004f05be004f04be000000e000d5
:100e30000000060014002000e3ff3700881f780040
:100e4000030478000300e00007003d00600010008c
:100e5000e080180060011900e081190002003b00e9
:100e600001f02d00030037000400070008f0a70080
:100e700001f0a0004f04780000000600889fbe002b
:100e80008a9fbe000082700004027100048271001b
:100e9000260032000004be000200be006011b8004f
:100ea0006b092000950220000182cf000a00390062
:100eb0000541b1000082cf00070039000541b100b3
:100ec0000982cf00040039000541b1000882cf003b
:100ed000010039000541b100054252001200320004
:100ee0000a003b0082817100610164008100d10031
:100ef0000080d3008984d3000884d3008b05e800e8
:100f00000442e800f7ff3a000700370008044400f5
:100f100089844c0000004800818048008b05e9006e
:100f20000442e900f9ff3a00b2fe07004f05be0097
:100f30004f04be000000060004002000000037003f
:100f4000889fbe008a9fbe008c1f78004f26dd0060
:100f5000e3fe0700eafe33006120e10043003200b7
:100f60006250e10041003e003e0039006420e10093
:100f70003c003200058255000f003b000402e800ef
:100f800038003a00800f5300818f5b003500340039
:100f90000800be0003f0a10001f0a60003f0a000cd
:100fa0000cf0a700cafd0700defe37000603430071
:100fb00087834b000c4646000005530081855b008b
:100fc000020033000a03be000c00a0000402e90086
:100fd000f6ff3b00850578000602430087824b0040
:100fe00004003a006000b80009f0a70001f0a0007a
:100ff000ccfe37000002520081825a000704e00054
:10100000040033000603430087834b008b05e9008f
:10101000faff3700090578000604be000203be008f
:101020006011b80073fe0700e00f5200e08f5a0015
:101030000700350002003c000c08a3000400320049
:101040000601be0003f0a0000cf0a700a0fd070001
:101050000a85680001f0a1000af0a70001f0a000d5
:10106000b0fe37000800be00aefe370010022000c0
:101070000cf0a60010668800aefe37006022b800b3
:10108000060220000000d0008180d2000482d2003d
:101090008582d2000000a0000202520083825a0022
:1010a000030031000202420083824a000000a100d6
:1010b0000603e900f3ff3a000000060015c0b30084
:1010c0000100200024d92000706c8800816c880009
:1010d000054a78000000060024d920008042eb0079
:1010e00094cf120002003a0010002000f3ff070026
:1010f000706c8000816c8000d2e62400631c2400a8
:10110000d5030700940323000500200000024200dd
:1011100081824a00746c8800856c88000500780024
:1011200000f0a100000006000002eb008002780041
:101130000500370061437a0061015100e0815900e8
:1011400086727a000402e800e00f5100e08f590037
:10115000f8ff3a0000000600000278000000eb00f3
:101160000401e80084027800030020006103b80055
:101170000000e8008600410065437b00e04f53001b
:10118000faff3a000482ea0004804000cf80de00cb
:10119000000006000c00fa00889fbe00f4ff270044
:1011a00000047800d4bf9f008004eb0088bf9f003c
:1011b00099bf9f00a8bf9f00240c20007881570092
:1011c000b4bf9f00cfb097007080570007000700a2
:1011d0000fba9700094a78000fba9700080052002a
:1011e0004f04be000080fa00000006008f03b0002c
:1011f000889fbe008a9fbe008c9fbe00800678003c
:101200008e1f78000007eb0092b79f00870337001e
:101210000101e80054c2b300a2a79f00844f500010
:1012200009003a00020578000002eb000b002000e4
:10123000040678000a01780001c3b30000c2b300bd
:10124000b7c2b3000f0037003d0290000404b200a3
:10125000040032001d027800004a7800840ee80085
:10126000050037000000fb008d0078000cfd070032
:10127000e10f40006c0332000e07e8006a033700fc
:101280000402e8006124b800d3c2b3008a0244001b
:1012900062437c00834f53000900320005003c008c
:1012a000804f530008003200874f53000c003a0073
:1012b00007003700814f530009003a00060037004d
:1012c0000c30a000eeff37000c00a000ecff370050
:1012d0000c10a000eaff37000c20a000e8ff370048
:1012e00062026600010032000c00a1006802660084
:1012f000010032000c20a1000602fb000403b10033
:10130000e90f520016003e000003eb008503780051
:10131000060278000704e800090020008800780031
:101320006131b800020078006a22b90062c57b0012
:10133000e0c278000a05fb008502fb000a03b10049
:1013400008014100040245000603e8000503b1005e
:10135000e98f5200f2ff3600820278000800370061
:101360000002eb00a7c2b300874f530004003a000d
:101370001fb397008502e8004602780096b79f00e9
:101380008003eb00e6c2b300a7b79f00954f1300a0
:1013900010003a00050378000ce0a000a7c2b300db
:1013a000d6cf1300060032000501e8000003eb0071
:1013b000030020000005eb00820378000b003700db
:1013c0001fb497008602e800c804780098b79f0011
:1013d000a9b79f000501e8008003eb00030020008f
:1013e0000e0037006a50b900008542006130b80035
:1013f0000603e800e74278000004410081844900c8
:101400008502fb000503b100e98f5200f5ff3600ad
:10141000aab79f0088027800eeff37006138b80055
:10142000cbc6b3006543780000054100aaa79f0022
:101430008b4f5300250032000f003c0035c6b3002f
:10144000854f53009f00320004003c00e04f5300e2
:10145000fa023200ebc252000f00370045c6b3005b
:10146000854f530017003200e5c24200854f5300fc
:10147000b3003a001300370035c7b300854f53005f
:101480002000320007003c00e4c25200854f5300a8
:10149000150032008542e800854f5300a8003a004d
:1014a0001400370055c7b300854f5300ab0032001e
:1014b000e3c24200854f5300a1003a00c67f9f005f
:1014c0000e003700c67f9f00a60037007000660040
:1014d0000601200001003200060028000c067300ff
:1014e0008703e800cdff3700c67f9f000c60a00097
:1014f0009c003700c67f9f000c50a0000c70a0001d
:10150000980037001fb09700c67f9f00c002780088
:1015100090b79f00b5b79f00e08f520002003a00dd
:1015200062d82000b2b79f003fb397008002eb0063
:10153000010037008502e800e6c37a00e0cf5300df
:10154000fcff3a00c5b79f00afb19700e08f510094
:1015500005003200cfb29700858f510002003100a4
:1015600003037800c6b79f00cfb297000004eb00da
:10157000850f52000100360005045200680666001f
:101580000ac2b3000f003200290037003d0290006c
:101590000404b200040032001d0278000a4a7800f8
:1015a000840ee800050037008d007800000220005e
:1015b0003bfc0700e10f4000010032000e07e8008d
:1015c0000804e900e00f5400f0ff3a000084eb004b
:1015d00017003700bd0290000504b2000900320078
:1015e000880278009d03780035437800864b7800a8
:1015f00005047800870ee800e04f53000a003a0027
:1016000011003700880278008d0078003500fb005b
:1016100084bf9f000504780021fc07000fba9700e3
:10162000e10f4000080032000e07e8000600370016
:101630000c027800080678003fb49700cfb49700fa
:101640005fb59700efb59700890278008504e9003f
:10165000e08f5200dfff3a00b8b79f00c9b79f0084
:10166000dab79f00ebb79f000c0478000ac2b30002
:1016700004067800e00f56000f003a006a023700b7
:101680003d0290000404b200040032001d02780004
:101690000a4a7800840ee800050037008d007800c3
:1016a00000022000fefb0700e10f400001003200b5
:1016b0000e07e8000804e900e00f5400f0ff3a00cc
:1016c000590237009fb0970070036600410478000c
:1016d00091b79f00cfc4de00090578008a05780025
:1016e0000800be000a01be004800de00c80add0096
:1016f00000807200c07f9f00e00f5300090032009d
:10170000e04f500007003200e14f4000050032007a
:1017100026002000d07f9f00e87f9f00c6b79f0073
:101720000300370017002000c7b79f00d87f9f0035
:10173000d8fb2f0008844700b8b79f0082ff37000e
:10174000c9fb2f001a00200089844700c67f9f0034
:10175000b9b79f00cab79f007bff3700c67f9f00c5
:101760000c0cb3008c027800050cb2003b003a0070
:10177000e00f560005003d009fb297004501be00f6
:101780004500be0095b79f000f003700f0026600cd
:10179000120032001fb497004803be00b6a79f0096
:1017a000c7a79f0098b79f0098029000cfaade00bd
:1017b000d5a79f00e5a79f003fa09700cfa0970067
:1017c0005fa19700efa19700b0b79f00c1b79f003e
:1017d000d2b79f00e3b79f000b0037009fb0970080
:1017e000c102780005047800cfc4de000905780046
:1017f0008a05780091b79f00b8b79f00c9b79f00ce
:10180000dab79f00ebb79f003fb09700cfb09700cb
:101810005fb19700efb19700e00f5000e08f5800e4
:10182000e00f5900e08f590032003d006000b80021
:101830006011b8003fb49700cfb497005fb5970030
:10184000efb597003c00b3000804500089845800ad
:101850000a0559008b85590022003700e00f560019
:1018600005003d009fb297004501be004500be0047
:1018700095b79f000f003700f0026600120032009b
:101880001fb497008004eb004803be000005eb0086
:10189000b6af9f00c7af9f00d9af9f00eaaf9f00d0
:1018a0003fa89700cfa897005fa99700efa99700de
:1018b00098b79f00b0b79f00c1b79f00d2b79f00f5
:1018c000e3b79f000b0037009fb09700c10278007c
:1018d00091b79f0005047800090020000a0020004d
:1018e0000b002000b8b79f00c9b79f00dab79f0070
:1018f000ebb79f00afb49700e08f54000d003a00a3
:101900001a0020003fb09700cfb097005fb197005a
:10191000efb19700aab79f00e00f5000e08f58008a
:10192000e00f5900e08f5900020032008000eb0008
:10193000a1b79f000c01780005042000020cb20042
:1019400082b79f00850f51003800320003003c0031
:10195000e00f5100080032004c003700050820005d
:101960008fb19700858f510018003200050c2000c0
:10197000858f510045003a0015c0b3000003eb000d
:1019800047cc20000603e8004330dd00070040009c
:101990003fb49700cfb497005fb59700efb59700bd
:1019a0005001be004000be000040e10001c8e1005f
:1019b00002d0e10003d8e100330039008542e8009d
:1019c000f4cf5200efff3a002f00370015c0b300ec
:1019d00000012000010020006011b8003fb4970012
:1019e000cfb497005fb59700efb597000040e100d6
:1019f00001c8e10002d0e10003d8e1002200390073
:101a0000490020000000d0008180d2000281d20075
:101a10008381d2008904e900faff3a008542e80098
:101a2000f0cf5200edff3a001700370015c0b300a9
:101a300080002000010020006011b8003fb4970032
:101a4000cfb497005fb59700efb597000040e10075
:101a500001c8e10002d0e10003d8e1000a0039002a
:101a6000390020000000d0008180d2000281d20025
:101a70008381d2008904e900faff3a008542e80038
:101a8000f5cf5200edff3a00c57f9f004f7d9700d4
:101a9000afb597008a02fb008b8f520002003d0019
:101aa000cb7f9f00040037002fb09700850f5000b8
:101ab00001003d00a5b79f00e00f52000300320077
:101ac000e3026600010032000402e9000500240080
:101ad0008502660006003200afb09700810f520009
:101ae0000200340001025200010037000002eb0046
:101af0004f7997008001eb008202fb00f3af9f005b
:101b0000850f52000200340085025200f5af9f009d
:101b1000640266003b003200e20266006102660079
:101b2000e08f520011003200bd0290000504b200a7
:101b3000080032009d027800b6c2b300e00f5200e8
:101b40000100320006c3e800864a7800850ee800ee
:101b500015003700b0022000e00f520001003200f3
:101b60000080e8008d0078000c003700e00f520084
:101b70000e0032003d0290000404b2000500320065
:101b80001d02780005c2b300054a7800840ee80003
:101b9000050037008d00780000022000c0fa070021
:101ba000e10f4000010032000e07e8007faa970015
:101bb000e00f5200fe00320008c3b30004057800b5
:101bc0003d0290000404b200040032001d027800bf
:101bd000084a7800840ee800050037008d00780080
:101be00000032000aefa0700e10f400001003200c0
:101bf0000e07e8000a05e900f1ff3a00faaf9f007e
:101c0000eb003700ffaa9700e08f5200140032006b
:101c10006802660012003a0008c2b30005057800a9
:101c20003d0290000404b200040032001d0278005e
:101c3000084a7800840ee800050037008d0078001f
:101c40000002200096fa0700e10f40000100320078
:101c50000e07e8000a05e900f1ff3a00faaf9f001d
:101c6000e202660061026600e08f5200110032005d
:101c7000bd0290000504b200080032009d02780009
:101c8000b6c2b300e00f52000100320006c3e80004
:101c9000864a7800850ee80015003700b002200063
:101ca000e00f5200010032000080e8008d00780053
:101cb0000c003700e00f5200bd0032003d029000e2
:101cc0000404b200050032001d02780005c2b30012
:101cd000054a7800840ee800050037008d00780082
:101ce000000220006efa0700e10f4000b000320051
:101cf0000e07e800ae0037002fb397000404200061
:101d00000603e9008fb39700a6b79f00848f5300a6
:101d10008400320003003c00e08f530008003200d2
:101d200091003700040820000fb49700840f54007e
:101d300066003200040c2000840f54008a003a0030
:101d4000afb49700614bb900e00f560024003d008e
:101d5000433add00cd32de00850272004332dd0001
:101d60004acc2000040245003fb09700cfb0970056
:101d70005fb19700efb197003404be002405be00a8
:101d80000802be000a03be00640107000802be008c
:101d90000a03be00c07f9f000000fb00cf80de0072
:101da0000101780082017800c50107003fb2970069
:101db000cfb297005fb39700efb3970000025200d5
:101dc00081825a0002035b0083835b00b4b79f00eb
:101dd000c5b79f00d6b79f00e7b79f003700370011
:101de0009fa29700e08f5200270032004338dd00a9
:101df000cd30de00810070004330dd0047cc200094
:101e0000008343003fb29700cfb297003604be0074
:101e10002605be000400be000801be0084bf9f006e
:101e2000f5b79f000005eb0094fc07000801be0019
:101e3000c07f9f000000fb00cf80de00860007000f
:101e40000fba9700ffb29700aaaf9f00000452009c
:101e500081845a00f8a79f0089af9f008004eb009f
:101e600099af9f007fa097008fa897001fa99700a8
:101e7000afa99700b0b79f00c1b79f00d2b79f002e
:101e8000e3b79f000d00370041cc2000433add004e
:101e9000cd32de00850272004332dd003fb1970093
:101ea00061027a00110009000481d800a40020001a
:101eb000110009000480d800c17f9f00cf799700ee
:101ec0000343b000c37f9f002700370054d7200092
:101ed0008fa29700e08f52000100320044d620000c
:101ee0002fb397003fb09700cfb097005fb1970036
:101ef000efb19700c232dd008502e9000500330032
:101f00008301d1000281d3008180d3000080d300ff
:101f1000f9ff37006f00600064407800c07f9f00c9
:101f200011003700afb397003fb49700cfb49700cc
:101f30005fb59700efb59700633ab90004007800e9
:101f40000000e900050033008b05d1000a85d300ad
:101f50008984d3000884d300f9ff37006742640006
:101f60000443b000c47f9f003d0290000404b2000f
:101f7000070032009d0278004f7a9700844a78006b
:101f8000850ee800e04f520007003a000d003700d0
:101f9000cf7897000100fb008d007800c0f90700a2
:101fa000e10f4000070032000e07e800050037008f
:101fb000700166008c01780092a79f000302b200b6
:101fc00083a79f002fb29700e00f52004aff3a000c
:101fd0006806660014003200ffaa9700e08f5200e6
:101fe0001100340008c2b300050578003d029000de
:101ff0000404b200040032001d027800084a780090
:10200000840ee800050037008d00780000022000f3
:10201000a3f90700e10f4000010032000e07e800bd
:102020000a05e900f1ff3a00afa0970011407800df
:10203000c07f9f00e04f500075fc3a000e00780012
:102040004f0778004f06be004f05be004f04be008c
:102050008f03b10000000600020ab900001bb9009e
:102060000200b80081004200810043000000060029
:10207000889fbe008a9fbe003004be002005be00bf
:102080000404440085844c0006054d0087854d00fe
:102090000898be000a90be000440e10005c8e100b7
:1020a00006d0e10007d8e1000200310068004000de
:1020b0001008e8004f05be004f04be0000000600f7
:1020c0001000fa00889fbe008a9fbe001100200009
:1020d0000605be000404be003002be002003be00a0
:1020e000c4b79f00d5b79f00e6b79f00f7b79f0022
:1020f0000802520089825a000a035b008b835b004e
:1021000084bf9f0095bf9f00a6bf9f00b7bf9f00e1
:102110000498be000698be004fb29700dfb2970049
:102120006fb39700ffb397000820e10009a8e10012
:102130000ab0e1000bb8e100010039008000eb00bb
:102140004f05be00108810004f04be000080fa004a
:10215000000006001400fa00889fbe008a9fbe009f
:102160008c9fbe000006eb003e000700ccb79f002e
:10217000bcb79f00acb79f009cb79f008cb79f0077
:102180000605be000404be000d0420004fb39700f6
:10219000bfb29700860343002fb29700e00f5300b1
:1021a00004003d003d0007000f004000b0ff0700a5
:1021b00003003700390007000f004000c0ff070090
:1021c000cfb2970095bf9f00e08f52000900350005
:1021d0002b00070014002000050020006033b80029
:1021e000000072008180720002017300838173001d
:1021f0001c0007000c06e8008d0f5600e3ff3a00b4
:102200001fba9700e00f520005003d000802be0013
:102210000a03be0000fe2f000f00400094ff0700dd
:102220004faa9700e00f520008003a000fb4970041
:102230009fb497002fb59700bfb59700d8b79f0000
:10224000e9b79f00fab79f008bbf9f000c00070003
:102250004f06be004f05be004f04be000080fa00ce
:1022600000000600010007000000060090b79f0074
:10227000a1b79f00b2b79f00c3b79f000000060040
:1022800001000700000006001fb09700afb09700e4
:102290003fb19700cfb19700000006004f2bde0042
:1022a000f9ff070086837300858242004f23de001a
:1022b000a7b79f00868272000402420095b79f0074
:1022c000ffaa97004f2bde008582420006027200b3
:1022d00084b79f006faa97004f23de0004024200dc
:1022e00086827200f5af9f004f18de000002720078
:1022f000e5ff0700e4af9f00000040008180480038
:1023000002014900838149000802be000a03be00a1
:10231000d6ff070000fe2f0000000600881f78008f
:1023200018002000881f78008aff07008f87e900c7
:102330004f04780000000600801feb0085ff0700b7
:102340008f87e90000000600889fbe008a9fbe00bc
:10235000e00f5000e08f5800e00f5900e08f590067
:102360000c003d006044b8006055b8000000540007
:1023700081805c0002015d0083815d001800200007
:102380001500070008003d00180007000004eb00de
:10239000050037000004eb000f00070002003d00bd
:1023a0001200070018002000dcff0700e00f5400b7
:1023b000060032006022b8006033b800000052000e
:1023c00081805a0002015b0083815b004f05be00e3
:1023d0004f04be0000000600e00f5200e08f5a00dc
:1023e000e00f5b00e08f5b00000006006044b80077
:1023f0006055b8000402540085825c0006035d004d
:1024000087835d0000000600889fbe008a9fbe0093
:102410008c1f7800e00f5000e08f5800e00f59004b
:10242000e08f59000d003d006044b8006055b800d1
:102430001c0020000000540081805c0002015d004f
:1024400083815d000820e10009a8e1000ab0e100f5
:102450000bb8e1000d003d00080037000006eb005e
:10246000e00f5200e08f5a00e00f5b00e08f5b004e
:1024700006003d006044b8006055b80004025400f6
:1024800085825c0006035d0087835d00aaff07006c
:10249000e00f5600060032006022b8006033b8003a
:1024a0000000520081805a0002015b0083815b00c2
:1024b0004f0678004f05be004f04be000000060026
:1024c000889fbe008a9fbe008c1f78000006eb002c
:1024d000e00f5000e08f5800e00f5900e08f5900e6
:1024e00007003d006044b8006055b8001c002000a3
:1024f0000000540081805c0002015d0083815d006a
:10250000e00f5200e08f5a00e00f5b00e08f5b00ad
:1025100007003d006044b8006055b8000c00a20000
:102520000402540085825c0006035d0087835d0021
:102530000c000700e00f5600060032006022b800d1
:102540006033b8000000520081805a0002015b0035
:1025500083815b004f0678004f05be004f04be002c
:1025600000000600889fbe008a9fbe008c9fbe00b0
:102570000404b8000506b8008904460060854e00d2
:102580000606b8000a054600e0854e000706b800ba
:102590008b054600040eb800890446000a854e00eb
:1025a000e0854d00050eb8000a0546008b854e00fb
:1025b000060eb8008b0546000416b8000a05460052
:1025c0008b854e000516b8008b054600041eb8002a
:1025d0008b0546000800be000a01be004f06be0083
:0c25e0004f05be004f04be0000000600c6
:020000040000fa
:1025ec0000000000000000000101000001020000da
:1025fc0002030000040500000506000007090000a6
:10260c000a0b00000c0e00000f1100001214000049
:10261c0015170000191b00001d1f000021230000ce
:10262c00252800002a2c00002f3100003436000031
:10263c00393b00003e41000043460000494c00007d
:10264c004f520000555800005a5d000061640000b4
:10265c00676a00006d70000073760000797c0000e2
:10266c0080830000868900008c8f0000929500000a
:10267c00989b00009ea20000a5a70000aaad000038
:10268c00b0b30000b6b90000bcbe0000c1c400006d
:10269c00c6c90000cbce0000d0d30000d5d70000b7
:1026ac00dadc0000dee00000e2e40000e6e8000016
:1026bc00eaeb0000edee0000f0f10000f3f4000096
:1026cc00f5f60000f8f90000fafa0000fbfc000037
:1026dc00fdfd0000fefe0000feff0000ffff0000fd
:1026ec00ffff0000ffff0000fefe0000fefd0000eb
:1026fc00fdfc0000fbfa0000faf90000f8f60000ff
:10270c00f5f40000f3f10000f0ee0000edeb00003a
:10271c00eae80000e6e40000e2e00000dedc000095
:10272c00dad70000d5d30000d0ce0000cbc9000012
:10273c00c6c40000c1be0000bcb90000b6b30000a6
:10274c00b0ad0000aaa70000a5a200009e9b00004f
:10275c0098950000928f00008c8900008683000001
:10276c00807c000079760000737000006d6a0000b8
:10277c0067640000615d00005a580000555200006b
:10278c004f4c000049460000434100003e3b000016
:10279c0039360000343100002f2c00002a280000ac
:1027ac0025230000211f00001d1b0000191700002d
:1027bc0015140000121100000f0e00000c0b00008d
:1027cc000a090000070600000505000004030000cc
:1027dc0002020000010100000100000000000000e6
:1027ec00fffe0000fdfc0000fbfa0000f9f8000001
:1027fc00f7f60000f5f40000f3f20000f1f0000031
:10280c00efee0000eceb0000eae90000e8e7000066
:10281c00e6e50000e4e30000e2e10000e0df000098
:10282c00dedd0000dcdb0000dad90000d8d70000c8
:10283c00d6d50000d4d30000d2d10000d0cf0000f8
:10284c00cecd0000cccb0000cac90000c7c600002a
:10285c00c5c40000c3c20000c1c00000bfbe000060
:10286c00bdbc0000bbba0000b9b80000b7b6000090
:10287c00b5b40000b3b20000b1b00000afae0000c0
:10288c00adac0000abaa0000a9a80000a7a60000f0
:10289c00a5a30000a2a10000a09f00009e9d000027
:1028ac009c9b00009a990000989700009695000058
:1028bc009493000092910000908f00008e8d000088
:1028cc008c8b00008a8900008887000086850000b8
:1028dc0084830000828100007f020000030400005a
:1028ec000506000007080000090a00000b0c000098
:1028fc000d0e00000f100000111200001314000048
:10290c001516000017180000191a00001b1c0000f7
:10291c001d1e00001f2000002122000023240000a7
:10292c0026270000282900002a2b00002c2d00004f
:10293c002e2f0000303100003233000034350000ff
:10294c0036370000383900003a3b00003c3d0000af
:10295c003e3f00004041000042430000444500005f
:10296c0046470000484a00004b4c00004d4e00000a
:10297c004f500000515200005354000055560000b7
:10298c0057580000595a00005b5c00005d5e000067
:10299c005f60000061620000636400006566000017
:1029ac0067680000696a00006b6c00006d6f0000c6
:1029bc00707100007273000074750000767700006f
:1029cc00787900007a7b00007c7d00007e7f00001f
:1029dc00486900002e200000486f0000772000009e
:1029ec00276200006f750000740000006120000079
:1029fc0071750000696300006b20000073740000a7
:102a0c006f720000793f0000004900004e54000036
:102a1c00524f0000204700004f450000532000009b
:102a2c004845000052450000005400006861000059
:102a3c007427000073200000796f0000757200008d
:102a4c0020730000746f0000727900002e000000eb
:102a5c004469000064200000796f000075200000bc
:102a6c00656e00006a6f0000793f00000066000090
:082a7c003a250000690000008a
:020000040000fa
:102a840010100000080300000003000003e400002d
:102a94000303000003e40000030300000303000039
:102aa40003030000030300000303000003e4000029
:102ab4000303000003030000e403000003e4000038
:102ac40003f50000030300000303000003030000f8
:102ad40003030000e4030000e4e400000303000037
:102ae400e4030000e40300000303000003f5000016
:102af40003030000e4e40000e4e40000e403000055
:102b0400e4030000e40300000303000003030000e7
:102b1400e4030000e4e40000e4e40000e4e4000072
:102b2400e40300000303000003030000e4030000c7
:102b3400e4e4000003e40000e4e40000f5e4000041
:102b4400e4030000e4f5000003030000e4e40000f3
:102b5400e4e40000f5e40000e4e40000e4f500002f
:102b6400e4e40000e4e4000003e4000003e4000003
:102b7400e4e40000e4e40000e4f50000e4f500000f
:102b8400e4e40000e4e4000003e4000003e40000e3
:102b9400e4e40000e4f50000e4f50000e4f50000de
:102ba400f5e40000e4e4000003e40000e4e40000d1
:102bb400e4e40000f5e40000f5f50000f5f500009c
:102bc400f5f50000e4030000e4e40000e4e40000a0
:102bd400e4f50000f5f50000f5ff0000f5f5000050
:102be400e4f50000e4e40000e4030000e4e4000091
:102bf400f5f50000f5ff0000f5ff0000f5ff00000b
:102c0400f5f50000e4e40000e4030000e4e400005f
:102c1400f5f50000ffff0000ffff0000fff50000d6
:102c2400f5e40000e4e400000303000003e4000012
:102c3400e4f50000f5ff0000ffff0000fff50000d1
:102c4400f5e40000e4e400000303000003e40000f2
:102c5400e4e40000f5f50000f5f50000f5e40000fb
:102c6400e4e40000e40300000303000003030000a5
:102c740003e40000e4e40000e4e40000e4e4000011
:102c84000303000003030000031000001008000009
:102c9400030000000303000003030000030300001b
:102ca4000303000003e400000303000003e4000046
:102cb400030300000303000003f5000003e4000025
:102cc40003030000e40300000303000003e4000026
:102cd4000303000003030000e4030000e403000016
:102ce40003e40000e4030000e40300000303000025
:102cf4000303000003030000e4030000e4030000f6
:102d0400e4e40000e4e40000e403000003f5000050
:102d1400030300000303000003030000e4e40000d5
:102d2400e4e40000e4e40000e4030000e403000041
:102d34000303000003f50000e4030000e4e40000e2
:102d4400f5e40000e4e4000003e40000e403000010
:102d5400e403000003e40000e4e40000e4f5000000
:102d6400e4e40000e4e40000f5e40000e4e400002e
:102d7400e403000003e40000e4e40000e4f50000e0
:102d8400e4f50000e4e40000e4e40000e4e400000e
:102d940003e4000003e40000e4e40000f5f50000af
:102da400e4f50000e4f50000e4e40000e4e40000dd
:102db40003e40000e4030000e4f50000f5f500007e
:102dc400f5f50000f5e40000f5e40000e4e400009b
:102dd400e4e40000e4e40000e4f50000e4f50000ad
:102de400f5ff0000f5f50000f5f50000e4e400004f
:102df400e4e40000e4e40000e4f50000f5ff000072
:102e0400f5ff0000f5ff0000f5f50000f5e4000013
:102e1400e403000003e40000e4e40000f5f500002e
:102e2400ffff0000ffff0000fff50000f5e40000d5
:102e3400e403000003e40000e4e40000f5f500000e
:102e4400ffff0000ffff0000f5f50000e4e40000d0
:102e54000303000003030000e4e40000e4e40000d2
:102e6400f5f50000f5f50000f5e40000e4e40000e9
:102e740003030000030300000303000003e4000055
:102e8400e4e40000e4e40000e4e4000003030000e0
:102e9400030300000808000008030000000300000a
:102ea400e4030000e4030000030300000303000044
:102eb4000303000003e40000030300000303000015
:102ec40003030000e4e40000e40300000303000043
:102ed400e4e40000e4e40000f5e40000e4e40000bd
:102ee400e4e40000f5f50000f5e40000e4e400008b
:102ef400e4f50000f5ff0000f5f50000e403000030
:102f0400e4f50000ffff0000f5e40000e403000026
:102f1400e4e40000f5f50000e4e400000308000028
:102f2400080800000300000003030000030300007e
:102f3400030300000303000003e40000e4030000b3
:102f4400e4e400000303000003030000e4e40000e1
:102f5400e4e40000e403000003e40000e4e400000f
:102f6400e4f50000e4e4000003e40000f5e40000fc
:102f7400e4e40000e4030000e4e40000e4f50000fd
:102f8400f5f50000e4e4000003e40000f5ff0000b0
:102f9400ffff0000f5e4000003e40000e4f5000096
:102fa400f5f50000e4030000311000000800000003
:102fb400000000000000000000000000000000000d
:102fc40000000000000000000525000000250000ae
:102fd4002529000000000000004a00002500000030
:102fe40000000000040500004f0000000000000085
:102ff4000000000025250000050500000000000079
:103004000000000025250000250500000000000048
:1030140000000000002a0000734e000000000000c1
:103024000000000000000000292a00004a4e0000b1
:103034006f4f000073250000000000004a73000079
:1030440073040000006f00007373000000000000b0
:103054002973000073730000734f00007373000042
:10306400250000004e730000734f00004f4a00001b
:103074004a4f0000000000004f730000730000007e
:103084000000000000000000002500002a2a0000c3
:103094004f4f00004e7300004e000000004f000030
:1030a40073730000000000007373000073000000dd
:1030b400002a000073730000737300007373000030
:1030c40073250000004f0000737300004f4f000091
:1030d4004e4a00002a0000000073000073730000d1
:1030e400000000000000000000000000252a00008d
:1030f4002a250000054f0000734a0000000000006c
:103104004f73000073050000007300007373000028
:10311400000000004a730000737300004e73000047
:1031240073730000250000004f730000734e00000d
:103134004e4f00004e4a0000000000007373000070
:10314400730000000000000000000000002a0000de
:103154002a2a0000000000004f7300004f00000006
:10316400004e00007373000025000000737300001c
:1031740073000000004e0000737300004f00000055
:10318400256f000073290000004f000073730000d6
:10319400000000004a4f00004e00000000730000d1
:1031a4007373000000000000000000000000000035
:1031b4002a2a00004a040000004f0000734f000058
:1031c400000000004f73000073050000007300004e
:1031d40073730000000000004e730000734e000083
:1031e40000000000054a0000000000006f730000aa
:1031f40073000000006f00004f4f0000000000004b
:103204007373000073000000000000000000000061
:10321400002a00004a4a0000040000004f73000026
:103224004e000000004e00007373000025000000f3
:103234007373000073000000004f000073730000fc
:103244002a0000000000000000000000006f0000e1
:1032540073730000050000004f4f000025000000bc
:103264000073000073730000000000000000000001
:1032740000000000294a00004a000000004e00003f
:103284006f4a0000000000004e730000736f0000de
:103294004f73000073730000000000004f730000c0
:1032a400737300006f4f00004f4f000025000000b3
:1032b40073730000734e00004e4f00004f00000077
:1032c40000000000737300007300000000000000a1
:1032d40000000000002a00004e4e000025000000ff
:1032e4004f4f00002a000000004e000073730000de
:1032f400737300007373000073000000004f00003c
:10330400737300004f6f00004f4f00006f290000df
:103314000073000073730000737300006f4e0000ad
:103324000000000000730000737300000000000040
:1033340000000000000000004a4f00004a4f000057
:103344004f4f00006f250000000000000000000047
:103354004f73000073730000730500000000000049
:103364004f73000073730000736f00004e4f000032
:103374002500000073730000734f00006f7300009a
:103384007329000000000000737300007300000044
:10339400004e00004f4a0000002500006f4a000064
:1033a4004a4f00004f4f00002900000000000000b9
:1033b400004e00007373000073250000000000003d
:1033c400004f0000736f00002a000000000000009e
:1033d4000000000000730000737300002504000067
:1033e400737300006f00000000730000737300002b
:1033f400000000007373000073000000256f0000dc
:103404002a2500002a6f00004a290000000000005d
:10341400000000004a730000734f00000000000029
:10342400000000004f730000732500000005000039
:1034340025250000000000006f73000073250000c4
:103444000473000073730000000000007373000035
:103454007300000000730000737300000025000077
:103464004f4a0000000500004f4a00004a000000d7
:1034740000000000004a0000737300004f000000c9
:1034840000000000004e00007373000029000000db
:103494006f730000732a0000006f00007373000054
:1034a4002a250000737300006f0000000073000001
:1034b40073730000737300007373000073000000e3
:1034c4002a4f00004a000000004f00004f4a00004d
:1034d40000000000000000004a730000734f000069
:1034e40000000000000000004e7300007373000031
:1034f40073730000737300002a0000006f730000f0
:10350400732a000025730000736f000000000000a0
:10351400737300007373000073730000737300000f
:10352400004f00004f4a0000000000004e4a000017
:103534004e00000000000000004a00007373000009
:103544004f00000000000000004e000073730000f4
:103554007373000073730000734a0000006f00006f
:10356400737300002a050000737300004f04000009
:10357400004e00004e6f0000737300007373000070
:103584004f000000294e000029000000004e0000fa
:103594002a4a00000000000000000000254a000044
:1035a4004a2a000000000000000000004a2a00002f
:1035b4002a730000736f00004f73000025000000a1
:1035c4006f73000073250000004e00004f4f000091
:1035d400001d000010080000000000002525000068
:1035e40025250000252500002925000000000000f5
:1035f4002525000025250000052500000500000004
:103604000000000000000000002500002505000067
:1036140005000000006f0000737300004f7300008a
:103624004f73000073000000007300007373000008
:10363400737300007373000025000000002900006c
:1036440073730000737300004f7300007325000050
:103654006f730000736f0000736f00002a73000023
:1036640000000000737300007373000073730000a4
:1036740073290000000000002a7300007373000027
:103684007373000073730000256f000073730000f0
:103694006f4e00006f4f00007300000000730000c5
:1036a400734f00004a4a0000737300002a000000b0
:1036b400004a000073730000734e0000737300002f
:1036c400732500006f73000073250000004a00009a
:1036d40073730000000000007373000073000000a7
:1036e400257300006f4a0000000000004e730000c4
:1036f400734f0000002500006f730000294f000085
:10370400737300004a0000004f7300007300000050
:10371400007300007373000000290000737300003d
:103724004a000000004e0000737300004e000000c9
:10373400000500004a0000004f730000732a0000d7
:10374400004f000073730000000000006f7300005e
:103754007300000029730000734a00000000000099
:103764004f730000732a00000000000000000000f6
:10377400006f0000737300002a0000004f73000004
:1037840073000000006f0000734f00000029000068
:10379400737300004a000000004f000073730000c0
:1037a400736f00004f4f00004f2500004f7300005f
:1037b400732a0000004f0000737300000000000033
:1037c4006f7300007300000025730000734a00004b
:1037d400000000004f730000734f00006f4f0000a3
:1037e4004f6f0000294f0000737300002a0000008f
:1037f4004f73000073000000006f0000737300003b
:1038040000250000737300004e000000004f00000c
:1038140073730000737300006f4e00004f250000a7
:103824004f73000073290000004f00007373000001
:10383400000000006f730000730000002973000093
:10384400734e0000000000004f7300006f2a000058
:103854000000000000000000004f0000737300002f
:103864002a0000004f73000073000000006f000086
:103874007373000000250000737300004e00000005
:10388400004f0000737300002500000005250000b0
:10389400250000006f730000732a0000044f00002d
:1038a40073730000000000007373000073000000d5
:1038b40025730000734e0000000000004e730000ea
:1038c40073290000006f0000737300002a73000066
:1038d4007373000073730000737300006f000000c3
:1038e4000073000073730000002500007373000070
:1038f4004f000000004e000073730000737300005b
:1039040073730000732a00004f7300007373000088
:1039140073730000734f0000000000006f73000019
:103924007300000029730000734f000000000000c2
:103934004e73000073730000737300007373000010
:103944004a4a0000734f00006f6f0000734f00007d
:103954004a000000004f0000734f000000250000e3
:103964004f4f00004f000000004a00002a2a0000c8
:10397400737300006f4f00007325000031100000c6
:10398400080000000000000000000000000000002b
:10399400000000000000000000000000080c00000f
:1039a400081000001014000004000000001c0000b7
:1039b4000c04000000000000080c00003c0800009b
:1039c40000000000080400000c0c00000c080000bb
:1039d4000400000000040000101000000c0c0000a3
:1039e4000400000000000000001800005d1c00003e
:1039f400000000000000000000000000141400009b
:103a0400181c00005d3c00005d1000000000000078
:103a14001c7e00007e080000005d00007e5d00004a
:103a240008000000145d00005d7e00005d3c0000a5
:103a34007e5d00000c0000001c7e00005d3c000068
:103a44003c1c00001c1c0000000000003c5d000049
:103a54007e000000000000000000000000100000d4
:103a6400181800003c3c00001c5d00001c00000015
:103a7400003c00007e7e0000080800007e7e0000fe
:103a84007e040000001800005d5d00007e5d000003
:103a94005d7e00007e100000001c00007e5d0000c2
:103aa4003c3c00001c1c000018000000007e0000cc
:103ab4007e7e000000000000000000000000000006
:103ac40010180000181000000c3c00007e1c0000c0
:103ad400000000001c7e00007e0c0000005d000061
:103ae4007e7e0000000000001c7e00007e7e000040
:103af4001c5d00007e7e0000100000003c7e000083
:103b04005d1c00001c3c00001c1c000000000000a8
:103b14007e7e00007e000000000000000000000027
:103b24000018000018180000080000001c5d0000c8
:103b34003c000000001c00007e7e00000c00000021
:103b44007e7e00007e000000001c00007e7e0000df
:103b54003c000000103c00007e140000003c00000b
:103b64007e5d0000080000001c3c00001c000000fa
:103b7400007e00007e7e00000000000000000000c7
:103b8400000000001814000018080000003c0000a9
:103b94005d1c0000000000001c7e00007e08000088
:103ba400007e00007e7e0000000000001c7e0000fd
:103bb4007e1c0000000400000c1800000800000037
:103bc4005d7e00007e040000003c00003c1c000000
:103bd400000000007e7e00007e0000000000000067
:103be40000000000001800001c180000080000007d
:103bf4003c5d00001c000000001c00007e7e0000f4
:103c04000c0000005d7e00005d000000001c000050
:103c14007e7e00001800000000000000000000008c
:103c2400005d00007e7e00000c0400003c3c0000af
:103c340010000000007e00007e7e000000000000f6
:103c44000000000000000000141c00001c0800001c
:103c5400001c00005d1c0000000000001c7e000031
:103c64007e5d00003c7e00007e7e000000000000bf
:103c74003c7e00007e7e00005d1c00001c3c0000b9
:103c8400100000007e7e00007e1c00001c3c000032
:103c94001c000000000000007e7e00007e0000008a
:103ca4000000000000000000001800001c1c0000c0
:103cb4000c0800003c3c000018000000001c000040
:103cc4007e7e00007e7e00007e7e00005d0000009f
:103cd400003c00005d5d00003c5d00001c3c0000f9
:103ce4005d140000005d00007e5d00005d7e00004c
:103cf4005d1c000000000000007e00007e7e0000cd
:103d04000000000000000000000000001c1c000077
:103d14001c3c00003c3c00005d140000000000005e
:103d2400040800001c7e00007e7e00007e08000067
:103d3400000000003c7e00005d7e00005d5d000030
:103d44001c1c0000100000005d7e00007e3c000092
:103d54005d5d00007e140000000000007e7e000017
:103d64007e000000001c00003c1c0000001000004d
:103d74005d1c00001c3c00003c3c000014000000e2
:103d840000000000001c00007e7e00007e10000089
:103d940000000000003c00005d5d0000180400000d
:103da4000404000008000000005d00007e7e0000a6
:103db400100800007e5d00005d000000007e000031
:103dc4007e7e0000000000007e7e00007e00000079
:103dd4000c5d000018100000145d00001c140000ad
:103de40000000000000000001c7e00007e3c00007b
:103df40000000000000000001c5d00007e100000b8
:103e0400000c000010140000040000005d7e00009f
:103e14007e100000087e00007e7e0000000000008e
:103e24007e7e00007e040000047e00007e7e000092
:103e3400001000001c1c0000040c00001c1c0000ee
:103e44001c00000000000000001c00007e7e00003a
:103e54003c00000000000000001c00005d7e00002b
:103e6400140400003c7e00007e140000005d00008d
:103e74007e7e0000180c00007e7e00005d040000c1
:103e8400007e00007e7e00007e7e00007e7e0000bc
:103e94007e000000181c00001c040000081c000028
:103ea4003c1c000000000000000000001c7e00001c
:103eb4007e3c000000000000000000001c7e0000aa
:103ec4007e7e00007e5d00007e7e00001800000003
:103ed4005d7e00007e180000107e00007e5d000004
:103ee400080000007e7e00007e7e00007e7e0000d2
:103ef4007e7e0000003c00003c1c00000008000026
:103f04001c1c00001c000000000000000018000041
:103f14007e7e00003c00000000000000001c000049
:103f24005d7e00005d7e00005d7e00007e18000066
:103f3400005d00007e7e0000180c00007e7e000004
:103f44003c080000001c00001c5d00007e7e000098
:103f54007e7e00003c000000141c000014000000e1
:103f6400041c0000181c00000000000000000000f9
:103f74000c1c00001c1800000000000000000000e1
:103f84001c140000147e00005d5d00003c5d000018
:103f9400100000005d7e00005d100000041c0000a5
:103fa4003c3c0000081d0000100800000000000058
:103fb4000c100000100c0000101000001410000081
:103fc400000000000c0c0000100c00000c0c0000a1
:103fd4000c0000000000000000080000040c0000b9
:103fe4000c0c000008040000005d00007e7e000050
:103ff4003d7e00003c7e00005e000000007e00006c
:104004007e7e00005e5e00007e5e00001000000008
:10401400001400005d5e00007e5e00003d7e000036
:104024005e0c00005d7e00007e5d00007e5d000091
:10403400187e0000000000007e7e00007e5e00000e
:104044007e5e00007e14000000000000185e000088
:104054005e7e00005e5e00007e7e0000105d00005b
:104064007e7e00003d1c00005d3c00007e000000e0
:10407400007e00007e3d0000181c00007e5e0000f3
:1040840018000000001c00007e7e00007e1c000062
:104094005d7e00007e1000005d7e00005e14000066
:1040a400001c00007e7e0000000000005e7e000018
:1040b4007e000000105d00005d1c00000000000098
:1040c4001c7e00007e3c0000001000003d7e0000cd
:1040d400143d00007e5e00001c0000003c7e0000d9
:1040e4007e040000005e00007e7e000000140000dc
:1040f4005e7e00001c000000001c00007e7e0000ac
:104104001c000000040c0000180800003c7e0000a5
:104114007e140000003c00007e7e000000000000d1
:104124005d7e00007e000000145e00007e1c000026
:10413400000000001c7e00007e180000000000004b
:1041440000000000003d00007e7e0000180000001a
:104154003c7e00007e000000005d00007e3d00000b
:10416400001400007e7e00001c000000003c0000e3
:104174007e7e00007e5d00001c1c00003c100000e0
:104184003d7e00007e180000003c00007e7e0000a2
:10419400000000005d7e00007e000000145e000050
:1041a4005e180000000000003c5d00005e3d000061
:1041b4005d1c00003c5d0000143d00007e7e00009c
:1041c400140000003c7e00007e000000005d000042
:1041d4007e5e0000001000007e7e00001c000000d7
:1041e400003d00007e5e00007e5e00005d1c00005d
:1041f4001c1000003c7e00007e140000001c000027
:104204007e7e0000000000005d7e00007e00000055
:10421400147e00007e1c0000000000003c5e0000d4
:104224005d1800000404000004080000003c0000c5
:104234007e7e0000180000003c7e00007e0000002e
:10424400005d00007e7e0000001000007e7e000005
:104254001c000000001c00005e7e00001000000036
:104264000c100000140400005d7e00007e180000a5
:10427400083c00007e5e0000000000005d7e00003f
:104284005e000000107e00007e1c000000000000a4
:104294001c5e00007e140000043d00007e7e0000d1
:1042a400145e00007e7e00007e7e00007e7e0000a4
:1042b4005d000000005d00007e7e00000410000030
:1042c4007e7e00003c000000001c00007e7e00009a
:1042d4007e7e00005e7e00007e1800003c7e0000b2
:1042e4007e7e00007e7e00007e3c00000000000018
:1042f4005d7e00007e040000147e00007e3c000011
:10430400000000001c5d00007e5d00007e5e000079
:104314007e7e0000181c00005d3d00003d5d000035
:104324005e3c00001c000000003d00005d3d0000fc
:10433400041000003d3d00003c000000001c000093
:10434400141400007e5d00005d3d00005d1000005f
:104354000d0e000008e3000000e3000000e300008d
:10436400e3e30000e3e3000000e30000e3e3000014
:10437400e3e3000000f2000000e30000e3e30000d8
:1043840000f2000000e30000e3e30000e3000000ab
:10439400f20000000000000000000000f200000035
:1043a400e3e30000e3e3000000000000000000007d
:1043b400000000000000000000e30000e3e3000050
:1043c400e3000000fcfc00000000000000fc000012
:1043d400fc000000e3e30000e3e300000000000051
:1043e40000000000f20000000000000000e30000f4
:1043f400e3e30000e3e30000006d00006d00000053
:104404006d6d000000e30000e3e30000e3e300005f
:10441400e3e30000000000000000000000e30000ef
:10442400e3e30000e3e30000e3e30000e300000053
:10443400ffff0000ff000000e3e30000e3e30000ef
:10444400e3e30000e300000000ff0000ffff0000c2
:1044540000000000e300000000000000e3e30000af
:104464000000000000ff00000000000000e3000066
:1044740000e3000000e30000e3000000000000008f
:104484000000000000000000e3e30000e30000007f
:10449400e3e3000000000000000000000000000052
:1044a400000000000000000000e30000e3e300005f
:1044b40000000000e300000000e30000e3e300006c
:1044c400e3e30000e30d00000e080000e300000039
:1044d400e3000000e3e30000e3e30000e300000086
:1044e400e3e30000e3e30000e3000000f200000067
:1044f400e3e30000e3000000f2000000e3e3000057
:10450400e3e3000000f200000000000000000000ef
:1045140000f2000000e30000e3e30000e300000019
:104524000000000000000000000000000000000087
:10453400e3e30000e3e3000000fc0000fc000000f3
:1045440000000000fcfc000000e30000e3e30000c6
:10455400e30000000000000000f200000000000082
:1045640000000000e3e30000e3e30000e3000000d8
:104574006d6d0000006d00006d000000e3e30000bd
:10458400e3e30000e3e30000e300000000000000b8
:1045940000000000e3e30000e300000000e300008b
:1045a400e3e3000000e30000e3e3000000e30000b5
:1045b400e3e30000e3000000e3e300000000000088
:1045c400e3e30000e300000000e30000e3e3000095
:1045d40000e30000e300000000000000e30000002e
:1045e40000000000e3e30000e3000000e3e3000058
:1045f40000000000000000000000000000e30000d4
:10460400e3e3000000e30000e3000000000000001a
:104614000000000000000000000000000000000096
:10462400e3e30000e300000000e3000000000000fa
:10463400e3e30000e3e30000e3e300000d0e000009
:1046440008e3000000e3000000e30000e3e30000ef
:10465400e3e3000000e30000e3e30000e3e3000021
:1046640000f2000000e30000e3e3000000f20000b9
:1046740000e30000e3e30000e3000000f2000000b8
:104684000000000000000000f2000000e3e300006e
:10469400e3e3000000000000000000000000000050
:1046a4000000000000e30000e3e30000e30000007a
:1046b400fcfc00000000000000fc0000fc00000006
:1046c400e3e30000e3e3000000000000000000005a
:1046d400f20000000000000000e30000e3e300003b
:1046e400e3e30000006d00006d0000006d6d00004c
:1046f40000e30000e3e3000000e30000e3e3000064
:10470400000000000000000000e30000e3e30000fc
:10471400e3000000e3e30000e3000000e3e3000043
:10472400e3000000e3e30000e3e3000000e3000033
:10473400e300000000e30000e3e3000000000000e9
:10474400e3e30000e3000000e3e3000000000000f6
:1047540000e300000000000000e30000e3e30000c9
:1047640000e30000e300000000000000000000007f
:1047740000000000e3e30000e3000000e3e30000c6
:104784000000000000000000000000000000000025
:104794000000000000e30000e3e30000000000006c
:1047a400e300000000e30000e3e30000e3e30000b3
:1047b400e30d00000e080000e3000000e300000029
:1047c400e3e30000e3e30000e3000000e3e30000b0
:1047d400e3e30000e3000000f2000000e3e3000074
:1047e400e3000000f2000000e3e30000e3e3000064
:1047f40000f20000000000000000000000f20000d1
:1048040000e30000e3e30000e30000000000000018
:10481400000000000000000000000000e3e30000ce
:10482400e3e3000000fc0000fc00000000000000c6
:10483400fcfc000000e30000e3e30000e3000000f0
:104844000000000000f20000000000000000000072
:10485400e3e30000e3e30000e30000006d6d00000b
:10486400006d00006d000000e3e30000e3e30000de
:10487400e3e30000e300000000000000000000008b
:10488400e3e30000e3e3000000000000e3e30000d2
:1048940000e30000e3e3000000e30000e3e30000c2
:1048a400e3000000e3e3000000000000e3e3000095
:1048b400e300000000e30000e3e3000000e3000085
:1048c400e300000000000000e3000000000000001e
:1048d400e3e30000e3000000e3e300000000000065
:1048e400000000000000000000e30000e3e300001b
:1048f40000e30000e30000000000000000000000ee
:10490400000000000000000000000000e3e30000dd
:10491400e300000000e3000000000000e3e3000007
:10492400e3e30000e3e300004f4f000008e300006e
:1049340000e00000e0e00000e1e10000e1e100004f
:10494400e2e20000e2e20000e3e30000e3e300004f
:10495400e3c30000c3c30000a3a3000083830000db
:10496400838300006363000063430000434300004b
:1049740043430000432300002323000023230000bb
:10498400232300002323000023230000232300000b
:1049940043430000434300004343000063630000bb
:1049a400638300008383000083a30000a3c300008b
:1049b400c3c30000e3e30000e3e30000e3e200001c
:1049c400e2e20000e2e10000e1e10000e1e00000d9
:1049d400e0e00000e1e10000e1e10000e2e20000cb
:1049e400e2e30000e3e30000e3e30000c3c30000ec
:1049f400c3a30000a383000083830000636300005b
:104a040063430000434300004323000023230000ca
:104a140023230000232300002323000003030000ba
:104a240003030000032300002323000023230000ca
:104a340023230000232300004343000043430000da
:104a4400636300006383000083830000a3a300006a
:104a5400c3c30000c3e30000e3e30000e3e200009b
:104a6400e2e20000e2e10000e1e10000e1e0000038
:104a7400e1e10000e1e10000e2e20000e2e3000025
:104a8400e3e30000e3e30000c3c30000c3a30000aa
:104a9400a3830000836300006363000043430000ba
:104aa400432300002323000023230000030300000a
:104ab40003030000030300000303000003030000da
:104ac40003030000030300000303000003030000ca
:104ad400032300002323000023230000434300009a
:104ae400436300006363000083830000a3a300000a
:104af400c3c30000c3e30000e3e30000e3e30000fa
:104b0400e2e20000e2e10000e1e10000e1e1000096
:104b1400e1e10000e2e20000e2e30000e3e3000080
:104b2400e3c30000c3c30000a3a300008383000009
:104b34008363000063430000434300002323000019
:104b44002323000003030000030300000303000009
:104b54000303000003030000030300000303000039
:104b64000303000003030000030300000303000029
:104b74000303000003230000232300002343000059
:104b840043430000636300008383000083a30000a9
:104b9400a3c30000c3c30000e3e30000e3e3000099
:104ba400e2e20000e2e10000e1e10000e1e10000f6
:104bb400e2e20000e2e30000e3e30000e3c30000fc
:104bc400c3c30000a3a30000838300006363000049
:104bd4004343000043230000232300000303000099
:104be40003030000030300000303000007070000a1
:104bf4000707000007070000070700000707000079
:104c04000707000007070000070300000303000074
:104c14000303000003030000032300002323000018
:104c240043430000436300006383000083a3000048
:104c3400a3c30000c3c30000e3e30000e3e30000f8
:104c4400e2e20000e2e10000e1e10000e2e2000053
:104c5400e2e30000e3e30000e3c30000c3c3000099
:104c6400a3830000838300006343000043430000e8
:104c740023230000230300000303000003030000b8
:104c84000307000007070000070700000b0b0000e4
:104c94000b0b00000b0b00000b0b00000b0b0000b8
:104ca4000b0b00000b0700000707000007070000bc
:104cb4000303000003030000030300002323000098
:104cc4002343000043430000638300008383000008
:104cd400a3c30000c3c30000e3e30000e3e3000058
:104ce400e2e20000e2e10000e2e20000e2e30000b0
:104cf400e3e30000e3c30000c3a30000a3830000b8
:104d04008363000063430000432300002323000067
:104d1400030300000303000003070000070700006b
:104d2400070b00000b0b00000b0b00000b0f000027
:104d34000f0f00000f0f00000f0f00000f0f0000f7
:104d44000b0b00000b0b00000b0b0000070700000f
:104d5400070700000303000003030000032300000f
:104d640023230000434300006363000083830000a7
:104d7400a3a30000c3c30000e3e30000e3e30000d7
:104d8400e2e20000e2e20000e2e30000e3e300000c
:104d9400e3c30000c3a30000a383000083630000f7
:104da40063430000432300002323000003030000a7
:104db4000303000007070000070b00000b0b0000b3
:104dc4000b0f00000f0f00000f130000131300005f
:104dd4001313000013130000131300001313000037
:104de4000f0f00000f0f00000b0b00000b0b000057
:104df400070700000703000003030000032300006b
:104e04002323000043430000636300008383000006
:104e1400a3a30000c3c30000e3e30000e3e3000036
:104e2400e2e20000e2e30000e3e30000e3c3000089
:104e3400c3a30000a3830000836300004343000076
:104e440043230000230300000303000003070000c2
:104e5400070700000b0b00000b0f00000f0f0000f2
:104e6400131300001313000013170000171700009a
:104e7400171700001717000017170000131300007e
:104e840013130000130f00000f0f00000b0b0000a2
:104e94000b070000070700000303000003030000e2
:104ea4002323000043430000436300008383000086
:104eb400a3a30000c3c30000e3e30000e3e3000096
:104ec400e2e20000e3e30000e3c30000c3a3000048
:104ed400a3830000836300004343000023230000f6
:104ee400230300000303000003070000070b000076
:104ef4000b0b00000f0f000013130000131700002a
:104f04001717000017170000171b00001b1b0000d9
:104f14001b1b00001b1b00001717000017170000c5
:104f24001717000013130000130f00000f0b0000ed
:104f34000b0b00000707000003030000030300003d
:104f44002323000023430000436300008383000005
:104f5400a3a30000c3c30000e3e30000e3e20000f6
:104f6400e3e30000e3c30000c3a30000a383000045
:104f74008363000043430000232300000303000075
:104f840003030000070700000b0b00000b0f0000d9
:104f94000f1300001317000017170000171b000061
:104fa4001b1b00001b1b00001b1b00001b1b000025
:104fb4001b1b00001b1b00001b1b00001b1b000015
:104fc4001717000017170000131300000f0f00003d
:104fd4000b0b00000b070000070300000303000095
:104fe4000323000023430000436300008383000085
:104ff400a3a30000c3c30000e3e30000e3e3000055
:10500400e3c30000c3c30000a38300008363000064
:1050140043430000232300000303000003030000b4
:10502400070700000b0b00000f0f00001313000014
:1050340017170000171b00001b1b00001b1f00009c
:105044001f1f00001f1f00001f1f00001f1f000064
:105054001f1f00001f1f00001f1f00001b1b00005c
:105064001b1b00001717000017130000130f00008c
:105074000f0b00000b0700000703000003030000f0
:1050840003230000234300004363000083830000e4
:10509400a3c30000c3c30000e3e30000e3e3000094
:1050a400c3c30000a38300008363000043430000e4
:1050b400232300000303000003030000070700008c
:1050c4000b0b00000f13000013170000171700004c
:1050d4001b1b00001b1f00001f1f00001f1f0000e0
:1050e4001f1f00001f1f00001f1f00001f1f0000c4
:1050f4001f1f00001f1f00001f1f00001f1f0000b4
:105104001b1b00001b1700001717000013130000df
:105114000f0b00000b07000007030000030300004f
:105124000323000023430000436300008383000043
:10513400a3c30000c3e30000e3e30000c3c3000013
:10514400a383000083630000434300002323000083
:105154000303000003070000070b00000b0f00000f
:105164000f13000013170000171b00001b1b000087
:105174001f1f00001f1f00001f1f00001f1f000033
:105184001f1f00001f1f00001f1f00001f1f000023
:105194001f1f00001f1f00001f1f00001f1f000013
:1051a4001f1b00001b1b0000171700001313000037
:1051b4000f0f00000b0b00000707000003030000a3
:1051c40003230000234300004363000083830000a3
:1051d400a3c30000c3e30000c3c30000a3a30000f3
:1051e40083630000634300002323000003030000e3
:1051f40003070000070b00000b0f00000f13000053
:10520400171700001b1b00001b1f00001f1f0000be
:105214001f1f00001f1f00001f1e00001e1e000095
:105224001e1e00001e1e00001e1e00001e1e00008a
:105234001e1e00001f1f00001f1f00001f1f000074
:105244001f1f00001b1b00001b170000171300008a
:105254000f0f00000b0b0000070700000303000002
:1052640003230000234300006363000083a30000c2
:10527400a3c30000e3c30000c3a3000083830000b2
:1052840063430000432300000303000003070000fe
:10529400070b00000b0f000013130000171700008a
:1052a4001b1b00001f1f00001f1f00001f1f00000a
:1052b4001f1e00001e1e00001e1e00001e1e0000f9
:1052c4001e1e00001e1e00001e1e00001e1e0000ea
:1052d4001e1e00001e1e00001f1f00001f1f0000d6
:1052e4001f1f00001f1b00001b17000017130000e6
:1052f400130f00000b0b000007070000030300005e
:1053040003230000434300006383000083a30000e1
:10531400c3c30000c3a300008383000063430000f1
:10532400432300002303000003030000070b0000d5
:105334000b0f000013130000171700001b1b0000c5
:105344001f1f00001f1f00001f1f00001e1e000063
:105354001e1e00001e1e00001e1e00001e1e000059
:105364001e1e00001e1e00001e1e00001e1e000049
:105374001e1e00001e1e00001e1f00001f1f000036
:105384001f1f00001f1b00001b1700001713000045
:10539400130f00000b0b00000703000003030000c1
:1053a40023230000434300006383000083a3000021
:1053b400c3a30000a3830000634300004323000051
:1053c4002303000003030000070b00000b0f000081
:1053d40013130000171b00001b1f00001f1f0000f9
:1053e4001f1f00001f1e00001e1e00001e1e0000c6
:1053f4001e1e00001e1d00001d1d00001d1d0000be
:105404001d1d00001d1d00001d1d00001e1e0000ae
:105414001e1e00001e1e00001e1e00001f1f000096
:105424001f1f00001f1f00001b1b0000171300009c
:10543400130f00000b0b0000070300000303000020
:10544400232300004343000063830000a3c3000040
:10545400a3830000836300004323000023030000b0
:1054640003030000070700000b0f000013130000e4
:10547400171b00001b1f00001f1f00001f1f000040
:105484001e1e00001e1e00001e1e00001e1d000029
:105494001d1d00001d1d00001d1d00001d1d000020
:1054a4001d1d00001d1d00001d1d00001d1d000010
:1054b4001e1e00001e1e00001e1e00001e1f0000f7
:1054c4001f1f00001f1f00001b1b000017130000fc
:1054d400130f00000b070000070300000303000084
:1054e400232300004363000083830000a3a3000080
:1054f40083630000434300002323000003030000f0
:10550400070700000b0f00000f130000171b00001b
:105514001b1f00001f1f00001f1f00001e1e000095
:105524001e1e00001e1d00001d1d00001d1d00008c
:105534001d1d00001d1d00001d1d00001d1d00007f
:105544001d1d00001d1d00001d1d00001d1d00006f
:105554001d1d00001e1e00001e1e00001e1f000058
:105564001f1f00001f1f00001b1b0000171300005b
:105574000f0f00000b0700000703000003230000c7
:10558400234300004363000083a3000083630000ff
:10559400634300002323000003030000030700000b
:1055a4000b0b00000f130000171700001b1f000057
:1055b4001f1f00001f1f00001e1e00001e1e0000f3
:1055c4001e1d00001d1d00001d1d00001d1c0000ef
:1055d4001c1c00001c1c00001c1c00001c1c0000e7
:1055e4001c1c00001c1c00001d1d00001d1d0000d3
:1055f4001d1d00001e1e00001e1e00001e1f0000b8
:105604001f1f00001f1f00001b17000017130000be
:105614000f0b00000b07000003030000032300002e
:10562400234300006363000083830000634300009e
:105634004323000003030000030700000b0b0000da
:105644000f130000171700001b1f00001f1f00008e
:105654001f1f00001e1e00001e1e00001d1d000056
:105664001d1d00001d1d00001c1c00001c1c000052
:105674001c1c00001c1c00001c1c00001c1c000046
:105684001c1c00001c1c00001c1d00001d1d000033
:105694001d1d00001d1e00001e1e00001e1f000018
:1056a4001f1f00001f1f00001b170000171300001e
:1056b4000f0b00000b07000003030000032300008e
:1056c400434300006383000063630000432300003e
:1056d4002303000003070000070b00000f13000062
:1056e400131700001b1b00001f1f00001f1f0000da
:1056f4001e1e00001e1e00001d1d00001d1d0000ba
:105704001d1c00001c1c00001c1c00001c1c0000b4
:105714001c1c00001c1c00001c1c00001c1c0000a5
:105724001c1c00001c1c00001c1c00001d1d000093
:105734001d1d00001d1e00001e1e00001e1f000077
:105744001f1f00001f1b00001b1700001313000085
:105754000f0b0000070700000303000023230000d1
:1057640043630000836300004343000023030000fd
:1057740003030000070b00000b0f000013170000c9
:105784001b1b00001f1f00001f1f00001e1e000027
:105794001e1e00001d1d00001d1d00001c1c00001d
:1057a4001c1c00001c1c00001c1c00003c3c0000d5
:1057b4003c3c00003c3c00003c3c00003c1c000025
:1057c4001c1c00001c1c00001c1c00001c1d0000f4
:1057d4001d1d00001d1e00001e1e00001e1f0000d7
:1057e4001f1f00001f1b00001b170000130f0000e9
:1057f4000b0b000007030000030300002343000019
:1058040043830000634300002323000003030000dc
:10581400070700000b0f000013170000171b000000
:105824001f1f00001f1f00001e1e00001e1e000080
:105834001d1d00001d1d00001c1c00001c1c000080
:105844001c1c00003c3c00003c3c00003c5c000094
:105854005c5c00005c5c00003c3c00003c3c0000e4
:105864003c1c00001c1c00001c1c00001c1d000033
:105874001d1d00001d1e00001e1e00001e1f000036
:105884001f1f00001f1b000017170000130f00004c
:105894000b0700000703000003230000234300005c
:1058a40063430000432300000303000003070000d8
:1058b4000b0b00000f130000171b00001b1f000040
:1058c4001f1f00001e1e00001e1e00001d1d0000e4
:1058d4001d1d00001c1c00001c1c00001c3c0000c2
:1058e4003c3c00005c5c00005c5c00005c5c000014
:1058f4005c5c00005c5c00005c5c00005c3c0000e4
:105904003c3c00001c1c00001c1c00001c1d000072
:105914001d1d00001d1e00001e1e00001e1f000095
:105924001f1f00001b1b0000171300000f0b0000bb
:105934000b0700000303000003230000436300007f
:10594400432300002303000003070000070b0000ab
:105954000f130000171700001b1f00001f1f00007b
:105964001f1e00001e1e00001d1d00001d1d000046
:105974001c1c00001c1c00001c3c00003c5c0000c3
:105984005c5c00007c7c00007c7c00007c7c000073
:105994007c7c00007c7c00007c5c00005c5c000083
:1059a4003c3c00001c1c00001c1c00001c1d0000d2
:1059b4001d1d00001d1e00001e1e00001f1f0000f4
:1059c4001f1f00001b170000171300000f0b00001f
:1059d40007070000030300002323000063430000c3
:1059e4002323000003030000070b00000b0f00003b
:1059f400131700001b1b00001f1f00001f1e0000c8
:105a04001e1e00001e1d00001d1d00001c1c0000a9
:105a14001c1c00001c3c00003c5c00005c7c000082
:105a24007c7c00009c9c00009c9c00009c9c0000d2
:105a34009c9c00009c7c00007c7c00005c5c000062
:105a44003c3c00001c1c00001c1c00001c1d000031
:105a54001d1d00001e1e00001e1e00001f1f000052
:105a64001f1b00001b170000130f00000b0b00008e
:105a74000703000003230000234300004323000026
:105a840003030000030700000b0f000013170000be
:105a9400171b00001f1f00001f1f00001e1e000018
:105aa4001e1d00001d1d00001c1c00001c1c00000d
:105ab4001c3c00003c5c00005c7c00007c9c000002
