:020000040000fa
:080000000002040000000000f2
:020000040000fa
:100008006203000062030000620300006203000054
:100018006203000062030000620300006203000044
:10002800620300006203000062030000dc180000a5
:10003800620300006203000062030000141900005c
:10004800620300006203000062030000d2020000a5
:100058000003000062030000620300006203000066
:1000680062030000620300006203000062030000f4
:1000780062030000620300006203000062030000e4
:1000880062030000620300006203000062030000d4
:1000980062030000620300006203000062030000c4
:1000a80062030000620300006203000062030000b4
:1000b80062030000620300006203000062030000a4
:1000c8006203000062030000620300006203000094
:1000d8006203000062030000620300006203000084
:1000e8006203000062030000620300006203000074
:1000f8006203000062030000620300006203000064
:100108006203000062030000620300006203000053
:100118006203000062030000620300006203000043
:100128006203000062030000620300006203000033
:100138006203000062030000620300006203000023
:100148006203000062030000620300006203000013
:100158006203000062030000620300006203000003
:1001680062030000620300006203000062030000f3
:1001780062030000620300006203000062030000e3
:1001880062030000620300006203000062030000d3
:1001980062030000620300006203000062030000c3
:1001a80062030000620300006203000062030000b3
:1001b80062030000620300006203000062030000a3
:1001c8006203000062030000620300006203000093
:1001d8006203000062030000620300006203000083
:1001e8006203000062030000620300006203000073
:0801f800620300006203000035
:020000040000fa
:100208006203000062030000620300006203000052
:100218006203000062030000620300006203000042
:10022800620300006203000062030000dc180000a3
:10023800620300006203000062030000141900005a
:10024800620300006203000062030000d2020000a3
:100258000003000062030000620300006203000064
:1002680062030000620300006203000062030000f2
:1002780062030000620300006203000062030000e2
:1002880062030000620300006203000062030000d2
:1002980062030000620300006203000062030000c2
:1002a80062030000620300006203000062030000b2
:1002b80062030000620300006203000062030000a2
:1002c8006203000062030000620300006203000092
:1002d8006203000062030000620300006203000082
:1002e8006203000062030000620300006203000072
:1002f8006203000062030000620300006203000062
:100308006203000062030000620300006203000051
:100318006203000062030000620300006203000041
:100328006203000062030000620300006203000031
:100338006203000062030000620300006203000021
:100348006203000062030000620300006203000011
:100358006203000062030000620300006203000001
:1003680062030000620300006203000062030000f1
:1003780062030000620300006203000062030000e1
:1003880062030000620300006203000062030000d1
:1003980062030000620300006203000062030000c1
:1003a80062030000620300006203000062030000b1
:1003b80062030000620300006203000062030000a1
:1003c8006203000062030000620300006203000091
:1003d8006203000062030000620300006203000081
:1003e8006203000062030000620300006203000071
:0803f800620300006203000033
:020000040000fa
:10040000afd020008efe24000e0188000000000006
:10041000000020000000e000020032000001200087
:10042000200288000c0007006093220001002000d9
:100430000f000700000020000000e0000200320072
:100440000000020000000000901b020000000000fd
:100450000040da000000fe00001020000000e00074
:1004600002003200002020009001880000000600f9
:10047000a1028800800078000000eb001a0037001d
:10048000e280400054a0b4009101ba00e280400034
:1004900054a0b4009102ba00e280400054a0b4001d
:1004a0000002eb00472bde00f507b200a601880032
:1004b000602ce10008003a000049eb000201e8006e
:1004c000020039003420ec0002f0a0008301e900b2
:1004d000f9ff3e00040037006128e100010032000e
:1004e0000082eb00040007001101ba000200e000e6
:1004f000e3ff3a000000060004d0a300e20f490029
:100500001c003900810278003549ba000201e80078
:10051000020039003420ec0002f0a0008301e90061
:100520000f0032002549ba000201e800020039003c
:100530003420ec0002f0a0008301e9000800320042
:100540000400e0000600320015c9ba000201e8000c
:10055000020039003420ec0002f0a0008301e90021
:100560008180e80054a0b4000300e000e2ff3a00fc
:10057000000006009102ba00055978008301e900e5
:10058000f7ff3200c82ade00055978008301e90030
:10059000f3ff32000400e000f1ff320011d9ba008d
:1005a000eeff3700841f78000200fa008560a90082
:1005b0001411800062026200e00f5200020032005b
:1005c0002222a9000b00370014118000640262008f
:1005d000e00f520007003a0002003700341180009b
:1005e000044f78001411800061026200e00f520095
:1005f000faff3a000080fa004f027800004006003f
:10060000841f78000200fa00f45e8000040f780076
:100610001e027800241188008580a9000080fa005d
:100620004f027800004006000000fa0042c7a9000f
:100630002535800004fc2f00048262007400b300a2
:10064000243588003536800004fc2f0004826200c7
:100650003400b3003436880042c7a800f4192000e3
:10066000441188000002eb00041188002062a800f9
:100670000002eb001411880021e2a8002342a80028
:100680008560a9009560a800950580000470200091
:1006900005027200940588000080fa000000060040
:1006a0000400fa00000f7800110798001e0278007d
:1006b000f45e88000002eb00040078000080fa007d
:1006c000000006000040da000000fe0003f0a20077
:1006d000889fbe008a9fbe008c1f78000001070023
:1006e000070133006450e1004f0032006420e10054
:1006f0005200320003826c0007003b000905d00065
:100700000306d000820f54000c065d000200390081
:1007100002003200890178000306780085825500c6
:1007200004003d000003fd008103fd008502ea0096
:100730008b854200840f720002003b0060001000b5
:10074000e08018006011b8000005eb007a28e10095
:100750000a00390006007800c75ddd00f707b20027
:10076000878075002d003700828171000a017800b2
:10077000610560008180d1000080d3008502e9001e
:10078000f9ff3b00060440008784480002003b005c
:1007900060041400e0841c000988a30007003200f4
:1007a0008a81710082817100610164008904d10035
:1007b0000884d3008b05e800170037000978a300f0
:1007c00013003a000b00e000130034008b05e90031
:1007d0000804440089844c000a4474000978a3008a
:1007e0000d003a000b00e000070034008b05e90023
:1007f0000804440089844c0001003a000b002000ea
:100800000978a300f7ff32000001eb000200370077
:10081000828171000a017800760007000cf0a700c1
:1008200001f0a000bf0037006420e10002003a00a0
:10083000838f6c00bf0033000801be000200be00c1
:10084000b80037000081eb00f1003700889fbe0040
:100850008a9fbe008c1f7800a1000700a80033000b
:1008600003866c006450e1002e0032006420e10039
:10087000330032006150e1002f0032006120e100be
:100880003100320085855500eb07b00009002000db
:1008900008042000050037000804440089844c0047
:1008a0000a0031000603430087834b000001530018
:1008b00081815b00f8ff33000203be000800a00046
:1008c0000804440089844c00f6ff3900c639dd0075
:1008d0008301730001003200130020008904d1005d
:1008e0000884d3000998a300050032000800a7007f
:1008f0000300a0008904d1000884d3008b05e80020
:100900008904d1000884d3000001eb000281d200e9
:100910003800070001f0a1000cf0a70001f0a000d2
:10092000800037006420e100820032000801be0030
:100930000200be00f7ff37006120e1007d003200b9
:100940006000b800f3ff37000000200001f8270026
:10095000f0ff3700f4ff2f001b0137000001be003d
:100960004a0007000470a70003f0a1006509b10068
:10097000160032000d0035006828e1000600350041
:10098000f0ff2f00f1ff27000300e00013003b0001
:1009900001002800000005000000400081804800a0
:1009a0008502e900fcff3a0008003700f88f42009a
:1009b00002003c008000eb00000005008100d10037
:1009c0000080d3008502e800fcff3a000300e0004d
:1009d00002003b0060001000e080180000000600ec
:1009e0004f89de0082017800140137006011b800e1
:1009f0002201370081002000618055000b003d007e
:100a00000b00200061fe2f000100e1001d003400fa
:100a100082817100610164008904d1000884d300df
:100a20000000e800faff3a00710020006100640055
:100a300003007000020060000900320061044400fd
:100a4000e0844c000988a500050032008b05e80011
:100a50006808e10002003a008904d1000884d3004c
:100a6000f20f20000258e10005003d00c75ddd00e7
:100a7000f907b200898075000800780000000600c0
:100a80000bf827008b00780000000500c70ade0085
:100a9000f107b200f50fb20008003200e1cf4200ca
:100aa000020032000170a00024000500810f7000d8
:100ab000010032000408050044000500810f7000a9
:100ac00002003a00140005008502e9000000400021
:100ad00081c04800fcff3b000170a000240005001d
:100ae0000004be00e9ff07000003be000405be00cd
:100af0000200be00e5ff0700844f750000000600fd
:100b00000200be006450e100050036006420e100f0
:100b1000020036000968a30001003a000800be0088
:100b20000160a0004f0678004f05be004f04be00d4
:100b300000000600f0ff2f00f1ff2700f9ff37004b
:100b4000889fbe008a9fbe008c1f7800e4ff0700cc
:100b5000ebff330003866c006450e1002400320098
:100b60006420e100270032006150e10022003200e1
:100b70006120e100210032008b854200eb07b100cb
:100b80000134b800003ab8000804420089844a00e1
:100b9000013ab8000030b8008880400009014a00de
:100ba0000400330000004000818048000201490039
:100bb0008b05e900c909dd008301700001003200e6
:100bc00013002000c814de004814dd004709de00d1
:100bd0001200b200c808de000884700085ff07001c
:100be00001f0a1000cf0a70001f0a000cdff37003c
:100bf0006120e100cfff32000801be000200be000c
:100c0000f7ff37006150e100fcff3a00c9ff3700f1
:100c1000889fbe008a9fbe008c9fbe008205780020
:100c20000004be0099ff07000800be006420e10038
:100c30000700390002003a00f1ff2700f0ff2f0003
:100c40000160a000120220001268880055003700e1
:100c50006120e10003003a000b00a70001f8230027
:100c60005000370001f0a10002002100936424002d
:100c7000700007000800be0004003500b2fd20002f
:100c8000930c2400ac0007000004be000005eb003c
:100c90000b00a6004f0dde0001f0a1000004be0015
:100ca00032982f0023ea2300a5ff07000001eb0084
:100cb00003f023000b00a70003f8230084fe0700c5
:100cc00026ff07000000a7000a00a20044ff07005b
:100cd0000b00e000030032000200200003f02300bc
:100ce0007afe070001f0a2000006be00020020000c
:100cf0009304240092ff07000801be0074fe070061
:100d0000809fbe000c00be0022a22a00d3a72300b1
:100d10008bff07004f01be006dfe07000004be0000
:100d200001f0a10002002000039823004100070009
:100d30000800be00190035000001be0080ff07005a
:100d40000006be00b2c52900e36223007cff070055
:100d500022222b00f3942b005dfe07000c01be0045
:100d600077ff0700e273280083c0230058fe0700c6
:100d70000c01be0072ff070042aa2a00a3e22b006a
:100d800053fe07000c01be006dff07000801be0006
:100d90006bff07000801be004dfe07000a00a70018
:100da00001f0a2004f06be004f05be004f04be007a
:100db000000006000001eb0095ff3700af000700c0
:100dc0000400be0000000600889fbe008a9fbe008f
:100dd000841f780042ff07004f00780011003300a5
:100de000f0ff2f00838f6c0006003b0004056500b8
:100df0000a00a7000800370009f0a6001000200034
:100e000008003700820f5400838f5c000300390014
:100e10001000200001003e000000200009f0a700a3
:100e20000000ea004f05be004f04be000000e000d5
:100e30000000060014002000e3ff3700881f780040
:100e4000030478000300e00007003d00600010008c
:100e5000e080180060011900e081190002003b00e9
:100e600001f02d00030037000400070008f0a70080
:100e700001f0a0004f04780000000600889fbe002b
:100e80008a9fbe000082700004027100048271001b
:100e9000260032000004be000200be006011b8004f
:100ea0006b092000950220000182cf000a00390062
:100eb0000541b1000082cf00070039000541b100b3
:100ec0000982cf00040039000541b1000882cf003b
:100ed000010039000541b100054252001200320004
:100ee0000a003b0082817100610164008100d10031
:100ef0000080d3008984d3000884d3008b05e800e8
:100f00000442e800f7ff3a000700370008044400f5
:100f100089844c0000004800818048008b05e9006e
:100f20000442e900f9ff3a00b2fe07004f05be0097
:100f30004f04be000000060004002000000037003f
:100f4000889fbe008a9fbe008c1f78004f26dd0060
:100f5000e3fe0700eafe33006120e10043003200b7
:100f60006250e10041003e003e0039006420e10093
:100f70003c003200058255000f003b000402e800ef
:100f800038003a00800f5300818f5b003500340039
:100f90000800be0003f0a10001f0a60003f0a000cd
:100fa0000cf0a700cafd0700defe37000603430071
:100fb00087834b000c4646000005530081855b008b
:100fc000020033000a03be000c00a0000402e90086
:100fd000f6ff3b00850578000602430087824b0040
:100fe00004003a006000b80009f0a70001f0a0007a
:100ff000ccfe37000002520081825a000704e00054
:10100000040033000603430087834b008b05e9008f
:10101000faff3700090578000604be000203be008f
:101020006011b80073fe0700e00f5200e08f5a0015
:101030000700350002003c000c08a3000400320049
:101040000601be0003f0a0000cf0a700a0fd070001
:101050000a85680001f0a1000af0a70001f0a000d5
:10106000b0fe37000800be00aefe370010022000c0
:101070000cf0a60010688800aefe37006022b800b1
:10108000060220000000d0008180d2000482d2003d
:101090008582d2000000a0000202520083825a0022
:1010a000030031000202420083824a000000a100d6
:1010b0000603e900f3ff3a000000060015c0b30084
:1010c0000100200084d0200020688800316888005a
:1010d000054a78000000060084d020008042eb0022
:1010e00094cf120002003a0010002000f3ff070026
:1010f0002068800031688000d2e62400631c240050
:10110000180007009403230005002000000242009d
:1011100081824a00246888003568880005007800cc
:1011200000f0a10000000600000278000000eb00c3
:101130000401e80084027800030020006103b80085
:101140000000e8008600410065437b00e04f53004b
:10115000faff3a000482ea0004804000cf80de00fb
:1011600000000600020ab900001bb9000200b80026
:0c117000810042008100430000000600e6
:020000040000fa
:10117c00000000000000000001010000010200005e
:10118c00020300000405000005060000070900002a
:10119c000a0b00000c0e00000f11000012140000ce
:1011ac0015170000191b00001d1f00002123000053
:1011bc00252800002a2c00002f31000034360000b6
:1011cc00393b00003e41000043460000494c000002
:1011dc004f520000555800005a5d00006164000039
:1011ec00676a00006d70000073760000797c000067
:1011fc0080830000868900008c8f0000929500008f
:10120c00989b00009ea20000a5a70000aaad0000bc
:10121c00b0b30000b6b90000bcbe0000c1c40000f1
:10122c00c6c90000cbce0000d0d30000d5d700003b
:10123c00dadc0000dee00000e2e40000e6e800009a
:10124c00eaeb0000edee0000f0f10000f3f400001a
:10125c00f5f60000f8f90000fafa0000fbfc0000bb
:10126c00fdfd0000fefe0000feff0000ffff000081
:10127c00ffff0000ffff0000fefe0000fefd00006f
:10128c00fdfc0000fbfa0000faf90000f8f6000083
:10129c00f5f40000f3f10000f0ee0000edeb0000bf
:1012ac00eae80000e6e40000e2e00000dedc00001a
:1012bc00dad70000d5d30000d0ce0000cbc9000097
:1012cc00c6c40000c1be0000bcb90000b6b300002b
:1012dc00b0ad0000aaa70000a5a200009e9b0000d4
:1012ec0098950000928f00008c8900008683000086
:1012fc00807c000079760000737000006d6a00003d
:10130c0067640000615d00005a58000055520000ef
:10131c004f4c000049460000434100003e3b00009a
:10132c0039360000343100002f2c00002a28000030
:10133c0025230000211f00001d1b000019170000b1
:10134c0015140000121100000f0e00000c0b000011
:10135c000a09000007060000050500000403000050
:10136c00020200000101000001000000000000006a
:020000040000fa
:10137c000000fa000000000001003700000000002f
:10138c003438800062026200e00f5200fbff3a002a
:10139c000082eb0004388800040025001438880013
:1013ac0000000000000000000100370000000000f9
:1013bc003438800062026200e00f5200fbff3a00fa
:1013cc000002eb0004388800041025001438880053
:1013dc0000000000000000000100370000000000c9
:1013ec003438800062026200e00f5200fbff3a00ca
:1013fc0084ff240004388800042025001438880059
:10140c000000000000000000010037000000000098
:10141c003438800062026200e00f5200fbff3a0099
:10142c000002eb0004388800048025001438880082
:10143c000000000000000000010037000000000068
:10144c003438800062026200e00f5200fbff3a0069
:10145c00041e20000438880054902500143888009d
:10146c00000000000080fa00000006000800fa00ee
:10147c00100798002107980032079800f466800046
:10148c00840278003e029000848f520002003100ea
:10149c00f4668000340798001e0090001fff0700c0
:1014ac000002be00040278006622b9000402780033
:1014bc00f504200004825200040f78009e0278008c
:1014cc002e029000848f5200030031001e0278001f
:1014dc0024079800030037000000000001003700cb
:1014ec00000000003438800062026200e00f5200fd
:1014fc00fbff3a002e029000cc22dd003e02900051
:10150c0005027200043888002e029000c422de000e
:10151c0004a02500050272001438880000000000a9
:10152c00110037000000000001003700000000002f
:10153c003438800062026200e00f5200f9ff3a007a
:10154c001e029000144278000402fb00043888004c
:10155c000430250014388800000000001e029000a2
:10156c000402e800140798001e0290001442780050
:10157c00e04f5200edff3a000080fa000000060038
:10158c000200fa00000f7800000000000100370094
:10159c00000000003438800062026200e00f52004c
:1015ac00fbff3a001e027800043888000460260015
:1015bc0014388800000000000080fa0000000600cb
:1015cc000400fa00008fbe0000000000010037008c
:1015dc00000000003438800061026200e00f52000d
:1015ec00fbff32001e02be00040278006438880043
:1015fc001e02be0004027800743888001e02be0071
:10160c0004027800843888001e02be0004027800b0
:10161c00943888000080fa00000006000400fa00ec
:10162c00008fbe001e02be0004027800c438880081
:10163c001e02be0004027800d43888000080fa0034
:10164c00000006000800fa00000f7800110798004f
:10165c0022079800330798000000000001003700b3
:10166c00000000003438800062026200e00f52007b
:10167c00fbff3a009e0290000405200004aab9006a
:10168c00040278001e024200043888001e02780012
:10169c006120b8001e029000050020000605200005
:1016ac0006abb900060378006021b900820378000c
:1016bc00070343008402780004052000042ab800c4
:1016cc0005034300860278000002420081824a0032
:1016dc00402ade00840278000430260005027200e5
:1016ec0014388800000000000000000001003700e2
:1016fc00000000003438800062026200e00f5200eb
:10170c00fbff3a002e029000cc22dd003e0290003e
:10171c0005027200043888002e029000c422de00fc
:10172c0004402600050272001438880000000000f6
:10173c000000000001003700000000003438800079
:10174c0062026200e00f5200fbff3a000406200028
:10175c00043888000470260014388800000000004b
:10176c000080fa00000006000800fa00008fbe009e
:10177c002207980033079800be0290000405200051
:10178c0004aab900040378002e0290006022b9006c
:10179c000402780004034300ae029000040520000c
:1017ac00042ab80005034300860278001e0f42008d
:1017bc005e974a001e027800043888001e02be00a4
:1017cc00402ade00840278000430260005027200f4
:1017dc001438880064002100043888000440260076
:1017ec0014388800000000000100370000000000e1
:1017fc003438800062026200e00f5200fbff3a00b6
:10180c000406200004388800047026001438880070
:10181c00000000000080fa00000006000000fa0042
:10182c000000eb0056ff0700031e2000f20420000e
:10183c008000eb000000eb0082ff07000080fa0044
:10184c00000006000c00fa00008fbe002207980072
:10185c003307980044079800550798001e02be00f5
:10186c0004027800643888001e02be00040278006e
:10187c00743888002e029000be029000040278009a
:10188c00843888002e029000be029000040278007a
:10189c0094388800000000000100370000000000b0
:1018ac003438800062026200e00f5200fbff3a0005
:1018bc000002eb000438880004102700143888005c
:1018cc0000000000000000000100370000000000d4
:1018dc003438800062026200e00f5200fbff3a00d5
:1018ec000002eb000438880004202700143888001c
:1018fc0000000000000000000100370000000000a4
:10190c003438800062026200e00f5200fbff3a00a4
:10191c004e029000043888004e029000de029000c7
:10192c00402ade0084027800044027000502720081
:10193c0014388800000000000080fa000000060047
:10194c000200fa00000f78001e0078000cff070060
:10195c00031e2000120020008000eb000000eb00b2
:10196c0038ff0700031e2000120020008000eb004f
:10197c00e004200033ff070004d02000144278005c
:10198c000482fb0084017800e20420008000eb005c
:10199c000000eb002bff070004d02000144278005d
:1019ac008482fb0004d02000144278000482fb00e7
:1019bc00061e20000402530085017800e20420007a
:1019cc00840078000000eb001eff07000080fa0086
:1019dc00000006000000fa000000eb00e8fe070023
:1019ec00031e2000120020008000eb00f0042000f9
:1019fc0014ff07000080fa00000006001000fa0037
:101a0c00889fbe008a9fbe008c9fbe000002eb0028
:101a1c00140798000002eb00040f7800e000370078
:101a2c001e0290006123b800e8cc210009102000b0
:101a3c000802be000402430085824b009601800020
:101a4c0004f0a4008582d2009501880094407800af
:101a5c00960188001e0278006123b8006a3ab9002a
:101a6c00040078006032b9000402780004004000e1
:101a7c0086027800a4002000042ab800050040006b
:101a8c00800278000680200006024200014a78009d
:101a9c001e0290000402e8006123b800eacc210089
:101aac000b1020000a02be000402430085824b008a
:101abc009601800004f0a4008582d2009501880074
:101acc0094407800960188001e0278006123b800cb
:101adc006a3ab900040078006032b9000402780058
:101aec000400400086027800a4002000042ab800fc
:101afc0005004000800278000680200006024200ab
:101b0c00114298001e0290000482e8006123b80084
:101b1c00eccc21000d1020000c02be00040243008e
:101b2c0085824b009601800004f0a4008582d200cf
:101b3c009501880094407800960188001e02780078
:101b4c006123b8006a3ab900040078006032b90029
:101b5c00040278000400400086027800a4002000f3
:101b6c00042ab8000500400080027800620342009d
:101b7c00e0834a000480200004024300014a7800fc
:101b8c001e029000630242006123b800e4cc2100e5
:101b9c002407980004102000340798002e029000af
:101bac00be0290000402430085824b009601800027
:101bbc0004f0a4008582d20095018800944078003e
:101bcc00960188001e0278006123b8006a3ab900b9
:101bdc00040078006032b900040278000400400070
:101bec0086027800a4002000042ab80005004000fa
:101bfc008002780062034200e0834a0004802000e7
:101c0c0004024300114298001e029000640242003c
:101c1c006123b800e4cc2100440798000410200094
:101c2c00540798004e029000de029000040243001c
:101c3c0085824b009601800004f0a4008582d200be
:101c4c009501880094407800960188001e02780067
:101c5c006123b8006a3ab900040078006032b90018
:101c6c00040278000400400086027800a4002000e2
:101c7c00042ab8000500400080027800640342008a
:101c8c00e0834a000480200004024300014a7800eb
:101c9c001e029000650242006123b800e4cc2100d2
:101cac006407980004102000740798006e029000de
:101cbc00fe0290000401430085814b001e02780057
:101ccc006123b8006a3ab900040078006032b900a8
:101cdc00040278000400400086027800a400200072
:101cec00042ab80005004000800278006603420018
:101cfc00e0834a000480200004024300028abe00f4
:101d0c001e0278006123b8006a3ab900040078001a
:101d1c006032b900040278000400400086027800aa
:101d2c00a4002000042ab8000500400080027800be
:101d3c000680200006024200144278008480fb00da
:101d4c001e0278006123b8006a3ab90004007800da
:101d5c006032b9000402780004004000860278006a
:101d6c00a4002000042ab80005004000800278007e
:101d7c000680200006024200144290000482fb0000
:101d8c00048ab90004027800840278001e029000d4
:101d9c000482420065024200140798001e0fe800fe
:101dac001e027800e70f52001dff36004f06be00e2
:101dbc004f05be004f04be000080fa000000060074
:101dcc000800fa00881f7800008fbe0022079800d8
:101ddc003307980018c0b3002e019000be0190008c
:101dec001e00be00d8fa070000027800e00f520077
:101dfc0001003d000044eb00e04f54000a003200ab
:101e0c002e019000be0190001e00be002cfa0700af
:101e1c000002be000400be00cdfa07000002be00a6
:101e2c0004027800090037001e01be002e0090004d
:101e3c00be00900022fa07000002be000400be00a3
:101e4c00c3fa07000002be00040278000400780008
:101e5c004f0478000080fa00000006002400fa000d
:101e6c00889fbe008a1f7800500f9800610f980061
:101e7c00625f980004179800151798000e109000d8
:101e8c009e109000c8fb07000002be0024079800bb
:101e9c00350798000e1090009e10900066fa07000f
:101eac000002be0044079800550798000002eb00a2
:101ebc00140798001e0137000002eb00040f780095
:101ecc00050137006e5a90000482fb00cfa2de00a1
:101edc006a2bb900060378006020b90080037800f3
:101eec000703430084027800a4002000042ab800f1
:101efc00050343008602780066024200e0824a0035
:101f0c0006802000060242001400be006e5a9000ab
:101f1c000482fb00cfa2de006a2bb9000603780016
:101f2c006021b90082037800070343008402780023
:101f3c00a4002000042ab8000503430086027800a0
:101f4c000680200006024200144278008482fb00c6
:101f5c001e02900004aab900040278001e0242007e
:101f6c000500200004024000858248009601800094
:101f7c0004f0a4008582d2009501880014427800f8
:101f8c00444f9800960188006e5a90000482fb0022
:101f9c00cfa2de006a2bb900060378006020b900de
:101fac00800378000703430084027800a40020001b
:101fbc00042ab8000503430086027800620242003e
:101fcc00e0824a0006802000060242009442900003
:101fdc004e4a900084cf5200b50032004e4a900019
:101fec008482fb008442800004824200040078005a
:101ffc0063fd07006e5a90000482fb00cfa2de0046
:10200c006a2bb900060378006020b90080037800c1
:10201c000703430084027800a4002000042ab800bf
:10202c000503430086027800068020000602420069
:10203c00144278000482fb000402d10004427800b0
:10204c000482fb001e021200740798006e5a900066
:10205c000482fb00cfa2de006a2bb90006037800d5
:10206c006020b900800378000703430084027800e5
:10207c00a4002000042ab80005034300860278005f
:10208c000680200006024200144290000482fb00ed
:10209c000402d100044278008482fb001e029000ee
:1020ac0004825200040f98007e029000cfa2de0042
:1020bc000400be0047fa07000002be004e0190006b
:1020cc00de0190000400be009afa07000002be0078
:1020dc000404be000e0a9000cfa2de000400be0075
:1020ec003cfa07000002be002e019000be019000d9
:1020fc000400be008ffa07000002be000401be00ff
:10210c000800be006ef907000002be000400be000d
:10211c000ffa07000002be00140f98007e02900018
:10212c00cfa2de000400be002afa07000002be00a7
:10213c002e019000be0190000400be007dfa070045
:10214c000002be000404be000e0a9000cfa2de0006
:10215c000400be001ffa07000002be004e019000f2
:10216c00de0190000400be0072fa07000002be00ff
:10217c000401be000800be0052f907000002be00b8
:10218c000400be00f2f907000002be00240f980004
:10219c001e0a9000cfa2de000400be000dfa07005c
:1021ac000004be007e029000cfa2de000400be0040
:1021bc0008fa07000002be000801be000400be00c1
:1021cc00fffe070000027800840278005e0a90008f
:1021dc0004824200340f980004d02000144278008e
:1021ec000485fb002e0a9000cfa2de000400be0086
:1021fc00f8f907000004be000e0a9000cfa2de0022
:10220c000400be00f3f907000002be000801be0086
:10221c000400be00eafe07000002780004d2b900f8
:10222c0004027800840278006e0a90000482420056
:10223c00440f9800be0a9000e4042000848f5200e2
:10224c001d003e003e0a9000e00f52001c003200c0
:10225c004e0a90006123b80004d02000144278008c
:10226c000482fb0005002000001e2000010020005d
:10227c000402500085825800840f5300858f5b0048
:10228c00110031004e0a9000e00f52001000320095
:10229c004e0a9000050020003e0b90000700200025
:1022ac000401be000600be002ffd07000900370028
:1022bc000000000007003700000000000500370098
:1022cc000000000003003700000000000100370090
:1022dc00000000001e0fe8006e5a90000482fb0004
:1022ec00cfa2de006a2bb900060378006020b9008b
:1022fc00800378000703430084027800a4002000c8
:10230c00042ab800050343008602780006802000ea
:10231c0006024200144278000482fb009e0f520019
:10232c00e8fe3e001e0290000402e800140798002c
:10233c006e5a90000482fb00cfa2de006a2bb9001b
:10234c00060378006020b90080037800070343007f
:10235c0084027800a4002000042ab800050343007e
:10236c00860278000680200006024200144290008b
:10237c008482fb001e029000848f5200cefe3e0031
:10238c004f0578004f04be000080fa0000000600e4
:10239c000200fa00000f78001e02780005002000f1
:1023ac000400be008ef907000002be0002fd2000f2
:1023bc00930424000400be00def907000002be00f6
:1023cc0002002000433324000400be001cf9070067
:1023dc000002be000400be000080fa0000000600ef
:1023ec001000fa00889fbe00008fbe0022079800e4
:1023fc003307980044079800550798006607980023
:10240c00770798002e019000be0190001e00be00c0
:10241c00abf807000002be000404be006e01900081
:10242c00fe0190003eb89700ceb89700a4f80700c4
:10243c000002be000401be000800be00bdf907008a
:10244c000002be000404be002e019000be019000ec
:10245c004e009000de00900099f807000002be00cc
:10246c000401be000800be00f5f807000002be0023
:10247c006e019000fe0190000400be0091f8070070
:10248c000002be000400be0031f907000002be00cd
:10249c0004027800040078004f04be000080fa00ab
:1024ac00000006001000fa00008fbe002207980002
:1024bc003307980044079800550798006607980062
:1024cc00770798000080fa00000006002e00fa0042
:1024dc00881f7800700f9800011798001217980049
:1024ec002317980034179800451798005617980032
:1024fc00671798007e0990008e1190003e10900096
:10250c00ce1090006ef807000002be0005f0a1008e
:10251c0014079800250798001e119000ae1190002a
:10252c005e109000ee10900065f807000002be00ef
:10253c0005f0a100340798004507980018c0b300b7
:10254c003e019000ce0190001e009000ae00900065
:10255c00fdf8070000027800e00f520001003c007b
:10256c000044eb00e04f5400030032001e029000c8
:10257c00ae029000020037003e029000ce029000a6
:10258c0054079800650798007e0990008e11900002
:10259c003e109000ce10900049f807000002be00db
:1025ac005e019000ee0190000400be00a4f807004c
:1025bc000002be0074079800050f98001e119000d1
:1025cc00ae1190005e109000ee1090003cf80700e9
:1025dc000002be005e019000ee0190000400be00ff
:1025ec0097f807000002be00140f9800250f980002
:1025fc000002eb00040f7800390037007e019000d8
:10260c008e0990007e0890008e1090002df8070027
:10261c000002be00740f9800051798007e08900009
:10262c008e109000caf807000002be000402780069
:10263c00cfa2de00340f9800450f98001e099000c1
:10264c00ae0990001e109000ae1090001df807000f
:10265c000002be0014179800251798001e10900059
:10266c00ae109000baf807000002be000402780019
:10267c00cfa2de00540f9800650f98003e0b90001f
:10268c00ce0b9000f404200005002000840f5300b2
:10269c00858f5b0011003e005e0b9000ee0b9000ee
:1026ac00f41d200005002000840f5300858f5b0073
:1026bc000a003e0030002000b1fb07005e0a9000cb
:1026cc00ee0a900066024200e0824a000401be005d
:1026dc003e089000ce08900023fc07001e0fe80077
:1026ec005e009000ee00900099f807000002be001a
:1026fc00040278009e0f5200c0ff3e004f04780089
:10270c000080fa00000006007200fa00889fbe00ec
:10271c00303798004137980052379800633798004b
:10272c0074379800053f980092ff20009304240012
:10273c003e309000ce309000fef807000002be0044
:10274c0002002000433324000400be003cf80700c4
:10275c000002be00140798002507980092ff200085
:10276c00930424005e309000ee309000f1f80700e6
:10277c000002be0002002000433324000400be000f
:10278c002ff807000002be00340798004507980098
:10279c0092ff2000930424007e3090008e3890002d
:1027ac00e4f807000002be000200200043332400be
:1027bc000400be0022f807000002be005407980077
:1027cc00650798001e009000ae00900076f9070097
:1027dc000002be0074079800050f98003e009000a0
:1027ec00ce00900070f907000002be00140f980094
:1027fc00250f98005e009000ee0090006af907002b
:10280c000002be00340f9800450f98001e00900087
:10281c00ae00900008f807000002be00540f9800ac
:10282c00650f98003e009000ce00900002f8070063
:10283c000002be00740f9800051798005e0090000f
:10284c00ee009000fcf707000002be001417980081
:10285c00251798001e119000ae1190005e08900094
:10286c00ee089000b3f807000002be000404be009e
:10287c001e099000ae0990007e0090008e0890001a
:10288c00acf807000002be003e099000ce09900093
:10289c000400be00a7f807000002be000401be0041
:1028ac000800be0087f707000002be00341798002e
:1028bc00451798005e0a9000ee0a900005f0a20001
:1028cc003e099000ce0990000400be0099f8070064
:1028dc000002be000404be007e0190008e09900030
:1028ec001e109000ae10900092f807000002be007f
:1028fc001e099000ae0990000400be008df8070080
:10290c000002be000401be000800be006df7070007
:10291c000002be00341f9800451f98007e019000f5
:10292c008e0990007e0890008e10900081f80700b0
:10293c000002be0034279800452798003e099000fd
:10294c00ce0990007e0890008e10900079f8070058
:10295c000002be0054179800651798001e119000d5
:10296c00ae1190007e0890008e10900071f8070058
:10297c000002be00541f9800651f98001e0a9000ac
:10298c00ae0a900005f0a200542798006527980025
:10299c001e129000ae12900005f0a2007e01900075
:1029ac008e0990000400be0062f807000002be0011
:1029bc000404be001e099000ae0990005e08900051
:1029cc00ee0890005bf807000002be003e09900084
:1029dc00ce0990000400be0056f807000002be00ad
:1029ec000401be000800be0036f707000002be005e
:1029fc0074179800051f98003e099000ce099000ae
:102a0c007e0090008e0890004af807000002be007d
:102a1c000404be001e119000ae1190005e089000e0
:102a2c00ee08900043f807000002be001e0990005b
:102a3c00ae0990000400be003ef807000002be0084
:102a4c000401be000800be001ef707000002be0015
:102a5c00741f9800052798007e0990008e11900035
:102a6c005e089000ee08900032f807000002be00ed
:102a7c0074279800052f98000002eb00040f7800d3
:102a8c001a0137001e0278006123b900423add00ba
:102a9c00ce32de00850272004232dd0066852000f7
:102aac00060242001403be003e129000ce129000ab
:102abc000401be000600be001ef807000002be00a6
:102acc000404be001e0278006123b900423add0006
:102adc00ce32de00850272004232dd0066872000b5
:102aec00060242001403be003e1a9000ce1a90005b
:102afc000401be000600be000ef807000002be0076
:102b0c000401be000800be00eef607000002be0085
:102b1c000404be001e0278006123b900423add00b5
:102b2c00ce32de00850272004232dd006689200062
:102b3c00060242001403be003e229000ce229000fa
:102b4c000401be000600be00faf707000002be003a
:102b5c000401be000800be00daf607000002be0049
:102b6c001e0378006130b900420bdd00ce03de009d
:102b7c00870373004203dd00608b200000034300d9
:102b8c00048bbe001e0278006123b900423add00be
:102b9c00ce32de00850272004232dd0066852000f6
:102bac00060242001403be005e129000ee1290006a
:102bbc000401be000600be00def707000002be00e6
:102bcc000404be001e0278006123b900423add0005
:102bdc00ce32de00850272004232dd0066872000b4
:102bec00060242001403be005e1a9000ee1a90001a
:102bfc000401be000600be00cef707000002be00b6
:102c0c000401be000800be00aef607000002be00c4
:102c1c000404be001e0278006123b900423add00b4
:102c2c00ce32de00850272004232dd006689200061
:102c3c00060242001403be005e229000ee229000b9
:102c4c000401be000600be00baf707000002be0079
:102c5c000401be000800be009af607000002be0088
:102c6c001e0378006130b900420bdd00ce03de009c
:102c7c00870373004203dd00608d200000034300d6
:102c8c00048bbe001e0278006123b900423add00bd
:102c9c00ce32de00850272004232dd0066852000f5
:102cac00060242001403be007e1290008e1a9000a1
:102cbc000401be000600be009ef707000002be0025
:102ccc000404be001e0278006123b900423add0004
:102cdc00ce32de00850272004232dd0066872000b3
:102cec00060242001403be007e1a90008e22900051
:102cfc000401be000600be008ef707000002be00f5
:102d0c000401be000800be006ef607000002be0003
:102d1c000404be001e0278006123b900423add00b3
:102d2c00ce32de00850272004232dd006689200060
:102d3c00060242001403be007e2290008e2a9000f0
:102d4c000401be000600be007af707000002be00b8
:102d5c000401be000800be005af607000002be00c7
:102d6c0002002000832c24000400be0055f607004e
:102d7c000002be001e0378006130b900420bdd007a
:102d8c00ce03de00870373004203dd00608f20005a
:102d9c0000034300048bbe001e0278006123b900bf
:102dac00423add00ce32de00850272004232dd0096
:102dbc00668b2000060242001402be0002002000b6
:102dcc00031224000400be005af707000002be00e4
:102ddc000403be001e0278006120b900420add0027
:102dec00ce02de00850272004202dd00608f200000
:102dfc00000242001402be000401be000600be0028
:102e0c008ff607000002be000200200003222400ff
:102e1c000400be002bf607000002be001e03780063
:102e2c006130b900420bdd00ce03de008703730076
:102e3c004203dd006091200000034300048bbe00c0
:102e4c001e0278006123b900423add00ce32de006a
:102e5c00850272004232dd00668d200006024200bf
:102e6c001402be0002002000032724000400be0050
:102e7c0030f707000002be000403be001e027800fb
:102e8c006120b900420add00ce02de00850272002c
:102e9c004202dd00608f2000000242001402be00de
:102eac000401be000600be0065f607000002be006d
:102ebc0002002000033724000400be0001f60700c6
:102ecc000002be001e0378006130b900420bdd0029
:102edc00ce03de00870373004203dd006093200005
:102eec0000034300048bbe001e0fe8001e02780096
:102efc00e70f5200e3fe34000002eb00040f7800f1
:102f0c008c0037001e007800640240006123b90079
:102f1c00423add00ce32de00850272004232dd0024
:102f2c0066932000060242001403be009e00780047
:102f3c00648240006120b900420add00ce02de004e
:102f4c00850272004202dd00609120000002420006
:102f5c001402be001e0078006101b9004218dd00a9
:102f6c00ce10de00810070004210dd006293200064
:102f7c00020040001000be001e0178006114b90070
:102f8c004249dd00ce41de00830171004241dd008b
:102f9c0068912000080141001204be000001be002f
:102fac000800be0049fd07009e02e8004400200016
:102fbc00110009008402d800010278006123b900d5
:102fcc00423add00ce32de00850272004232dd0074
:102fdc0066932000060242001403be009e02e80025
:102fec0044002000110009008402d800010278007e
:102ffc006120b900420add00ce02de0085027200bb
:10300c004202dd0060912000000242001402be006a
:10301c001e0078006101b9004218dd00ce10de0000
:10302c00810070004210dd0062932000020040001d
:10303c001000be001e0178006114b9004249dd0089
:10304c00ce41de00830171004241dd006891200019
:10305c00080141001204be000001be000800be00c1
:10306c001afd07009e02e800440020001100090030
:10307c008402d80001027800640242006123b90086
:10308c00423add00ce32de00850272004232dd00b3
:10309c0066932000060242001403be009e02e80064
:1030ac0044002000110009008402d80001027800bd
:1030bc00640242006120b900420add00ce02de004b
:1030cc00850272004202dd00609120000002420085
:1030dc001402be009e017800648041006101b900b9
:1030ec004218dd00ce10de00810070004210dd00c1
:1030fc0062932000020040001000be009e01780088
:10310c00648141006114b9004249dd00ce41de000a
:10311c00830171004241dd006891200008014100eb
:10312c001204be000001be000800be00e7fc070050
:10313c001e0fe8001e027800e30f520071ff3400ee
:10314c004f04be000080fa00000006000000fa00e8
:10315c000002eb00140888002405800004c0a000c5
:10316c0004d0a10004e0a0002405880005e1a8001b
:10317c008460a9009460a80094d02300640888009f
:10318c003405800004c0a10004d0a00004e0a0001d
:10319c003405880084e0a900040328008408880012
:1031ac0094e0a8000080fa0000000600849fbe0096
:1031bc00861f78003200f80004202000940188005b
:1031cc000000fa00c4ad2000144278000482fb0019
:1031dc00cfa2de00e68b28000402430014427800e4
:1031ec000482fb004822dd0054168800c4ad200088
:1031fc00144278000442e80004437800c5ad200076
:10320c00864a78008460a9000080fa003200f90038
:10321c004f0378004f02be0000400600849fbe00a2
:10322c00861f78003200f8000420200094018800ea
:10323c000000fa00d4568000050020000402420071
:10324c0085824a0006ce2000060242001402780055
:10325c0014088800d45680000402e800d456880074
:10326c00d4568000f00f520002003a000002eb002e
:10327c00d456880084e0a9000080fa003200f900de
:10328c004f0378004f02be00004006000000fa0019
:10329c000000eb00baf80700c456800084017800e7
:1032ac00f20420008000eb000000eb00e5f80700c2
:1032bc00c5568000c4568000061e20000402530030
:1032cc0085017800f2042000840078000000eb00f7
:1032dc00dcf80700c556800034062000848f5200ad
:1032ec0003003e00c45680000482e800c4568800e7
:1032fc000080fa00000006000c00fa00881f78001d
:10330c008a9fbe008c9fbe00b44a8000829520002c
:10331c00030020006123b9006c3ab9000400780066
:10332c006032b90004027800040040008602780084
:10333c00c4002000042ab800050040008002780078
:10334c00848fd2008582d2000402780004f0a100a0
:10335c00100020008200d0000403d0000682400040
:10336c004220a800858249004200a9004220ae00fc
:10337c004200a8000482d300a601800085037800d7
:10338c0004027800a7018800000a7800a6018800d2
:10339c00b84a80004df7070000027800cfa2de008b
:1033ac00e2042000030020000400be0080f60700a9
:1033bc000002be000401780087952000070f7800fa
:1033cc0000002000100798006142b9006c2bb90076
:1033dc00060378006020b9008003780007034300df
:1033ec0084027800c4002000042ab80005034300be
:1033fc008602780062024200e0824a00848fd2008a
:10340c008582d2000402780004f0a1001e03be00e5
:10341c000600d0008400d000010240004220a80029
:10342c0085824b004200a9004220ae004200a80059
:10343c000482d300a6018000850378000402780082
:10344c00a7018800020a7800a6018800b84a80000b
:10345c001ef7070000027800cfa2de00921d2000ac
:10346c00030020000400be0051f607000002be005d
:10347c00040278000401e8008395200023079800db
:10348c0004002000340798006142b9006c2bb9008d
:10349c00060378006020b90080037800070343001e
:1034ac0084027800c4002000042ab80005034300fd
:1034bc008602780064024200e0824a00848fd200c7
:1034cc008582d2000402780004f0a1002e03900043
:1034dc00be0390000600d0008400d0000102400022
:1034ec004220a80085824b004200a9004220ae0079
:1034fc004200a8000482d300a60180008503780056
:10350c0004027800a7018800020a7800a60188004e
:10351c00b84a8000edf60700000278002500200074
:10352c00110009000502d800010278000402e8002d
:10353c0004017800839520004307980004002000c4
:10354c00540798006142b9006c2bb900060378004f
:10355c006020b900800378000703430084027800e0
:10356c00c4002000042ab80005034300860278003a
:10357c0066024200e0824a00848fd2008582d2002b
:10358c000402780004f0a1004e039000de039000ca
:10359c000600d0008400d000010240004220a800a8
:1035ac0085824b004200a9004220ae004200a800d8
:1035bc000482d300a6018000850378000402780001
:1035cc00a7018800020a7800a6018800b44a80008e
:1035dc008c9520000d002000cfa2de006c2bb900d2
:1035ec00060378006020b9008003780007034300cd
:1035fc0084027800c4002000042ab80005034300ac
:10360c008602780068024200e0824a00848fd20071
:10361c008582d2000402780004f0a1008003eb0044
:10362c008c01d0000403d000068241004220a80087
:10363c0085824e004200a9004220ae004200a80044
:10364c000482d300a60180000500780004027800f3
:10365c00a0018800070a7800a6018800b84a8000fb
:10366c009af6070000027800040178008a95200081
:10367c000b0020006142b9006c2bb90006037800e6
:10368c006020b900800378000703430084027800af
:10369c00c4002000042ab800050343008602780009
:1036ac006a024200e0824a00848fd2008582d200f6
:1036bc000402780004f0a1008a03d0000400d000ba
:1036cc00008243004220a80085824d004200a900e0
:1036dc004220ae004200a8000482d300a601800064
:1036ec008503780004027800a7018800020a78009c
:1036fc00a6018800b44a80000402e800b44a88009d
:10370c004f06be004f05be004f0478000080fa0043
:10371c00000006003400fa000002eb0014278800b9
:10372c000002eb00242788000002eb0034278800fd
:10373c000002eb00542788000002eb00642788008d
:10374c000002eb0044168800a90b070008f70700dd
:10375c007efe070031f80700000000000100370072
:10376c00000000003438800061026200e00f52005b
:10377c00fbff32000002eb00040f78000002eb00ac
:10378c00140798001400200044079800140020002f
:10379c0054079800140020002407980014002000ff
:1037ac0034079800240020006407980024002000af
:1037bc0074079800f50420006e02900004825200f9
:1037cc00040f9800051e20007e0290000482520017
:1037dc00140f98000042eb004457980000c2eb0015
:1037ec005457980000c2eb0064579800b456800000
:1037fc000402e800b4568800b45680008440780077
:10380c00200320000e004000170320008e8343008d
:10381c00060320000e034300ee5290005e5290000f
:10382c00814178000001780087007800060078005c
:10383c00cf0a07002e7390009e7290000e729000bb
:10384c00064178008540780004407800b00a0700f3
:10385c0000427800445798004e5290000482fb00be
:10386c000400780036f807001e027800440f980018
:10387c001e029000540f9800ae0290004e02900071
:10388c0004aab900040278001e0f4200be02900088
:10389c005e02900004aab900040278009e02900017
:1038ac0004824200140798000e0a90009e027800d1
:1038bc00848f5200050034000e0a9000040f78002b
:1038cc002e0290000402ea00240798009e02900049
:1038dc001e0a9000848f5200050034001e0a9000ce
:1038ec00140798003e0290000402ea003407980086
:1038fc001e027800e00f520005003c000002eb00b5
:10390c00040f78002e0290000402ea0024079800ad
:10391c001e029000e00f520005003c000002eb007c
:10392c00140798003e0290000402ea003407980045
:10393c004e5290000482fb000400780010f7070040
:10394c00fe0390006e0390009e0290001e02780011
:10395c008701780006017800850078000400780063
:10396c0038f707000000eb0005f70700031e2000e6
:10397c00120020008000eb00f004200031f707005b
:10398c0000a0260081012000d00b070097ff370014
:020000040000fa
:10399c0010100000080300000003000003e4000006
:1039ac000303000003e40000030300000303000012
:1039bc0003030000030300000303000003e4000002
:1039cc000303000003030000e403000003e4000011
:1039dc0003f50000030300000303000003030000d1
:1039ec0003030000e4030000e4e400000303000010
:1039fc00e4030000e40300000303000003f50000ef
:103a0c0003030000e4e40000e4e40000e40300002d
:103a1c00e4030000e40300000303000003030000c0
:103a2c00e4030000e4e40000e4e40000e4e400004b
:103a3c00e40300000303000003030000e4030000a0
:103a4c00e4e4000003e40000e4e40000f5e400001a
:103a5c00e4030000e4f5000003030000e4e40000cc
:103a6c00e4e40000f5e40000e4e40000e4f5000008
:103a7c00e4e40000e4e4000003e4000003e40000dc
:103a8c00e4e40000e4e40000e4f50000e4f50000e8
:103a9c00e4e40000e4e4000003e4000003e40000bc
:103aac00e4e40000e4f50000e4f50000e4f50000b7
:103abc00f5e40000e4e4000003e40000e4e40000aa
:103acc00e4e40000f5e40000f5f50000f5f5000075
:103adc00f5f50000e4030000e4e40000e4e4000079
:103aec00e4f50000f5f50000f5ff0000f5f5000029
:103afc00e4f50000e4e40000e4030000e4e400006a
:103b0c00f5f50000f5ff0000f5ff0000f5ff0000e3
:103b1c00f5f50000e4e40000e4030000e4e4000038
:103b2c00f5f50000ffff0000ffff0000fff50000af
:103b3c00f5e40000e4e400000303000003e40000eb
:103b4c00e4f50000f5ff0000ffff0000fff50000aa
:103b5c00f5e40000e4e400000303000003e40000cb
:103b6c00e4e40000f5f50000f5f50000f5e40000d4
:103b7c00e4e40000e403000003030000030300007e
:103b8c0003e40000e4e40000e4e40000e4e40000ea
:103b9c0003030000030300000310000010080000e2
:103bac0003000000030300000303000003030000f4
:103bbc000303000003e400000303000003e400001f
:103bcc00030300000303000003f5000003e40000fe
:103bdc0003030000e40300000303000003e40000ff
:103bec000303000003030000e4030000e4030000ef
:103bfc0003e40000e4030000e403000003030000fe
:103c0c000303000003030000e4030000e4030000ce
:103c1c00e4e40000e4e40000e403000003f5000029
:103c2c00030300000303000003030000e4e40000ae
:103c3c00e4e40000e4e40000e4030000e40300001a
:103c4c000303000003f50000e4030000e4e40000bb
:103c5c00f5e40000e4e4000003e40000e4030000e9
:103c6c00e403000003e40000e4e40000e4f50000d9
:103c7c00e4e40000e4e40000f5e40000e4e4000007
:103c8c00e403000003e40000e4e40000e4f50000b9
:103c9c00e4f50000e4e40000e4e40000e4e40000e7
:103cac0003e4000003e40000e4e40000f5f5000088
:103cbc00e4f50000e4f50000e4e40000e4e40000b6
:103ccc0003e40000e4030000e4f50000f5f5000057
:103cdc00f5f50000f5e40000f5e40000e4e4000074
:103cec00e4e40000e4e40000e4f50000e4f5000086
:103cfc00f5ff0000f5f50000f5f50000e4e4000028
:103d0c00e4e40000e4e40000e4f50000f5ff00004a
:103d1c00f5ff0000f5ff0000f5f50000f5e40000ec
:103d2c00e403000003e40000e4e40000f5f5000007
:103d3c00ffff0000ffff0000fff50000f5e40000ae
:103d4c00e403000003e40000e4e40000f5f50000e7
:103d5c00ffff0000ffff0000f5f50000e4e40000a9
:103d6c000303000003030000e4e40000e4e40000ab
:103d7c00f5f50000f5f50000f5e40000e4e40000c2
:103d8c0003030000030300000303000003e400002e
:103d9c00e4e40000e4e40000e4e4000003030000b9
:103dac0003030000080800000803000000030000e3
:103dbc00e4030000e403000003030000030300001d
:103dcc000303000003e400000303000003030000ee
:103ddc0003030000e4e40000e4030000030300001c
:103dec00e4e40000e4e40000f5e40000e4e4000096
:103dfc00e4e40000f5f50000f5e40000e4e4000064
:103e0c00e4f50000f5ff0000f5f50000e403000008
:103e1c00e4f50000ffff0000f5e40000e4030000ff
:103e2c00e4e40000f5f50000e4e400000308000001
:103e3c000808000003000000030300000303000057
:103e4c00030300000303000003e40000e40300008c
:103e5c00e4e400000303000003030000e4e40000ba
:103e6c00e4e40000e403000003e40000e4e40000e8
:103e7c00e4f50000e4e4000003e40000f5e40000d5
:103e8c00e4e40000e4030000e4e40000e4f50000d6
:103e9c00f5f50000e4e4000003e40000f5ff000089
:103eac00ffff0000f5e4000003e40000e4f500006f
:103ebc00f5f50000e40300003110000008000000dc
:103ecc0000000000000000000000000000000000e6
:103edc000000000000000000052500000025000087
:103eec002529000000000000004a00002500000009
:103efc0000000000040500004f000000000000005e
:103f0c000000000025250000050500000000000051
:103f1c000000000025250000250500000000000021
:103f2c0000000000002a0000734e0000000000009a
:103f3c000000000000000000292a00004a4e00008a
:103f4c006f4f000073250000000000004a73000052
:103f5c0073040000006f0000737300000000000089
:103f6c002973000073730000734f0000737300001b
:103f7c00250000004e730000734f00004f4a0000f4
:103f8c004a4f0000000000004f7300007300000057
:103f9c000000000000000000002500002a2a00009c
:103fac004f4f00004e7300004e000000004f000009
:103fbc0073730000000000007373000073000000b6
:103fcc00002a000073730000737300007373000009
:103fdc0073250000004f0000737300004f4f00006a
:103fec004e4a00002a0000000073000073730000aa
:103ffc00000000000000000000000000252a000066
:10400c002a250000054f0000734a00000000000044
:10401c004f73000073050000007300007373000001
:10402c00000000004a730000737300004e73000020
:10403c0073730000250000004f730000734e0000e6
:10404c004e4f00004e4a0000000000007373000049
:10405c00730000000000000000000000002a0000b7
:10406c002a2a0000000000004f7300004f000000df
:10407c00004e0000737300002500000073730000f5
:10408c0073000000004e0000737300004f0000002e
:10409c00256f000073290000004f000073730000af
:1040ac00000000004a4f00004e00000000730000aa
:1040bc00737300000000000000000000000000000e
:1040cc002a2a00004a040000004f0000734f000031
:1040dc00000000004f730000730500000073000027
:1040ec0073730000000000004e730000734e00005c
:1040fc0000000000054a0000000000006f73000083
:10410c0073000000006f00004f4f00000000000023
:10411c00737300007300000000000000000000003a
:10412c00002a00004a4a0000040000004f730000ff
:10413c004e000000004e00007373000025000000cc
:10414c007373000073000000004f000073730000d5
:10415c002a0000000000000000000000006f0000ba
:10416c0073730000050000004f4f00002500000095
:10417c0000730000737300000000000000000000da
:10418c0000000000294a00004a000000004e000018
:10419c006f4a0000000000004e730000736f0000b7
:1041ac004f73000073730000000000004f73000099
:1041bc00737300006f4f00004f4f0000250000008c
:1041cc0073730000734e00004e4f00004f00000050
:1041dc00000000007373000073000000000000007a
:1041ec0000000000002a00004e4e000025000000d8
:1041fc004f4f00002a000000004e000073730000b7
:10420c00737300007373000073000000004f000014
:10421c00737300004f6f00004f4f00006f290000b8
:10422c000073000073730000737300006f4e000086
:10423c000000000000730000737300000000000019
:10424c0000000000000000004a4f00004a4f000030
:10425c004f4f00006f250000000000000000000020
:10426c004f73000073730000730500000000000022
:10427c004f73000073730000736f00004e4f00000b
:10428c002500000073730000734f00006f73000073
:10429c00732900000000000073730000730000001d
:1042ac00004e00004f4a0000002500006f4a00003d
:1042bc004a4f00004f4f0000290000000000000092
:1042cc00004e000073730000732500000000000016
:1042dc00004f0000736f00002a0000000000000077
:1042ec000000000000730000737300002504000040
:1042fc00737300006f000000007300007373000004
:10430c00000000007373000073000000256f0000b4
:10431c002a2500002a6f00004a2900000000000036
:10432c00000000004a730000734f00000000000002
:10433c00000000004f730000732500000005000012
:10434c0025250000000000006f730000732500009d
:10435c00047300007373000000000000737300000e
:10436c007300000000730000737300000025000050
:10437c004f4a0000000500004f4a00004a000000b0
:10438c0000000000004a0000737300004f000000a2
:10439c0000000000004e00007373000029000000b4
:1043ac006f730000732a0000006f0000737300002d
:1043bc002a250000737300006f00000000730000da
:1043cc0073730000737300007373000073000000bc
:1043dc002a4f00004a000000004f00004f4a000026
:1043ec0000000000000000004a730000734f000042
:1043fc0000000000000000004e730000737300000a
:10440c0073730000737300002a0000006f730000c8
:10441c00732a000025730000736f00000000000079
:10442c0073730000737300007373000073730000e8
:10443c00004f00004f4a0000000000004e4a0000f0
:10444c004e00000000000000004a000073730000e2
:10445c004f00000000000000004e000073730000cd
:10446c007373000073730000734a0000006f000048
:10447c00737300002a050000737300004f040000e2
:10448c00004e00004e6f0000737300007373000049
:10449c004f000000294e000029000000004e0000d3
:1044ac002a4a00000000000000000000254a00001d
:1044bc004a2a000000000000000000004a2a000008
:1044cc002a730000736f00004f730000250000007a
:1044dc006f73000073250000004e00004f4f00006a
:1044ec00001d000010080000000000002525000041
:1044fc0025250000252500002925000000000000ce
:10450c0025250000252500000525000005000000dc
:10451c000000000000000000002500002505000040
:10452c0005000000006f0000737300004f73000063
:10453c004f730000730000000073000073730000e1
:10454c007373000073730000250000000029000045
:10455c0073730000737300004f7300007325000029
:10456c006f730000736f0000736f00002a730000fc
:10457c00000000007373000073730000737300007d
:10458c0073290000000000002a7300007373000000
:10459c007373000073730000256f000073730000c9
:1045ac006f4e00006f4f000073000000007300009e
:1045bc00734f00004a4a0000737300002a00000089
:1045cc00004a000073730000734e00007373000008
:1045dc00732500006f73000073250000004a000073
:1045ec007373000000000000737300007300000080
:1045fc00257300006f4a0000000000004e7300009d
:10460c00734f0000002500006f730000294f00005d
:10461c00737300004a0000004f7300007300000029
:10462c000073000073730000002900007373000016
:10463c004a000000004e0000737300004e000000a2
:10464c00000500004a0000004f730000732a0000b0
:10465c00004f000073730000000000006f73000037
:10466c007300000029730000734a00000000000072
:10467c004f730000732a00000000000000000000cf
:10468c00006f0000737300002a0000004f730000dd
:10469c0073000000006f0000734f00000029000041
:1046ac00737300004a000000004f00007373000099
:1046bc00736f00004f4f00004f2500004f73000038
:1046cc00732a0000004f000073730000000000000c
:1046dc006f7300007300000025730000734a000024
:1046ec00000000004f730000734f00006f4f00007c
:1046fc004f6f0000294f0000737300002a00000068
:10470c004f73000073000000006f00007373000013
:10471c0000250000737300004e000000004f0000e5
:10472c0073730000737300006f4e00004f25000080
:10473c004f73000073290000004f000073730000da
:10474c00000000006f73000073000000297300006c
:10475c00734e0000000000004f7300006f2a000031
:10476c000000000000000000004f00007373000008
:10477c002a0000004f73000073000000006f00005f
:10478c007373000000250000737300004e000000de
:10479c00004f000073730000250000000525000089
:1047ac00250000006f730000732a0000044f000006
:1047bc0073730000000000007373000073000000ae
:1047cc0025730000734e0000000000004e730000c3
:1047dc0073290000006f0000737300002a7300003f
:1047ec007373000073730000737300006f0000009c
:1047fc000073000073730000002500007373000049
:10480c004f000000004e0000737300007373000033
:10481c0073730000732a00004f7300007373000061
:10482c0073730000734f0000000000006f730000f2
:10483c007300000029730000734f0000000000009b
:10484c004e730000737300007373000073730000e9
:10485c004a4a0000734f00006f6f0000734f000056
:10486c004a000000004f0000734f000000250000bc
:10487c004f4f00004f000000004a00002a2a0000a1
:10488c00737300006f4f000073250000311000009f
:10489c000800000000000000000000000000000004
:1048ac00000000000000000000000000080c0000e8
:1048bc00081000001014000004000000001c000090
:1048cc000c04000000000000080c00003c08000074
:1048dc0000000000080400000c0c00000c08000094
:1048ec000400000000040000101000000c0c00007c
:1048fc000400000000000000001800005d1c000017
:10490c000000000000000000000000001414000073
:10491c00181c00005d3c00005d1000000000000051
:10492c001c7e00007e080000005d00007e5d000023
:10493c0008000000145d00005d7e00005d3c00007e
:10494c007e5d00000c0000001c7e00005d3c000041
:10495c003c1c00001c1c0000000000003c5d000022
:10496c007e000000000000000000000000100000ad
:10497c00181800003c3c00001c5d00001c000000ee
:10498c00003c00007e7e0000080800007e7e0000d7
:10499c007e040000001800005d5d00007e5d0000dc
:1049ac005d7e00007e100000001c00007e5d00009b
:1049bc003c3c00001c1c000018000000007e0000a5
:1049cc007e7e0000000000000000000000000000df
:1049dc0010180000181000000c3c00007e1c000099
:1049ec00000000001c7e00007e0c0000005d00003a
:1049fc007e7e0000000000001c7e00007e7e000019
:104a0c001c5d00007e7e0000100000003c7e00005b
:104a1c005d1c00001c3c00001c1c00000000000081
:104a2c007e7e00007e000000000000000000000000
:104a3c000018000018180000080000001c5d0000a1
:104a4c003c000000001c00007e7e00000c000000fa
:104a5c007e7e00007e000000001c00007e7e0000b8
:104a6c003c000000103c00007e140000003c0000e4
:104a7c007e5d0000080000001c3c00001c000000d3
:104a8c00007e00007e7e00000000000000000000a0
:104a9c00000000001814000018080000003c000082
:104aac005d1c0000000000001c7e00007e08000061
:104abc00007e00007e7e0000000000001c7e0000d6
:104acc007e1c0000000400000c1800000800000010
:104adc005d7e00007e040000003c00003c1c0000d9
:104aec00000000007e7e00007e0000000000000040
:104afc0000000000001800001c1800000800000056
:104b0c003c5d00001c000000001c00007e7e0000cc
:104b1c000c0000005d7e00005d000000001c000029
:104b2c007e7e000018000000000000000000000065
:104b3c00005d00007e7e00000c0400003c3c000088
:104b4c0010000000007e00007e7e000000000000cf
:104b5c000000000000000000141c00001c080000f5
:104b6c00001c00005d1c0000000000001c7e00000a
:104b7c007e5d00003c7e00007e7e00000000000098
:104b8c003c7e00007e7e00005d1c00001c3c000092
:104b9c00100000007e7e00007e1c00001c3c00000b
:104bac001c000000000000007e7e00007e00000063
:104bbc000000000000000000001800001c1c000099
:104bcc000c0800003c3c000018000000001c000019
:104bdc007e7e00007e7e00007e7e00005d00000078
:104bec00003c00005d5d00003c5d00001c3c0000d2
:104bfc005d140000005d00007e5d00005d7e000025
:104c0c005d1c000000000000007e00007e7e0000a5
:104c1c000000000000000000000000001c1c000050
:104c2c001c3c00003c3c00005d1400000000000037
:104c3c00040800001c7e00007e7e00007e08000040
:104c4c00000000003c7e00005d7e00005d5d000009
:104c5c001c1c0000100000005d7e00007e3c00006b
:104c6c005d5d00007e140000000000007e7e0000f0
:104c7c007e000000001c00003c1c00000010000026
:104c8c005d1c00001c3c00003c3c000014000000bb
:104c9c0000000000001c00007e7e00007e10000062
:104cac0000000000003c00005d5d000018040000e6
:104cbc000404000008000000005d00007e7e00007f
:104ccc00100800007e5d00005d000000007e00000a
:104cdc007e7e0000000000007e7e00007e00000052
:104cec000c5d000018100000145d00001c14000086
:104cfc0000000000000000001c7e00007e3c000054
:104d0c0000000000000000001c5d00007e10000090
:104d1c00000c000010140000040000005d7e000078
:104d2c007e100000087e00007e7e00000000000067
:104d3c007e7e00007e040000047e00007e7e00006b
:104d4c00001000001c1c0000040c00001c1c0000c7
:104d5c001c00000000000000001c00007e7e000013
:104d6c003c00000000000000001c00005d7e000004
:104d7c00140400003c7e00007e140000005d000066
:104d8c007e7e0000180c00007e7e00005d0400009a
:104d9c00007e00007e7e00007e7e00007e7e000095
:104dac007e000000181c00001c040000081c000001
:104dbc003c1c000000000000000000001c7e0000f5
:104dcc007e3c000000000000000000001c7e000083
:104ddc007e7e00007e5d00007e7e000018000000dc
:104dec005d7e00007e180000107e00007e5d0000dd
:104dfc00080000007e7e00007e7e00007e7e0000ab
:104e0c007e7e0000003c00003c1c000000080000fe
:104e1c001c1c00001c00000000000000001800001a
:104e2c007e7e00003c00000000000000001c000022
:104e3c005d7e00005d7e00005d7e00007e1800003f
:104e4c00005d00007e7e0000180c00007e7e0000dd
:104e5c003c080000001c00001c5d00007e7e000071
:104e6c007e7e00003c000000141c000014000000ba
:104e7c00041c0000181c00000000000000000000d2
:104e8c000c1c00001c1800000000000000000000ba
:104e9c001c140000147e00005d5d00003c5d0000f1
:104eac00100000005d7e00005d100000041c00007e
:104ebc003c3c0000081d0000100800000000000031
:104ecc000c100000100c000010100000141000005a
:104edc00000000000c0c0000100c00000c0c00007a
:104eec000c0000000000000000080000040c000092
:104efc000c0c000008040000005d00007e7e000029
:104f0c003d7e00003c7e00005e000000007e000044
:104f1c007e7e00005e5e00007e5e000010000000e1
:104f2c00001400005d5e00007e5e00003d7e00000f
:104f3c005e0c00005d7e00007e5d00007e5d00006a
:104f4c00187e0000000000007e7e00007e5e0000e7
:104f5c007e5e00007e14000000000000185e000061
:104f6c005e7e00005e5e00007e7e0000105d000034
:104f7c007e7e00003d1c00005d3c00007e000000b9
:104f8c00007e00007e3d0000181c00007e5e0000cc
:104f9c0018000000001c00007e7e00007e1c00003b
:104fac005d7e00007e1000005d7e00005e1400003f
:104fbc00001c00007e7e0000000000005e7e0000f1
:104fcc007e000000105d00005d1c00000000000071
:104fdc001c7e00007e3c0000001000003d7e0000a6
:104fec00143d00007e5e00001c0000003c7e0000b2
:104ffc007e040000005e00007e7e000000140000b5
:10500c005e7e00001c000000001c00007e7e000084
:10501c001c000000040c0000180800003c7e00007e
:10502c007e140000003c00007e7e000000000000aa
:10503c005d7e00007e000000145e00007e1c0000ff
:10504c00000000001c7e00007e1800000000000024
:10505c0000000000003d00007e7e000018000000f3
:10506c003c7e00007e000000005d00007e3d0000e4
:10507c00001400007e7e00001c000000003c0000bc
:10508c007e7e00007e5d00001c1c00003c100000b9
:10509c003d7e00007e180000003c00007e7e00007b
:1050ac00000000005d7e00007e000000145e000029
:1050bc005e180000000000003c5d00005e3d00003a
:1050cc005d1c00003c5d0000143d00007e7e000075
:1050dc00140000003c7e00007e000000005d00001b
:1050ec007e5e0000001000007e7e00001c000000b0
:1050fc00003d00007e5e00007e5e00005d1c000036
:10510c001c1000003c7e00007e140000001c0000ff
:10511c007e7e0000000000005d7e00007e0000002e
:10512c00147e00007e1c0000000000003c5e0000ad
:10513c005d1800000404000004080000003c00009e
:10514c007e7e0000180000003c7e00007e00000007
:10515c00005d00007e7e0000001000007e7e0000de
:10516c001c000000001c00005e7e0000100000000f
:10517c000c100000140400005d7e00007e1800007e
:10518c00083c00007e5e0000000000005d7e000018
:10519c005e000000107e00007e1c0000000000007d
:1051ac001c5e00007e140000043d00007e7e0000aa
:1051bc00145e00007e7e00007e7e00007e7e00007d
:1051cc005d000000005d00007e7e00000410000009
:1051dc007e7e00003c000000001c00007e7e000073
:1051ec007e7e00005e7e00007e1800003c7e00008b
:1051fc007e7e00007e7e00007e3c000000000000f1
:10520c005d7e00007e040000147e00007e3c0000e9
:10521c00000000001c5d00007e5d00007e5e000052
:10522c007e7e0000181c00005d3d00003d5d00000e
:10523c005e3c00001c000000003d00005d3d0000d5
:10524c00041000003d3d00003c000000001c00006c
:10525c00141400007e5d00005d3d00005d10000038
:020000040000fa
:10526c00f84f0000080c0000820000000000000055
:10527c0000ff0000080006000804000006100400ef
:10528c000006180004000600200400000628040094
:10529c00000630000400060038040000064004003c
:1052ac0000064800040006005004000006580400e4
:1052bc00000660000400060068040000067004008c
:1052cc000006780004000600800400000688040034
:1052dc0000069000040006009804000006a00400dc
:1052ec000006a80004000600b004000006b8040084
:1052fc000006c00004000600c804000006d004002c
:10530c000006d80004000600e004000006e80400d3
:10531c000006f00004000600f8040000060005007a
:10532c000006080005000600100500000618050020
:10533c0000062000050006002805000006300500c8
:10534c000006380005000600400500000648050070
:10535c000006500005000600580500000660050018
:10536c0000066800050006007005000006780500c0
:10537c000006800005000600880500000690050068
:10538c000006980005000600a005000006a8050010
:10539c000006b00005000600b805000006c00500b8
:1053ac000006c80005000600d005000006d8050060
:1053bc000006e00005000600e805000006f0050008
:1053cc000006f800050006000006000006080600ae
:1053dc000006100006000600180600000620060055
:1053ec0000062800060006003006000006380600fd
:1053fc0000064000060006004806000006500600a5
:10540c00000658000600060060060000066806004c
:10541c0000067000060006007806000006800600f4
:10542c00000688000600060090060000069806009c
:10543c000006a00006000600a806000006b0060044
:10544c000006b80006000600c006000006c80600ec
:10545c000006d00006000600d806000006e0060094
:10546c000006e80006000600f006000006f806003c
:10547c0000060000070006000807000006100700e1
:10548c000006180007000600200700000628070089
:10549c000006300007000600380700000640070031
:1054ac0000064800070006005007000006580700d9
:1054bc000006600007000600680700000670070081
:1054cc000006780007000600800700000688070029
:1054dc0000069000070006009807000006a00700d1
:1054ec000006a80007000600b007000006b8070079
:1054fc000006c00007000600c807000006d0070021
:10550c000006d80007000600e007000006e80700c8
:10551c000006f00007000600f8070000060008006f
:10552c000006080008000600100800000618080015
:10553c0000062000080006002808000006300800bd
:10554c000006380008000600400800000648080065
:10555c00000650000800060058080000066008000d
:10556c0000066800080006007008000006780800b5
:10557c00000680000800060088080000069008005d
:10558c000006980008000600a008000006a8080005
:10559c000006b00008000600b808000006c00800ad
:1055ac000006c80008000600d008000006d8080055
:1055bc000006e00008000600e808000006f00800fd
:1055cc000006f800080006000009000006080900a3
:1055dc00000610000900060018090000062009004a
:1055ec0000062800090006003009000006380900f2
:1055fc00000640000900060048090000065009009a
:10560c000006580009000600600900000668090041
:10561c0000067000090006007809000006800900e9
:10562c000006880009000600900900000698090091
:10563c000006a00009000600a809000006b0090039
:10564c000006b80009000600c009000006c80900e1
:10565c000006d00009000600d809000006e0090089
:10566c000006e80009000600f009000006f8090031
:10567c00000600000a000600080a000006100a00d6
:10568c00000618000a000600200a000006280a007e
:10569c00000630000a000600380a000006400a0026
:1056ac00000648000a000600500a000006580a00ce
:1056bc00000660000a000600680a000006700a0076
:1056cc00000678000a000600800a000006880a001e
:1056dc00000690000a000600980a000006a00a00c6
:1056ec000006a8000a000600b00a000006b80a006e
:1056fc000006c0000a000600c80a000006d00a0016
:10570c000006d8000a000600e00a000006e80a00bd
:10571c000006f0000a000600f80a000006000b0064
:10572c00000608000b000600100b000006180b000a
:10573c00000620000b000600280b000006300b00b2
:10574c00000638000b000600400b000006480b005a
:10575c00000650000b000600580b000006600b0002
:10576c00000668000b000600700b000006780b00aa
:10577c00000680000b000600880b000006900b0052
:10578c00000698000b000600a00b000006a80b00fa
:10579c000006b0000b000600b80b000006c00b00a2
:1057ac000006c8000b000600d00b000006d80b004a
:1057bc000006e0000b000600e80b000006f00b00f2
:1057cc000006f8000b000600000c000000000000b2
:1057dc000000000000001c00223622002a221c00bf
:1057ec00001c3e002a3e22003e1c000000143e001d
:1057fc003e3e1c0008000000081c3e003e1c080039
:10580c0000081c001c083e003e08000000081c009c
:10581c003e3e08001c0000000000000000000000dc
:10582c00000000000000000000000000000000006c
:10583c00000000000000000000000000000000005c
:10584c0000003800302c1200120c00001c22220028
:10585c001c081c00080000000000000000000000f4
:10586c0000302c00342c340036060000002a1c00ba
:10587c00361c2a00000004000c1c3c001c0c04000c
:10588c00001018001c1e1c0018100000081c3e0004
:10589c00083e1c000800140014141400140014001a
:1058ac00003c2a002a2c2800282800001c220c006e
:1058bc00141822001c00000000000000001e1e0036
:1058cc0000081c003e083e001c081c00081c3e0082
:1058dc000808080008000800080808003e1c08001a
:1058ec0000000800183e18000800000000080c001a
:1058fc003e0c0800000000000000020002023e0006
:10590c0000001400143e14001400000008081c00d1
:10591c001c3e3e0000003e003e1c1c00080800001f
:10592c00000000000000000000000000081c1c002b
:10593c0008080000080036003612000000000000c5
:10594c00000014003e1414003e140000041c02005d
:10595c000c100e000800260026100800043232003d
:10596c0000040a000a042a00122c00000c0c04008b
:10597c0000000000000008000404040004040800f7
:10598c0000040800080808000804000000141c00ab
:10599c003e1c14000000000008083e00080800002f
:1059ac0000000000000000000c0c040000000000cf
:1059bc003e0000000000000000000000000c0c0085
:1059cc000000200010080400020000001c2232001d
:1059dc002a2622001c0008000c08080008081c00dd
:1059ec00001c220020180400023e00001c22200093
:1059fc001c2022001c001000181412003e10100075
:105a0c00003e0200021e2000221c000018040200ae
:105a1c001e2222001c003e0020100800040404007a
:105a2c00001c2200221c2200221c00001c2222002e
:105a3c003c2010000c000000000c0c00000c0c00b2
:105a4c00000000000c0c00000c0c040010080400fa
:105a5c000204080010000000003e0000003e0000a0
:105a6c000004080010201000080400001c22200074
:105a7c001808000008001c00223a2a003a021c00f8
:105a8c00001c220022223e00222200001e222200a4
:105a9c001e2222001e001c002202020002221c00f8
