:020000040000fa
:080000000002040000000000f2
:020000040000fa
:100008006203000062030000620300006203000054
:100018006203000062030000620300006203000044
:100028006203000062030000620300005242000005
:10003800620300006203000062030000f85c000035
:10004800620300006203000062030000d2020000a5
:100058000003000062030000620300006203000066
:1000680062030000620300006203000062030000f4
:1000780062030000620300006203000062030000e4
:1000880062030000620300006203000062030000d4
:1000980062030000620300006203000062030000c4
:1000a80062030000620300006203000062030000b4
:1000b80062030000620300006203000062030000a4
:1000c8006203000062030000620300006203000094
:1000d8006203000062030000620300006203000084
:1000e8006203000062030000620300006203000074
:1000f8006203000062030000620300006203000064
:100108006203000062030000620300006203000053
:100118006203000062030000620300006203000043
:100128006203000062030000620300006203000033
:100138006203000062030000620300006203000023
:100148006203000062030000620300006203000013
:100158006203000062030000620300006203000003
:1001680062030000620300006203000062030000f3
:1001780062030000620300006203000062030000e3
:1001880062030000620300006203000062030000d3
:1001980062030000620300006203000062030000c3
:1001a80062030000620300006203000062030000b3
:1001b800245b000062030000620300006203000089
:1001c8006203000062030000620300006203000093
:1001d8006203000062030000620300006203000083
:1001e8006203000062030000620300006203000073
:0801f800620300006203000035
:020000040000fa
:100208006203000062030000620300006203000052
:100218006203000062030000620300006203000042
:100228006203000062030000620300005242000003
:10023800620300006203000062030000f85c000033
:10024800620300006203000062030000d2020000a3
:100258000003000062030000620300006203000064
:1002680062030000620300006203000062030000f2
:1002780062030000620300006203000062030000e2
:1002880062030000620300006203000062030000d2
:1002980062030000620300006203000062030000c2
:1002a80062030000620300006203000062030000b2
:1002b80062030000620300006203000062030000a2
:1002c8006203000062030000620300006203000092
:1002d8006203000062030000620300006203000082
:1002e8006203000062030000620300006203000072
:1002f8006203000062030000620300006203000062
:100308006203000062030000620300006203000051
:100318006203000062030000620300006203000041
:100328006203000062030000620300006203000031
:100338006203000062030000620300006203000021
:100348006203000062030000620300006203000011
:100358006203000062030000620300006203000001
:1003680062030000620300006203000062030000f1
:1003780062030000620300006203000062030000e1
:1003880062030000620300006203000062030000d1
:1003980062030000620300006203000062030000c1
:1003a80062030000620300006203000062030000b1
:1003b800245b000062030000620300006203000087
:1003c8006203000062030000620300006203000091
:1003d8006203000062030000620300006203000081
:1003e8006203000062030000620300006203000071
:0803f800620300006203000033
:020000040000fa
:10040000afcc2000ce2925000e018800000000009e
:10041000000020000000e000020032000001200087
:10042000200288000c00070060402400010020002a
:100430000f000700000020000000e0000200320072
:1004400000000200000000009c43020000000000c9
:100450000040da000000fe00a06b20000000e00079
:1004600002003200002020009001880000000600f9
:10047000a1028800800078000000eb001a0037001d
:10048000e280400054a0b4009101ba00e280400034
:1004900054a0b4009102ba00e280400054a0b4001d
:1004a0000002eb00472bde00f507b200a601880032
:1004b000602ce10008003a000049eb000201e8006e
:1004c000020039003420ec0002f0a0008301e900b2
:1004d000f9ff3e00040037006128e100010032000e
:1004e0000082eb00040007001101ba000200e000e6
:1004f000e3ff3a000000060004d0a300e20f490029
:100500001c003900810278003549ba000201e80078
:10051000020039003420ec0002f0a0008301e90061
:100520000f0032002549ba000201e800020039003c
:100530003420ec0002f0a0008301e9000800320042
:100540000400e0000600320015c9ba000201e8000c
:10055000020039003420ec0002f0a0008301e90021
:100560008180e80054a0b4000300e000e2ff3a00fc
:10057000000006009102ba00055978008301e900e5
:10058000f7ff3200c82ade00055978008301e90030
:10059000f3ff32000400e000f1ff320011d9ba008d
:1005a000eeff3700841f78000200fa008560a90082
:1005b0001411800062026200e00f5200020032005b
:1005c0002222a9000b00370014118000640262008f
:1005d000e00f520007003a0002003700341180009b
:1005e000044f78001411800061026200e00f520095
:1005f000faff3a000080fa004f027800004006003f
:10060000841f78000200fa0004488000040f78007c
:100610001e027800241188008580a9000080fa005d
:100620004f027800004006000000fa0042c7a9000f
:100630002535800004fc2f00048262007400b300a2
:10064000243588003536800004fc2f0004826200c7
:100650003400b3003436880042c7a800f4192000e3
:10066000441188000002eb00041188002062a800f9
:100670000002eb001411880021e2a8002342a80028
:100680008560a9009560a800950580000470200091
:1006900005027200940588000080fa000000060040
:1006a0000400fa00000f7800110798001e0278007d
:1006b000044888000002eb00040078000080fa0083
:1006c000000006000040da000000fe0003f0a20077
:1006d000889fbe008a9fbe008c1f78000001070023
:1006e000070133006450e1004f0032006420e10054
:1006f0005200320003826c0007003b000905d00065
:100700000306d000820f54000c065d000200390081
:1007100002003200890178000306780085825500c6
:1007200004003d000003fd008103fd008502ea0096
:100730008b854200840f720002003b0060001000b5
:10074000e08018006011b8000005eb007a28e10095
:100750000a00390006007800c75ddd00f707b20027
:10076000878075002d003700828171000a017800b2
:10077000610560008180d1000080d3008502e9001e
:10078000f9ff3b00060440008784480002003b005c
:1007900060041400e0841c000988a30007003200f4
:1007a0008a81710082817100610164008904d10035
:1007b0000884d3008b05e800170037000978a300f0
:1007c00013003a000b00e000130034008b05e90031
:1007d0000804440089844c000a4474000978a3008a
:1007e0000d003a000b00e000070034008b05e90023
:1007f0000804440089844c0001003a000b002000ea
:100800000978a300f7ff32000001eb000200370077
:10081000828171000a017800760007000cf0a700c1
:1008200001f0a000bf0037006420e10002003a00a0
:10083000838f6c00bf0033000801be000200be00c1
:10084000b80037000081eb00f1003700889fbe0040
:100850008a9fbe008c1f7800a1000700a80033000b
:1008600003866c006450e1002e0032006420e10039
:10087000330032006150e1002f0032006120e100be
:100880003100320085855500eb07b00009002000db
:1008900008042000050037000804440089844c0047
:1008a0000a0031000603430087834b000001530018
:1008b00081815b00f8ff33000203be000800a00046
:1008c0000804440089844c00f6ff3900c639dd0075
:1008d0008301730001003200130020008904d1005d
:1008e0000884d3000998a300050032000800a7007f
:1008f0000300a0008904d1000884d3008b05e80020
:100900008904d1000884d3000001eb000281d200e9
:100910003800070001f0a1000cf0a70001f0a000d2
:10092000800037006420e100820032000801be0030
:100930000200be00f7ff37006120e1007d003200b9
:100940006000b800f3ff37000000200001f8270026
:10095000f0ff3700f4ff2f001b0137000001be003d
:100960004a0007000470a70003f0a1006509b10068
:10097000160032000d0035006828e1000600350041
:10098000f0ff2f00f1ff27000300e00013003b0001
:1009900001002800000005000000400081804800a0
:1009a0008502e900fcff3a0008003700f88f42009a
:1009b00002003c008000eb00000005008100d10037
:1009c0000080d3008502e800fcff3a000300e0004d
:1009d00002003b0060001000e080180000000600ec
:1009e0004f89de0082017800140137006011b800e1
:1009f0002201370081002000618055000b003d007e
:100a00000b00200061fe2f000100e1001d003400fa
:100a100082817100610164008904d1000884d300df
:100a20000000e800faff3a00710020006100640055
:100a300003007000020060000900320061044400fd
:100a4000e0844c000988a500050032008b05e80011
:100a50006808e10002003a008904d1000884d3004c
:100a6000f20f20000258e10005003d00c75ddd00e7
:100a7000f907b200898075000800780000000600c0
:100a80000bf827008b00780000000500c70ade0085
:100a9000f107b200f50fb20008003200e1cf4200ca
:100aa000020032000170a00024000500810f7000d8
:100ab000010032000408050044000500810f7000a9
:100ac00002003a00140005008502e9000000400021
:100ad00081c04800fcff3b000170a000240005001d
:100ae0000004be00e9ff07000003be000405be00cd
:100af0000200be00e5ff0700844f750000000600fd
:100b00000200be006450e100050036006420e100f0
:100b1000020036000968a30001003a000800be0088
:100b20000160a0004f0678004f05be004f04be00d4
:100b300000000600f0ff2f00f1ff2700f9ff37004b
:100b4000889fbe008a9fbe008c1f7800e4ff0700cc
:100b5000ebff330003866c006450e1002400320098
:100b60006420e100270032006150e10022003200e1
:100b70006120e100210032008b854200eb07b100cb
:100b80000134b800003ab8000804420089844a00e1
:100b9000013ab8000030b8008880400009014a00de
:100ba0000400330000004000818048000201490039
:100bb0008b05e900c909dd008301700001003200e6
:100bc00013002000c814de004814dd004709de00d1
:100bd0001200b200c808de000884700085ff07001c
:100be00001f0a1000cf0a70001f0a000cdff37003c
:100bf0006120e100cfff32000801be000200be000c
:100c0000f7ff37006150e100fcff3a00c9ff3700f1
:100c1000889fbe008a9fbe008c9fbe008205780020
:100c20000004be0099ff07000800be006420e10038
:100c30000700390002003a00f1ff2700f0ff2f0003
:100c40000160a000120220001266880055003700e3
:100c50006120e10003003a000b00a70001f8230027
:100c60005000370001f0a10002002100936424002d
:100c7000700007000800be0004003500b2fd20002f
:100c8000930c2400ac0007000004be000005eb003c
:100c90000b00a6004f0dde0001f0a1000004be0015
:100ca00032982f0023ea2300a5ff07000001eb0084
:100cb00003f023000b00a70003f8230084fe0700c5
:100cc00026ff07000000a7000a00a20044ff07005b
:100cd0000b00e000030032000200200003f02300bc
:100ce0007afe070001f0a2000006be00020020000c
:100cf0009304240092ff07000801be0074fe070061
:100d0000809fbe000c00be0022a22a00d3a72300b1
:100d10008bff07004f01be006dfe07000004be0000
:100d200001f0a10002002000039823004100070009
:100d30000800be00190035000001be0080ff07005a
:100d40000006be00b2c52900e36223007cff070055
:100d500022222b00f3942b005dfe07000c01be0045
:100d600077ff0700e273280083c0230058fe0700c6
:100d70000c01be0072ff070042aa2a00a3e22b006a
:100d800053fe07000c01be006dff07000801be0006
:100d90006bff07000801be004dfe07000a00a70018
:100da00001f0a2004f06be004f05be004f04be007a
:100db000000006000001eb0095ff3700af000700c0
:100dc0000400be0000000600889fbe008a9fbe008f
:100dd000841f780042ff07004f00780011003300a5
:100de000f0ff2f00838f6c0006003b0004056500b8
:100df0000a00a7000800370009f0a6001000200034
:100e000008003700820f5400838f5c000300390014
:100e10001000200001003e000000200009f0a700a3
:100e20000000ea004f05be004f04be000000e000d5
:100e30000000060014002000e3ff3700881f780040
:100e4000030478000300e00007003d00600010008c
:100e5000e080180060011900e081190002003b00e9
:100e600001f02d00030037000400070008f0a70080
:100e700001f0a0004f04780000000600889fbe002b
:100e80008a9fbe000082700004027100048271001b
:100e9000260032000004be000200be006011b8004f
:100ea0006b092000950220000182cf000a00390062
:100eb0000541b1000082cf00070039000541b100b3
:100ec0000982cf00040039000541b1000882cf003b
:100ed000010039000541b100054252001200320004
:100ee0000a003b0082817100610164008100d10031
:100ef0000080d3008984d3000884d3008b05e800e8
:100f00000442e800f7ff3a000700370008044400f5
:100f100089844c0000004800818048008b05e9006e
:100f20000442e900f9ff3a00b2fe07004f05be0097
:100f30004f04be000000060004002000000037003f
:100f4000889fbe008a9fbe008c1f78004f26dd0060
:100f5000e3fe0700eafe33006120e10043003200b7
:100f60006250e10041003e003e0039006420e10093
:100f70003c003200058255000f003b000402e800ef
:100f800038003a00800f5300818f5b003500340039
:100f90000800be0003f0a10001f0a60003f0a000cd
:100fa0000cf0a700cafd0700defe37000603430071
:100fb00087834b000c4646000005530081855b008b
:100fc000020033000a03be000c00a0000402e90086
:100fd000f6ff3b00850578000602430087824b0040
:100fe00004003a006000b80009f0a70001f0a0007a
:100ff000ccfe37000002520081825a000704e00054
:10100000040033000603430087834b008b05e9008f
:10101000faff3700090578000604be000203be008f
:101020006011b80073fe0700e00f5200e08f5a0015
:101030000700350002003c000c08a3000400320049
:101040000601be0003f0a0000cf0a700a0fd070001
:101050000a85680001f0a1000af0a70001f0a000d5
:10106000b0fe37000800be00aefe370010022000c0
:101070000cf0a60010668800aefe37006022b800b3
:10108000060220000000d0008180d2000482d2003d
:101090008582d2000000a0000202520083825a0022
:1010a000030031000202420083824a000000a100d6
:1010b0000603e900f3ff3a000000060015c0b30084
:1010c0000100200084cc2000206688003166880062
:1010d000054a78000000060084cc20008042eb0026
:1010e00094cf120002003a0010002000f3ff070026
:1010f0002066800031668000d2e62400631c240054
:101100002400070094032300050020000002420091
:1011100081824a00246688003566880005007800d0
:1011200000f0a100000006000002eb008002780041
:101130000500370061437a0061015100e0815900e8
:1011400086727a000402e800e00f5100e08f590037
:10115000f8ff3a0000000600000278000000eb00f3
:101160000401e80084027800030020006103b80055
:101170000000e8008600410065437b00e04f53001b
:10118000faff3a000482ea0004804000cf80de00cb
:1011900000000600020ab900001bb9000200b800f6
:0c11a000810042008100430000000600b6
:020000040000fa
:1011ac00000000000000000001010000010200002e
:1011bc0002030000040500000506000007090000fa
:1011cc000a0b00000c0e00000f110000121400009e
:1011dc0015170000191b00001d1f00002123000023
:1011ec00252800002a2c00002f3100003436000086
:1011fc00393b00003e41000043460000494c0000d2
:10120c004f520000555800005a5d00006164000008
:10121c00676a00006d70000073760000797c000036
:10122c0080830000868900008c8f0000929500005e
:10123c00989b00009ea20000a5a70000aaad00008c
:10124c00b0b30000b6b90000bcbe0000c1c40000c1
:10125c00c6c90000cbce0000d0d30000d5d700000b
:10126c00dadc0000dee00000e2e40000e6e800006a
:10127c00eaeb0000edee0000f0f10000f3f40000ea
:10128c00f5f60000f8f90000fafa0000fbfc00008b
:10129c00fdfd0000fefe0000feff0000ffff000051
:1012ac00ffff0000ffff0000fefe0000fefd00003f
:1012bc00fdfc0000fbfa0000faf90000f8f6000053
:1012cc00f5f40000f3f10000f0ee0000edeb00008f
:1012dc00eae80000e6e40000e2e00000dedc0000ea
:1012ec00dad70000d5d30000d0ce0000cbc9000067
:1012fc00c6c40000c1be0000bcb90000b6b30000fb
:10130c00b0ad0000aaa70000a5a200009e9b0000a3
:10131c0098950000928f00008c8900008683000055
:10132c00807c000079760000737000006d6a00000c
:10133c0067640000615d00005a58000055520000bf
:10134c004f4c000049460000434100003e3b00006a
:10135c0039360000343100002f2c00002a28000000
:10136c0025230000211f00001d1b00001917000081
:10137c0015140000121100000f0e00000c0b0000e1
:10138c000a09000007060000050500000403000020
:10139c00020200000101000001000000000000003a
:1013ac00fffe0000fdfc0000fbfa0000f9f8000055
:1013bc00f7f60000f5f40000f3f20000f1f0000085
:1013cc00efee0000eceb0000eae90000e8e70000bb
:1013dc00e6e50000e4e30000e2e10000e0df0000ed
:1013ec00dedd0000dcdb0000dad90000d8d700001d
:1013fc00d6d50000d4d30000d2d10000d0cf00004d
:10140c00cecd0000cccb0000cac90000c7c600007e
:10141c00c5c40000c3c20000c1c00000bfbe0000b4
:10142c00bdbc0000bbba0000b9b80000b7b60000e4
:10143c00b5b40000b3b20000b1b00000afae000014
:10144c00adac0000abaa0000a9a80000a7a6000044
:10145c00a5a30000a2a10000a09f00009e9d00007b
:10146c009c9b00009a9900009897000096950000ac
:10147c009493000092910000908f00008e8d0000dc
:10148c008c8b00008a89000088870000868500000c
:10149c0084830000828100007f02000003040000ae
:1014ac000506000007080000090a00000b0c0000ec
:1014bc000d0e00000f10000011120000131400009c
:1014cc001516000017180000191a00001b1c00004c
:1014dc001d1e00001f2000002122000023240000fc
:1014ec0026270000282900002a2b00002c2d0000a4
:1014fc002e2f000030310000323300003435000054
:10150c0036370000383900003a3b00003c3d000003
:10151c003e3f0000404100004243000044450000b3
:10152c0046470000484a00004b4c00004d4e00005e
:10153c004f5000005152000053540000555600000b
:10154c0057580000595a00005b5c00005d5e0000bb
:10155c005f6000006162000063640000656600006b
:10156c0067680000696a00006b6c00006d6f00001a
:10157c0070710000727300007475000076770000c3
:10158c00787900007a7b00007c7d00007e7f000073
:10159c000001000002030000040500000607000023
:1015ac00080900000a0b00000c0d00000e0f0000d3
:1015bc00101100001314000015160000171800007d
:1015cc00191a00001b1c00001d1e00001f2000002b
:1015dc0021220000232400002526000027280000db
:1015ec00292a00002b2c00002d2e00002f3000008b
:1015fc003132000033340000353600003839000039
:10160c003a3b00003c3d00003e3f000040410000e2
:10161c004243000044450000464700004849000092
:10162c004a4b00004c4d00004e4f00005051000042
:10163c0052530000545500005657000058590000f2
:10164c005a5c00005d5e00005f600000616200009b
:10165c00636400006566000067680000696a00004a
:10166c006b6c00006d6e00006f70000071720000fa
:10167c00737400007576000077780000797a0000aa
:10168c007b7c00007d7e0000808100008283000056
:10169c008485000086870000888900008a8b000002
:1016ac008c8d00008e8f00009091000092930000b2
:1016bc009495000096970000989900009a9b000062
:1016cc009c9d00009e9f0000a0a10000a2a3000012
:1016dc00a5a60000a7a80000a9aa0000abac0000ba
:1016ec00adae0000afb00000b1b20000b3b400006a
:1016fc00b5b60000b7b80000b9ba0000bbbc00001a
:10170c00bdbe0000bfc00000c1c20000c3c40000c9
:10171c00c5c60000c7c90000cacb0000cccd000074
:10172c00cecf0000d0d10000d2d30000d4d5000021
:10173c00d6d70000d8d90000dadb0000dcdd0000d1
:10174c00dedf0000e0e10000e2e30000e4e5000081
:10175c00e6e70000e8e90000eaeb0000ecee000030
:10176c00eff00000f1f20000f3f40000f5f60000d9
:10177c00f7f80000f9fa0000fbfc0000fdfe000089
:10178c00ffff0000ffff0000ffff0000ffff000055
:10179c00ffff0000ffff0000ffff0000ffff000045
:1017ac00ffff0000ffff0000ffff0000ffff000035
:1017bc00ffff0000ffff0000ffff0000ffff000025
:1017cc00ffff0000ffff0000ffff0000ffff000015
:1017dc00ffff0000ffff0000ffff0000ffff000005
:1017ec00ffff0000ffff0000ffff0000ffff0000f5
:1017fc00ffff0000ffff0000ffff0000ffff0000e5
:10180c00ffff0000ffff0000ffff0000ffff0000d4
:10181c00ffff0000ffff0000ffff0000ffff0000c4
:10182c00ffff0000ffff0000ffff0000ffff0000b4
:10183c00ffff0000ffff0000ffff0000ffff0000a4
:10184c00ffff0000ffff0000ffff0000ffff000094
:10185c00ffff0000ffff0000ffff0000ffff000084
:10186c00ffff0000ffff0000ffff0000ffff000074
:10187c00ffff0000ffff0000ff0000000000000061
:10188c00000000000000000000000000000000004c
:10189c00000000000000000000000000000000003c
:1018ac00000000000000000000000000000000002c
:1018bc00000000000000000000000000000000001c
:101aec00ffff0000ff0000000000000000000000ed
:101afc0000000000000000000000000000000000da
:101b0c0000000000000000000000000000000000c9
:101b1c0000000000000000000000000000000000b9
:101b2c0000000000000000000000000000000000a9
:101b3c000000000000000000000000000000000099
:101b4c000000000000000000000000000000000089
:101b5c000000000000000000000000000000000079
:101b6c005031000064750000ddaf0000038d0000f3
:101b7c00b1fe0000d7e30000d88e00008d85000078
:101b8c004cd90000fbf100004bf80000cb4b0000df
:101b9c00f84600002ce700001335000090c7000049
:101bac00d0880000ba700000554f000004520000ad
:101bbc007f8d000082dd0000d82f0000236600001e
:101bcc0083d200009b5600000ef30000f6eb0000e1
:101bdc00a7c7000063380000dfcd0000d1ee000085
:101bec0004fc00000f85000047b80000adbd0000ec
:101bfc00ec8d0000c07000004f3500009108000013
:101c0c00a67d000039430000aac00000a7ae00006a
:101c1c0084130000e4040000448e00009a4e00007f
:101c2c0016e000006a330000313c0000a85f0000a1
:101c3c003cd8000080ea00004d370000c8250000a9
:101c4c00ba9a00002e7700004af00000252300000d
:101c5c0099580000743d00006d7a00003ded0000c5
:101c6c00d4a30000b55b00005bc60000fcb2000012
:101c7c0052130000150a00003f8a00000285000084
:101c8c00ade700008123000055bc00009cf700006c
:101c9c008cbf00000595000052cc0000e60b000044
:101cac004ef6000081d9000096d90000afa30000c9
:101cbc008a910000f7830000e1b90000f3420000b4
:101ccc009f6600001847000064170000f17b0000bd
:101cdc00b3be0000e2a300006dcb0000091e0000a3
:101cec00e5e10000b9530000874f0000df930000ce
:101cfc001fcb000082630000e45600009c380000fb
:101d0c00edd800000a9100000ab4000041cf000099
:101d1c0002440000271d000065340000a45100009f
:101d2c0071410000bfb7000000510000d46c0000ee
:101d3c00bbdb00003cc10000bea500002518000064
:101d4c007de80000a2290000e29800009c6e0000d3
:101d5c004e6f000020730000746f00007269000069
:101d6c00657300002c0000004a75000073740000bd
:101d7c0020720000616900006e6200006f77000045
:101d8c00732c000020000000616e00006420000035
:101d9c0074610000696c0000732e00002e2e000090
:101dac0000480000692e0000204800006f770000fa
:101dbc0020270000626f00007574000000610000b5
:101dcc002071000075690000636b00002073000037
:101ddc00746f0000727900003f000000486500003d
:101dec007861000064650000636900006d610000ab
:101dfc006c200000416c0000696500006e730000ef
:101e0c0000620000792000006a6100006d6900002a
:101e1c00736e0000656d00006f000000492000002b
:101e2c00736800006f7500006c640000206800008f
:101e3c0061760000652000000073000074610000f2
:101e4c007274000065640000207300006f6f000066
:101e5c006e650000722e00000054000068610000e6
:101e6c006e6b000073200000746f000020410000b6
:101e7c00726b00006f2c0000004c000061790000b8
:101e8c00657200004f6e0000652c0000204e0000b3
:101e9c00534c00002c000000626c000064650000d4
:101eac00776f00006c6600002c200000616e000053
:101ebc00642000004d49000054000000492000003f
:101ecc006c6f0000766500002074000068690000eb
:101edc0073200000626f000061720000642100003a
:101eec0000570000686500006e270000732000009a
:101efc0074680000652000006e65000078740000b6
:101f0c00007000006172000074790000213f000035
:041f1c0021000000a0
:020000040000fa
:101f200010100000080300000003000003e400009c
:101f30000303000003e400000303000003030000a8
:101f400003030000030300000303000003e4000098
:101f50000303000003030000e403000003e40000a7
:101f600003f5000003030000030300000303000067
:101f700003030000e4030000e4e4000003030000a6
:101f8000e4030000e40300000303000003f5000085
:101f900003030000e4e40000e4e40000e4030000c4
:101fa000e4030000e4030000030300000303000057
:101fb000e4030000e4e40000e4e40000e4e40000e2
:101fc000e40300000303000003030000e403000037
:101fd000e4e4000003e40000e4e40000f5e40000b1
:101fe000e4030000e4f5000003030000e4e4000063
:101ff000e4e40000f5e40000e4e40000e4f500009f
:10200000e4e40000e4e4000003e4000003e4000072
:10201000e4e40000e4e40000e4f50000e4f500007e
:10202000e4e40000e4e4000003e4000003e4000052
:10203000e4e40000e4f50000e4f50000e4f500004d
:10204000f5e40000e4e4000003e40000e4e4000040
:10205000e4e40000f5e40000f5f50000f5f500000b
:10206000f5f50000e4030000e4e40000e4e400000f
:10207000e4f50000f5f50000f5ff0000f5f50000bf
:10208000e4f50000e4e40000e4030000e4e4000000
:10209000f5f50000f5ff0000f5ff0000f5ff00007a
:1020a000f5f50000e4e40000e4030000e4e40000cf
:1020b000f5f50000ffff0000ffff0000fff5000046
:1020c000f5e40000e4e400000303000003e4000082
:1020d000e4f50000f5ff0000ffff0000fff5000041
:1020e000f5e40000e4e400000303000003e4000062
:1020f000e4e40000f5f50000f5f50000f5e400006b
:10210000e4e40000e4030000030300000303000014
:1021100003e40000e4e40000e4e40000e4e4000080
:102120000303000003030000031000001008000078
:10213000030000000303000003030000030300008a
:102140000303000003e400000303000003e40000b5
:10215000030300000303000003f5000003e4000094
:1021600003030000e40300000303000003e4000095
:102170000303000003030000e4030000e403000085
:1021800003e40000e4030000e40300000303000094
:102190000303000003030000e4030000e403000065
:1021a000e4e40000e4e40000e403000003f50000c0
:1021b000030300000303000003030000e4e4000045
:1021c000e4e40000e4e40000e4030000e4030000b1
:1021d0000303000003f50000e4030000e4e4000052
:1021e000f5e40000e4e4000003e40000e403000080
:1021f000e403000003e40000e4e40000e4f5000070
:10220000e4e40000e4e40000f5e40000e4e400009d
:10221000e403000003e40000e4e40000e4f500004f
:10222000e4f50000e4e40000e4e40000e4e400007d
:1022300003e4000003e40000e4e40000f5f500001e
:10224000e4f50000e4f50000e4e40000e4e400004c
:1022500003e40000e4030000e4f50000f5f50000ed
:10226000f5f50000f5e40000f5e40000e4e400000a
:10227000e4e40000e4e40000e4f50000e4f500001c
:10228000f5ff0000f5f50000f5f50000e4e40000be
:10229000e4e40000e4e40000e4f50000f5ff0000e1
:1022a000f5ff0000f5ff0000f5f50000f5e4000083
:1022b000e403000003e40000e4e40000f5f500009e
:1022c000ffff0000ffff0000fff50000f5e4000045
:1022d000e403000003e40000e4e40000f5f500007e
:1022e000ffff0000ffff0000f5f50000e4e4000040
:1022f0000303000003030000e4e40000e4e4000042
:10230000f5f50000f5f50000f5e40000e4e4000058
:1023100003030000030300000303000003e40000c4
:10232000e4e40000e4e40000e4e40000030300004f
:102330000303000008080000080300000003000079
:10234000e4030000e40300000303000003030000b3
:102350000303000003e40000030300000303000084
:1023600003030000e4e40000e403000003030000b2
:10237000e4e40000e4e40000f5e40000e4e400002c
:10238000e4e40000f5f50000f5e40000e4e40000fa
:10239000e4f50000f5ff0000f5f50000e40300009f
:1023a000e4f50000ffff0000f5e40000e403000096
:1023b000e4e40000f5f50000e4e400000308000098
:1023c00008080000030000000303000003030000ee
:1023d000030300000303000003e40000e403000023
:1023e000e4e400000303000003030000e4e4000051
:1023f000e4e40000e403000003e40000e4e400007f
:10240000e4f50000e4e4000003e40000f5e400006b
:10241000e4e40000e4030000e4e40000e4f500006c
:10242000f5f50000e4e4000003e40000f5ff00001f
:10243000ffff0000f5e4000003e40000e4f5000005
:10244000f5f50000e40300003120000008ff000063
:1024500000ff0000ffff0000ffff0000ffff000083
:10246000ffff0000ffff0000ffff0000ffff000074
:10247000ffff0000ffff0000ffff0000ffff000064
:10248000ffff0000ffff0000ffff0000ffff000054
:10249000ffff0000ffff0000ffff0000ffff000044
:1024a000ffff0000ffff0000ffff0000ffff000034
:1024b000ffff0000e0ff0000ffe00000ffff000062
:1024c000e0e00000e0e00000ffff0000e0ff0000af
:1024d000e0e50000ffff0000d8d80000d8ff0000b2
:1024e000ff1d00001d1d00001dff00001d1d000040
:1024f0001d1d00001d2700002727000027ff0000ea
:1025000027c30000ffc30000c3ff0000ffe5000079
:10251000ffff0000ffe0000000ff0000e0000000ff
:10252000e0ff000000000000e0000000ffe000000d
:10253000e0ff000000d80000ffd80000000000000d
:10254000d81d0000ff000000000000001dff00007b
:1025500000000000001d0000000000002727000010
:1025600000270000c3c30000ff000000c3ff0000fd
:10257000e5000000ffff0000e0000000ffe00000b9
:1025800000e0000000ff0000ffe0000000ff00008e
:10259000e0e0000000ff0000d8000000d8000000cc
:1025a000ffd800001d000000ffff0000ff1d00001d
:1025b00000ff0000ffff000027000000ff270000d1
:1025c00027000000c3c30000c3000000ffe50000b7
:1025d00000e0000000ff0000ffe0000000ff00003e
:1025e000e0000000e0000000ffff0000ffe000004e
:1025f000e0ff0000e0000000ffd8000000d800006d
:1026000000ff00001d1d000000ff0000ffff000094
:102610001d000000ffff0000ff27000000ff00007a
:102620002727000000c30000c3c3000000ff000014
:10263000e5000000e0000000ffff0000e0000000f7
:10264000ffe0000000e0000000ff0000ffff0000ce
:10265000e0e0000000e0000000ff0000d800000003
:10266000d8000000ff1d00001d000000ffff00005b
:10267000ff1d000000ff0000ffff0000270000001a
:10268000ff27000027000000c3c30000c3000000b4
:10269000ffe5000000e0000000ff0000ffe0000098
:1026a00000ff0000e0000000e0000000ffff00006d
:1026b000ffe00000e0000000e5000000ffd800009f
:1026c00000d8000000ff00001d1d000000ff0000fa
:1026d000ffff00001d000000ffff0000ff270000bb
:1026e00000ff00002727000000c30000c3c3000054
:1026f00000ff0000e5000000e0000000ffff000018
:10270000e0e00000e0e0000000ff0000e0e000008a
:10271000e0e00000ffe0000000e5000000ff000036
:10272000d8000000d8000000ff1d0000001d0000c0
:102730001d1d00001d1d000000ff0000ffff000028
:1027400027000000ff270000c3000000c3c30000f3
:10275000c3000000ffe0000000e0000000ff0000f8
:10276000ffe0000000000000e0000000e0ff0000cb
:102770000000000000e00000e0000000e5d80000dc
:10278000d8d8000000d8000000ff00001d1d000088
:10279000ff000000000000001d000000ffff00001f
:1027a000ff27000000ff000027c3000000c3000057
:1027b000c3c30000e5e50000e0000000e000000009
:1027c000ffff0000e0000000ffe0000000e000006c
:1027d00000ff0000ffff0000e0e0000000d8000064
:1027e00000000000d8000000d8000000ff1d00001d
:1027f0001d000000ffff0000ff1d000000ff0000a3
:10280000ffff000027000000ff270000c3000000ba
:10281000c3c30000c300000000e0000000e00000af
:1028200000ff0000ffe0000000ff0000e0000000eb
:10283000e0000000ffff0000ffe00000e5000000f6
:10284000d8000000ffd8000000d8000000ff000002
:102850001d1d000000ff0000ffff00001d00000024
:10286000ffff0000ff27000000ff0000c3c30000bf
:1028700000c30000c3e5000000ff0000e00000000e
:10288000e0000000ffff0000e0000000ffe00000ab
:1028900000e0000000ff0000ffe00000ff0000007b
:1028a000d8d8000000ff0000d80000001d00000084
:1028b000ff1d00001d000000ffff0000ff1d0000c5
:1028c00000ff0000ffff000027000000ffc3000022
:1028d000c3000000c3c30000e5000000ffe00000eb
:1028e00000e0000000ff0000ffe0000000ff00002b
:1028f000e0000000e0000000ffff0000e00000003a
:10290000ffd80000d8000000ffd80000001d000024
:1029100000ff00001d1d000000ff0000ffff000081
:102920001d000000ffff0000ff27000000ff000067
:10293000c3c3000000c30000e5e5000000ff000085
:10294000e0000000e0000000ffff0000e0000000e9
:10295000ffe0000000ff0000e0e00000e0e0000019
:1029600000ff0000d8d8000000ff0000d8000000e1
:102970001d1d00001dff0000001d00001d1d0000aa
:102980001dff000027270000272700002727000041
:10299000c3c3000000c30000ffe50000e500000025
:1029a000ffe0000000ff0000e0e00000e0ff0000aa
:1029b00000ff0000ff000000ffff0000000000001b
:1029c00000000000ffff000000000000ffff00000b
:1029d00000ff00000000000000ff0000ff000000fa
:1029e0000000000000ff00000000000000000000e8
:1029f0000000000000000000ff000000ff000000d9
:102a000000ff0000ff000000ffff000000000000ca
:102a1000ffff0000ffff0000ffff0000ffff0000be
:102a2000ffff0000ffff0000ffff0000ffff0000ae
:102a3000ffff0000ffff0000ffff0000ffff00009e
:102a4000ffff0000ffff0000ffff0000ffff00008e
:102a5000ffff0000ffff0000ffff0000ffff00007e
:102a6000ffff0000ffff0000ffff0000ffff00006e
:102a7000ffff0000ffff0000ffff0000ffff00005e
:102a8000ffff0000ffff0000ffff0000d8d800009c
:102a9000ff1d0000ffff00001d1d00001d1d0000a8
:102aa0001dff00001d1d0000272700002727000034
:102ab000ff270000ffc30000c3c30000ffff0000aa
:102ac000ffff0000ffff0000ffff0000ffff00000e
:102ad000ffff0000ffff0000ffff0000ffff0000fe
:102ae000ffff0000ffff0000ffff0000d8ff000015
:102af00000d800001d000000ffff0000001d0000c6
:102b0000000000001dff0000000000000027000082
:102b100027000000c3c30000ff0000000000000009
:102b2000ffff0000ffff0000ffff0000ffff0000ad
:102b3000ffff0000ffff0000ffff0000ffff00009d
:102b4000ffff0000ffff0000ffff0000ffd80000b4
:102b500000ff00001d1d000000ff0000ffff00003f
:102b60001d000000ff1d000000ff0000ffff00002f
:102b70002727000000c30000c3000000ffff000083
:102b8000ffff0000ffff0000ffff0000ffff00004d
:102b9000ffff0000ffff0000ffff0000ffff00003d
:102ba000ffff0000ffff0000ffff0000ffff00002d
:102bb000d8000000ff1d00001d000000ffff000006
:102bc000ff1d000000ff00001d000000ffff0000cf
:102bd000ff27000027000000c3c3000000ff000023
:102be000ffff0000ffff0000ffff0000ffff0000ed
:102bf000ffff0000ffff0000ffff0000ffff0000dd
:102c0000ffff0000ffff0000ffff0000ffff0000cc
:102c1000ffd8000000ff00001d1d000000ff0000a5
:102c2000ffff00001d000000ff1d000000ff00006e
:102c3000ffff00002727000000c30000c3000000c2
:102c4000ffff0000ffff0000ffff0000ffff00008c
:102c5000ffff0000ffff0000ffff0000ffff00007c
:102c6000ffff0000ffff0000ffff0000ffff00006c
:102c7000ffff0000d8000000ff1d00001d00000045
:102c8000ffff0000ff1d000000ff00002700000004
:102c9000ffff0000ff270000c3000000c3c30000c7
:102ca00000ff0000ffff0000ffff0000ffff00002b
:102cb000ffff0000ffff0000ffff0000ffff00001c
:102cc000ffff0000ffff0000ffff0000ffff00000c
:102cd000ffff0000ffd8000000ff00001d1d0000e6
:102ce00000ff0000ffff00001d000000ffff0000cc
:102cf000272700002727000027c3000000c300008b
:102d000000c30000e5e50000ffff0000ffff00003a
:102d1000ffff0000ffff0000ffff0000ffff0000bb
:102d2000ffff0000ffff0000ffff0000ffff0000ab
:102d3000ffff0000ffff0000d81d00001d1d000068
:102d40001d000000ffff0000ff1d000000ff00004d
:102d500027ff00000000000000270000c300000063
:102d6000c3000000ff000000e5000000ffff0000be
:102d7000ffff0000ffff0000ffff0000ffff00005b
:102d8000ffff0000ffff0000ffff0000ffff00004b
:102d9000ffff0000ffff0000ffd800000000000060
:102da0001d1d000000ff0000ffff00001d000000cf
:102db000ff27000000ff0000ffff0000c3c300006a
:102dc00000c3000000ff0000ffff0000e0ff000064
:102dd000ffff0000ffff0000ffff0000ffff0000fb
:102de000ffff0000ffff0000ffff0000ffff0000eb
:102df000ffff0000ffff0000ffff00001d000000bc
:102e0000ff1d00001d000000ffff0000ff1d00006f
:102e100000ff000027000000ffff0000ffc30000cc
:102e2000c3000000c3000000ffff0000ffe000003f
:102e300000ff0000ffff0000ffff0000ffff000099
:102e4000ffff0000ffff0000ffff0000ffff00008a
:102e5000ffff0000ffff0000ffff0000ff1d00005c
:102e600000ff00001d1d000000ff0000ffff00002c
:102e70001d000000ff27000000ff0000ffff000012
:102e8000c3c3000000c3000000ff0000ffff0000fc
:102e9000e0000000ffff0000ffff0000ffff000058
:102ea000ffff0000ffff0000ffff0000ffff00002a
:102eb000ffff0000ffff0000ffff0000ffff00001a
:102ec0001d000000ff1d00001d000000ffff0000ae
:102ed000ff1d000000ff000027000000ffff0000b2
:102ee000ffc30000c3000000c3000000ffff00009c
:102ef000e0ff000000ff0000ffff0000ffff0000f8
:102f0000ffff0000ffff0000ffff0000ffff0000c9
:102f1000ffff0000ffff0000ffff0000ffff0000b9
:102f2000ff1d000000ff00001d0000001d1d00002f
:102f30001d1d00002727000027ff00002727000095
:102f4000c3c30000c3000000c3e50000e5e00000cb
:102f5000e0e0000000ff0000ffff0000ffff0000b6
:102f6000ffff0000ffff0000ffff0000ffff000069
:102f7000ffff0000ffff0000ffff0000ffff000059
:102f8000ffff0000ff000000ffff000000ff000047
:102f900000000000000000000000000000ff000032
:102fa000000000000000000000ff00000000000022
:102fb0000000000000000000ffff0000ffff000015
:102fc000ffff0000ffff0000ffff0000ffff000009
:102fd000ffff0000ffff0000ffff0000ffff0000f9
:102fe000ffff0000ffff0000ffff0000ffff0000e9
:102ff000ffff0000ffff0000ffff0000ffff0000d9
:10300000ffff0000ffff0000ffff0000ffff0000c8
:10301000ffff0000ffff0000ffff0000ffff0000b8
:10302000ffff0000ffff0000ffff0000ffff0000a8
:10303000ffff0000ffff0000ffff0000ffff000098
:10304000ffff0000ffff0000ffff0000ffff000088
:10305000ffff0000ffff0000ffff0000ffff000078
:10306000ffff0000ffff0000ffff0000ffff000068
:10307000ffff0000ffff0000ffff0000ffff000058
:10308000ffff0000ffff0000ffff0000ffff000048
:10309000ff1d0000100800000000000025250000b2
:1030a000252500002525000029250000000000003e
:1030b000252500002525000005250000050000004d
:1030c00000000000000000000025000025050000b1
:1030d00005000000006f0000737300004f730000d4
:1030e0004f73000073000000007300007373000052
:1030f00073730000737300002500000000290000b6
:1031000073730000737300004f7300007325000099
:103110006f730000736f0000736f00002a7300006c
:1031200000000000737300007373000073730000ed
:1031300073290000000000002a7300007373000070
:103140007373000073730000256f00007373000039
:103150006f4e00006f4f000073000000007300000e
:10316000734f00004a4a0000737300002a000000f9
:10317000004a000073730000734e00007373000078
:10318000732500006f73000073250000004a0000e3
:1031900073730000000000007373000073000000f0
:1031a000257300006f4a0000000000004e7300000d
:1031b000734f0000002500006f730000294f0000ce
:1031c000737300004a0000004f730000730000009a
:1031d0000073000073730000002900007373000087
:1031e0004a000000004e0000737300004e00000013
:1031f000000500004a0000004f730000732a000021
:10320000004f000073730000000000006f730000a7
:103210007300000029730000734a000000000000e2
:103220004f730000732a000000000000000000003f
:10323000006f0000737300002a0000004f7300004d
:1032400073000000006f0000734f000000290000b1
:10325000737300004a000000004f00007373000009
:10326000736f00004f4f00004f2500004f730000a8
:10327000732a0000004f000073730000000000007c
:103280006f7300007300000025730000734a000094
:10329000000000004f730000734f00006f4f0000ec
:1032a0004f6f0000294f0000737300002a000000d8
:1032b0004f73000073000000006f00007373000084
:1032c00000250000737300004e000000004f000056
:1032d00073730000737300006f4e00004f250000f1
:1032e0004f73000073290000004f0000737300004b
:1032f000000000006f7300007300000029730000dd
:10330000734e0000000000004f7300006f2a0000a1
:103310000000000000000000004f00007373000078
:103320002a0000004f73000073000000006f0000cf
:103330007373000000250000737300004e0000004e
:10334000004f0000737300002500000005250000f9
:10335000250000006f730000732a0000044f000076
:10336000737300000000000073730000730000001e
:1033700025730000734e0000000000004e73000033
:1033800073290000006f0000737300002a730000af
:103390007373000073730000737300006f0000000c
:1033a00000730000737300000025000073730000b9
:1033b0004f000000004e00007373000073730000a4
:1033c00073730000732a00004f73000073730000d2
:1033d00073730000734f0000000000006f73000063
:1033e0007300000029730000734f0000000000000c
:1033f0004e7300007373000073730000737300005a
:103400004a4a0000734f00006f6f0000734f0000c6
:103410004a000000004f0000734f0000002500002c
:103420004f4f00004f000000004a00002a2a000011
:10343000737300006f4f000073250000311000000f
:103440000800000000000000000000000000000074
:10345000000000000000000000000000080c000058
:10346000081000001014000004000000001c000000
:103470000c04000000000000080c00003c080000e4
:1034800000000000080400000c0c00000c08000004
:103490000400000000040000101000000c0c0000ec
:1034a0000400000000000000001800005d1c000087
:1034b00000000000000000000000000014140000e4
:1034c000181c00005d3c00005d10000000000000c2
:1034d0001c7e00007e080000005d00007e5d000094
:1034e00008000000145d00005d7e00005d3c0000ef
:1034f0007e5d00000c0000001c7e00005d3c0000b2
:103500003c1c00001c1c0000000000003c5d000092
:103510007e0000000000000000000000001000001d
:10352000181800003c3c00001c5d00001c0000005e
:10353000003c00007e7e0000080800007e7e000047
:103540007e040000001800005d5d00007e5d00004c
:103550005d7e00007e100000001c00007e5d00000b
:103560003c3c00001c1c000018000000007e000015
:103570007e7e00000000000000000000000000004f
:1035800010180000181000000c3c00007e1c000009
:10359000000000001c7e00007e0c0000005d0000aa
:1035a0007e7e0000000000001c7e00007e7e000089
:1035b0001c5d00007e7e0000100000003c7e0000cc
:1035c0005d1c00001c3c00001c1c000000000000f2
:1035d0007e7e00007e000000000000000000000071
:1035e0000018000018180000080000001c5d000012
:1035f0003c000000001c00007e7e00000c0000006b
:103600007e7e00007e000000001c00007e7e000028
:103610003c000000103c00007e140000003c000054
:103620007e5d0000080000001c3c00001c00000043
:10363000007e00007e7e0000000000000000000010
:10364000000000001814000018080000003c0000f2
:103650005d1c0000000000001c7e00007e080000d1
:10366000007e00007e7e0000000000001c7e000046
:103670007e1c0000000400000c1800000800000080
:103680005d7e00007e040000003c00003c1c000049
:10369000000000007e7e00007e00000000000000b0
:1036a00000000000001800001c18000008000000c6
:1036b0003c5d00001c000000001c00007e7e00003d
:1036c0000c0000005d7e00005d000000001c00009a
:1036d0007e7e0000180000000000000000000000d6
:1036e000005d00007e7e00000c0400003c3c0000f9
:1036f00010000000007e00007e7e00000000000040
:103700000000000000000000141c00001c08000065
:10371000001c00005d1c0000000000001c7e00007a
:103720007e5d00003c7e00007e7e00000000000008
:103730003c7e00007e7e00005d1c00001c3c000002
:10374000100000007e7e00007e1c00001c3c00007b
:103750001c000000000000007e7e00007e000000d3
:103760000000000000000000001800001c1c000009
:103770000c0800003c3c000018000000001c000089
:103780007e7e00007e7e00007e7e00005d000000e8
:10379000003c00005d5d00003c5d00001c3c000042
:1037a0005d140000005d00007e5d00005d7e000095
:1037b0005d1c000000000000007e00007e7e000016
:1037c0000000000000000000000000001c1c0000c1
:1037d0001c3c00003c3c00005d14000000000000a8
:1037e000040800001c7e00007e7e00007e080000b1
:1037f000000000003c7e00005d7e00005d5d00007a
:103800001c1c0000100000005d7e00007e3c0000db
:103810005d5d00007e140000000000007e7e000060
:103820007e000000001c00003c1c00000010000096
:103830005d1c00001c3c00003c3c0000140000002b
:1038400000000000001c00007e7e00007e100000d2
:1038500000000000003c00005d5d00001804000056
:103860000404000008000000005d00007e7e0000ef
:10387000100800007e5d00005d000000007e00007a
:103880007e7e0000000000007e7e00007e000000c2
:103890000c5d000018100000145d00001c140000f6
:1038a00000000000000000001c7e00007e3c0000c4
:1038b00000000000000000001c5d00007e10000001
:1038c000000c000010140000040000005d7e0000e9
:1038d0007e100000087e00007e7e000000000000d8
:1038e0007e7e00007e040000047e00007e7e0000dc
:1038f000001000001c1c0000040c00001c1c000038
:103900001c00000000000000001c00007e7e000083
:103910003c00000000000000001c00005d7e000074
:10392000140400003c7e00007e140000005d0000d6
:103930007e7e0000180c00007e7e00005d0400000a
:10394000007e00007e7e00007e7e00007e7e000005
:103950007e000000181c00001c040000081c000071
:103960003c1c000000000000000000001c7e000065
:103970007e3c000000000000000000001c7e0000f3
:103980007e7e00007e5d00007e7e0000180000004c
:103990005d7e00007e180000107e00007e5d00004d
:1039a000080000007e7e00007e7e00007e7e00001b
:1039b0007e7e0000003c00003c1c0000000800006f
:1039c0001c1c00001c00000000000000001800008b
:1039d0007e7e00003c00000000000000001c000093
:1039e0005d7e00005d7e00005d7e00007e180000b0
:1039f000005d00007e7e0000180c00007e7e00004e
:103a00003c080000001c00001c5d00007e7e0000e1
:103a10007e7e00003c000000141c0000140000002a
:103a2000041c0000181c0000000000000000000042
:103a30000c1c00001c18000000000000000000002a
:103a40001c140000147e00005d5d00003c5d000061
:103a5000100000005d7e00005d100000041c0000ee
:103a60003c3c0000081d00001008000000000000a1
:103a70000c100000100c00001010000014100000ca
:103a8000000000000c0c0000100c00000c0c0000ea
:103a90000c0000000000000000080000040c000002
:103aa0000c0c000008040000005d00007e7e000099
:103ab0003d7e00003c7e00005e000000007e0000b5
:103ac0007e7e00005e5e00007e5e00001000000052
:103ad000001400005d5e00007e5e00003d7e000080
:103ae0005e0c00005d7e00007e5d00007e5d0000db
:103af000187e0000000000007e7e00007e5e000058
:103b00007e5e00007e14000000000000185e0000d1
:103b10005e7e00005e5e00007e7e0000105d0000a4
:103b20007e7e00003d1c00005d3c00007e00000029
:103b3000007e00007e3d0000181c00007e5e00003c
:103b400018000000001c00007e7e00007e1c0000ab
:103b50005d7e00007e1000005d7e00005e140000af
:103b6000001c00007e7e0000000000005e7e000061
:103b70007e000000105d00005d1c000000000000e1
:103b80001c7e00007e3c0000001000003d7e000016
:103b9000143d00007e5e00001c0000003c7e000022
:103ba0007e040000005e00007e7e00000014000025
:103bb0005e7e00001c000000001c00007e7e0000f5
:103bc0001c000000040c0000180800003c7e0000ef
:103bd0007e140000003c00007e7e0000000000001b
:103be0005d7e00007e000000145e00007e1c000070
:103bf000000000001c7e00007e1800000000000095
:103c000000000000003d00007e7e00001800000063
:103c10003c7e00007e000000005d00007e3d000054
:103c2000001400007e7e00001c000000003c00002c
:103c30007e7e00007e5d00001c1c00003c10000029
:103c40003d7e00007e180000003c00007e7e0000eb
:103c5000000000005d7e00007e000000145e000099
:103c60005e180000000000003c5d00005e3d0000aa
:103c70005d1c00003c5d0000143d00007e7e0000e5
:103c8000140000003c7e00007e000000005d00008b
:103c90007e5e0000001000007e7e00001c00000020
:103ca000003d00007e5e00007e5e00005d1c0000a6
:103cb0001c1000003c7e00007e140000001c000070
:103cc0007e7e0000000000005d7e00007e0000009f
:103cd000147e00007e1c0000000000003c5e00001e
:103ce0005d1800000404000004080000003c00000f
:103cf0007e7e0000180000003c7e00007e00000078
:103d0000005d00007e7e0000001000007e7e00004e
:103d10001c000000001c00005e7e0000100000007f
:103d20000c100000140400005d7e00007e180000ee
:103d3000083c00007e5e0000000000005d7e000088
:103d40005e000000107e00007e1c000000000000ed
:103d50001c5e00007e140000043d00007e7e00001a
:103d6000145e00007e7e00007e7e00007e7e0000ed
:103d70005d000000005d00007e7e00000410000079
:103d80007e7e00003c000000001c00007e7e0000e3
:103d90007e7e00005e7e00007e1800003c7e0000fb
:103da0007e7e00007e7e00007e3c00000000000061
:103db0005d7e00007e040000147e00007e3c00005a
:103dc000000000001c5d00007e5d00007e5e0000c3
:103dd0007e7e0000181c00005d3d00003d5d00007f
:103de0005e3c00001c000000003d00005d3d000046
:103df000041000003d3d00003c000000001c0000dd
:103e0000141400007e5d00005d3d00005d100000a8
:103e10000d0e000008e3000000e3000000e30000d6
:103e2000e3e30000e3e3000000e30000e3e300005d
:103e3000e3e3000000f2000000e30000e3e3000021
:103e400000f2000000e30000e3e30000e3000000f4
:103e5000f20000000000000000000000f20000007e
:103e6000e3e30000e3e300000000000000000000c6
:103e7000000000000000000000e30000e3e3000099
:103e8000e3000000fcfc00000000000000fc00005b
:103e9000fc000000e3e30000e3e30000000000009a
:103ea00000000000f20000000000000000e300003d
:103eb000e3e30000e3e30000006d00006d0000009c
:103ec0006d6d000000e30000e3e30000e3e30000a9
:103ed000e3e30000000000000000000000e3000039
:103ee000e3e30000e3e30000e3e30000e30000009d
:103ef000ffff0000ff000000e3e30000e3e3000039
:103f0000e3e30000e300000000ff0000ffff00000b
:103f100000000000e300000000000000e3e30000f8
:103f20000000000000ff00000000000000e30000af
:103f300000e3000000e30000e300000000000000d8
:103f40000000000000000000e3e30000e3000000c8
:103f5000e3e300000000000000000000000000009b
:103f6000000000000000000000e30000e3e30000a8
:103f700000000000e300000000e30000e3e30000b5
:103f8000e3e30000e30d00000e080000e300000082
:103f9000e3000000e3e30000e3e30000e3000000cf
:103fa000e3e30000e3e30000e3000000f2000000b0
:103fb000e3e30000e3000000f2000000e3e30000a0
:103fc000e3e3000000f20000000000000000000039
:103fd00000f2000000e30000e3e30000e300000063
:103fe00000000000000000000000000000000000d1
:103ff000e3e30000e3e3000000fc0000fc0000003d
:1040000000000000fcfc000000e30000e3e300000f
:10401000e30000000000000000f2000000000000cb
:1040200000000000e3e30000e3e30000e300000021
:104030006d6d0000006d00006d000000e3e3000006
:10404000e3e30000e3e30000e30000000000000001
:1040500000000000e3e30000e300000000e30000d4
:10406000e3e3000000ff0000ffff000000e30000aa
:10407000e3e30000e3000000e3e3000000000000d1
:10408000ffff0000ff00000000e30000e3e300008a
:1040900000e30000e300000000000000ff0000005b
:1040a00000000000e3e30000e3000000e3e30000a1
:1040b00000000000000000000000000000e300001d
:1040c000e3e3000000e30000e30000000000000064
:1040d00000000000000000000000000000000000e0
:1040e000e3e30000e300000000e300000000000044
:1040f000e3e30000e3e30000e3e300000d0e000053
:1041000008e3000000e3000000e30000e3e3000038
:10411000e3e3000000e30000e3e30000e3e300006a
:1041200000f2000000e30000e3e3000000f2000002
:1041300000e30000e3e30000e3000000f200000001
:104140000000000000000000f2000000e3e30000b7
:10415000e3e3000000000000000000000000000099
:104160000000000000e30000e3e30000e3000000c3
:10417000fcfc00000000000000fc0000fc0000004f
:10418000e3e30000e3e300000000000000000000a3
:10419000f20000000000000000e30000e3e3000084
:1041a000e3e30000006d00006d0000006d6d000095
:1041b00000e30000e3e3000000e30000e3e30000ad
:1041c000000000000000000000e30000e3e3000046
:1041d000e3000000e3e30000e3000000ffff000055
:1041e000ff000000e3e30000e3e3000000e3000061
:1041f000e300000000ff0000ffff000000000000df
:10420000e3e30000e3000000e3e30000000000003f
:1042100000ff00000000000000e30000e3e30000f6
:1042200000e30000e30000000000000000000000c8
:1042300000000000e3e30000e3000000e3e300000f
:10424000000000000000000000000000000000006e
:104250000000000000e30000e3e3000000000000b5
:10426000e300000000e30000e3e30000e3e30000fc
:10427000e30d00000e080000e3000000e300000072
:10428000e3e30000e3e30000e3000000e3e30000f9
:10429000e3e30000e3000000f2000000e3e30000bd
:1042a000e3000000f2000000e3e30000e3e30000ad
:1042b00000f20000000000000000000000f200001a
:1042c00000e30000e3e30000e30000000000000062
:1042d000000000000000000000000000e3e3000018
:1042e000e3e3000000fc0000fc0000000000000010
:1042f000fcfc000000e30000e3e30000e30000003a
:104300000000000000f200000000000000000000bb
:10431000e3e30000e3e30000e30000006d6d000054
:10432000006d00006d000000e3e30000e3e3000027
:10433000e3e30000e30000000000000000000000d4
:10434000e3e30000e3e3000000000000e3e300001b
:1043500000ff0000ffff000000e30000e3e30000b7
:10436000e3000000e3e3000000000000ffff0000a6
:10437000ff00000000e30000e3e3000000e30000b2
:10438000e300000000000000ff000000000000004b
:10439000e3e30000e3000000e3e3000000000000ae
:1043a000000000000000000000e30000e3e3000064
:1043b00000e30000e3000000000000000000000037
:1043c000000000000000000000000000e3e3000027
:1043d000e300000000e3000000000000e3e3000051
:1043e000e3e30000e3e300004f4f000008e30000b8
:1043f00000e00000e0e00000e1e10000e1e1000099
:10440000e2e20000e2e20000e3e30000e3e3000098
:10441000e3c30000c3c30000a3a300008383000024
:104420008383000063630000634300004343000094
:104430004343000043230000232300002323000004
:104440002323000023230000232300002323000054
:104450004343000043430000434300006363000004
:10446000638300008383000083a30000a3c30000d4
:10447000c3c30000e3e30000e3e30000e3e2000065
:10448000e2e20000e2e10000e1e10000e1e0000022
:10449000e0e00000e1e10000e1e10000e2e2000014
:1044a000e2e30000e3e30000e3e30000c3c3000035
:1044b000c3a30000a38300008383000063630000a4
:1044c0006343000043430000432300002323000014
:1044d0002323000023230000232300000303000004
:1044e0000303000003230000232300002323000014
:1044f0002323000023230000434300004343000024
:10450000636300006383000083830000a3a30000b3
:10451000c3c30000c3e30000e3e30000e3e20000e4
:10452000e2e20000e2e10000e1e10000e1e0000081
:10453000e1e10000e1e10000e2e20000e2e300006e
:10454000e3e30000e3e30000c3c30000c3a30000f3
:10455000a383000083630000636300004343000003
:104560004323000023230000232300000303000053
:104570000303000003030000030300000303000023
:104580000303000003030000030300000303000013
:1045900003230000232300002323000043430000e3
:1045a000436300006363000083830000a3a3000053
:1045b000c3c30000c3e30000e3e30000e3e3000043
:1045c000e2e20000e2e10000e1e10000e1e10000e0
:1045d000e1e10000e2e20000e2e30000e3e30000ca
:1045e000e3c30000c3c30000a3a300008383000053
:1045f0008363000063430000434300002323000063
:104600002323000003030000030300000303000052
:104610000303000003030000030300000303000082
:104620000303000003030000030300000303000072
:1046300003030000032300002323000023430000a2
:1046400043430000636300008383000083a30000f2
:10465000a3c30000c3c30000e3e30000e3e30000e2
:10466000e2e20000e2e10000e1e10000e1e100003f
:10467000e2e20000e2e30000e3e30000e3c3000045
:10468000c3c30000a3a30000838300006363000092
:1046900043430000432300002323000003030000e2
:1046a00003030000030300000303000007070000ea
:1046b00007070000070700000707000007070000c2
:1046c00007070000070700000703000003030000be
:1046d0000303000003030000032300002323000062
:1046e00043430000436300006383000083a3000092
:1046f000a3c30000c3c30000e3e30000e3e3000042
:10470000e2e20000e2e10000e1e10000e2e200009c
:10471000e2e30000e3e30000e3c30000c3c30000e2
:10472000a383000083830000634300004343000031
:104730002323000023030000030300000303000001
:104740000307000007070000070700000b0b00002d
:104750000b0b00000b0b00000b0b00000b0b000001
:104760000b0b00000b070000070700000707000005
:1047700003030000030300000303000023230000e1
:104780002343000043430000638300008383000051
:10479000a3c30000c3c30000e3e30000e3e30000a1
:1047a000e2e20000e2e10000e2e20000e2e30000f9
:1047b000e3e30000e3c30000c3a30000a383000001
:1047c00083630000634300004323000023230000b1
:1047d00003030000030300000307000007070000b5
:1047e000070b00000b0b00000b0b00000b0f000071
:1047f0000f0f00000f0f00000f0f00000f0f000041
:104800000b0b00000b0b00000b0b00000707000058
:104810000707000003030000030300000323000058
:1048200023230000434300006363000083830000f0
:10483000a3a30000c3c30000e3e30000e3e3000020
:10484000e2e20000e2e20000e2e30000e3e3000055
:10485000e3c30000c3a30000a38300008363000040
:1048600063430000432300002323000003030000f0
:104870000303000007070000070b00000b0b0000fc
:104880000b0f00000f0f00000f13000013130000a8
:104890001313000013130000131300001313000080
:1048a0000f0f00000f0f00000b0b00000b0b0000a0
:1048b00007070000070300000303000003230000b4
:1048c0002323000043430000636300008383000050
:1048d000a3a30000c3c30000e3e30000e3e3000080
:1048e000e2e20000e2e30000e3e30000e3c30000d3
:1048f000c3a30000a38300008363000043430000c0
:10490000432300002303000003030000030700000b
:10491000070700000b0b00000b0f00000f0f00003b
:1049200013130000131300001317000017170000e3
:1049300017170000171700001717000013130000c7
:1049400013130000130f00000f0f00000b0b0000eb
:104950000b0700000707000003030000030300002b
:1049600023230000434300004363000083830000cf
:10497000a3a30000c3c30000e3e30000e3e30000df
:10498000e2e20000e3e30000e3c30000c3a3000091
:10499000a38300008363000043430000232300003f
:1049a000230300000303000003070000070b0000bf
:1049b0000b0b00000f0f0000131300001317000073
:1049c0001717000017170000171b00001b1b000023
:1049d0001b1b00001b1b000017170000171700000f
:1049e0001717000013130000130f00000f0b000037
:1049f0000b0b000007070000030300000303000087
:104a0000232300002343000043630000838300004e
:104a1000a3a30000c3c30000e3e30000e3e200003f
:104a2000e3e30000e3c30000c3a30000a38300008e
:104a300083630000434300002323000003030000be
:104a400003030000070700000b0b00000b0f000022
:104a50000f1300001317000017170000171b0000aa
:104a60001b1b00001b1b00001b1b00001b1b00006e
:104a70001b1b00001b1b00001b1b00001b1b00005e
:104a80001717000017170000131300000f0f000086
:104a90000b0b00000b0700000703000003030000de
:104aa00003230000234300004363000083830000ce
:104ab000a3a30000c3c30000e3e30000e3e300009e
:104ac000e3c30000c3c30000a383000083630000ae
:104ad00043430000232300000303000003030000fe
:104ae000070700000b0b00000f0f0000131300005e
:104af00017170000171b00001b1b00001b1f0000e6
:104b00001f1f00001f1f00001f1f00001f1f0000ad
:104b10001f1f00001f1f00001f1f00001b1b0000a5
:104b20001b1b00001717000017130000130f0000d5
:104b30000f0b00000b070000070300000303000039
:104b4000032300002343000043630000838300002d
:104b5000a3c30000c3c30000e3e30000e3e30000dd
:104b6000c3c30000a383000083630000434300002d
:104b700023230000030300000303000007070000d5
:104b80000b0b00000f130000131700001717000095
:104b90001b1b00001b1f00001f1f00001f1f000029
:104ba0001f1f00001f1f00001f1f00001f1f00000d
:104bb0001f1f00001f1f00001f1f00001f1f0000fd
:104bc0001b1b00001b170000171700001313000029
:104bd0000f0b00000b070000070300000303000099
:104be000032300002343000043630000838300008d
:104bf000a3c30000c3e30000e3e30000c3c300005d
:104c0000a3830000836300004343000023230000cc
:104c10000303000003070000070b00000b0f000058
:104c20000f13000013170000171b00001b1b0000d0
:104c30001f1f00001f1f00001f1f00001f1f00007c
:104c40001f1f00001f1f00001f1f00001f1f00006c
:104c50001f1f00001f1f00001f1f00001f1f00005c
:104c60001f1b00001b1b0000171700001313000080
:104c70000f0f00000b0b00000707000003030000ec
:104c800003230000234300004363000083830000ec
:104c9000a3c30000c3e30000c3c30000a3a300003c
:104ca000836300006343000023230000030300002c
:104cb00003070000070b00000b0f00000f1300009c
:104cc000171700001b1b00001b1f00001f1f000008
:104cd0001f1f00001f1f00001f1e00001e1e0000df
:104ce0001e1e00001e1e00001e1e00001e1e0000d4
:104cf0001e1e00001f1f00001f1f00001f1f0000be
:104d00001f1f00001b1b00001b17000017130000d3
:104d10000f0f00000b0b000007070000030300004b
:104d200003230000234300006363000083a300000b
:104d3000a3c30000e3c30000c3a3000083830000fb
:104d40006343000043230000030300000307000047
:104d5000070b00000b0f00001313000017170000d3
:104d60001b1b00001f1f00001f1f00001f1f000053
:104d70001f1e00001e1e00001e1e00001e1e000042
:104d80001e1e00001e1e00001e1e00001e1e000033
:104d90001e1e00001e1e00001f1f00001f1f00001f
:104da0001f1f00001f1b00001b170000171300002f
:104db000130f00000b0b00000707000003030000a7
:104dc00003230000434300006383000083a300002b
:104dd000c3c30000c3a3000083830000634300003b
:104de000432300002303000003030000070b00001f
:104df0000b0f000013130000171700001b1b00000f
:104e00001f1f00001f1f00001f1f00001e1e0000ac
:104e10001e1e00001e1e00001e1e00001e1e0000a2
:104e20001e1e00001e1e00001e1e00001e1e000092
:104e30001e1e00001e1e00001e1f00001f1f00007f
:104e40001f1f00001f1b00001b170000171300008e
:104e5000130f00000b0b000007030000030300000a
:104e600023230000434300006383000083a300006a
:104e7000c3a30000a383000063430000432300009a
:104e80002303000003030000070b00000b0f0000ca
:104e900013130000171b00001b1f00001f1f000042
:104ea0001f1f00001f1e00001e1e00001e1e00000f
:104eb0001e1e00001e1d00001d1d00001d1d000007
:104ec0001d1d00001d1d00001d1d00001e1e0000f8
:104ed0001e1e00001e1e00001e1e00001f1f0000e0
:104ee0001f1f00001f1f00001b1b000017130000e6
:104ef000130f00000b0b000007030000030300006a
:104f0000232300004343000063830000a3c3000089
:104f1000a3830000836300004323000023030000f9
:104f200003030000070700000b0f0000131300002d
:104f3000171b00001b1f00001f1f00001f1f000089
:104f40001e1e00001e1e00001e1e00001e1d000072
:104f50001d1d00001d1d00001d1d00001d1d000069
:104f60001d1d00001d1d00001d1d00001d1d000059
:104f70001e1e00001e1e00001e1e00001e1f000040
:104f80001f1f00001f1f00001b1b00001713000045
:104f9000130f00000b0700000703000003030000cd
:104fa000232300004363000083830000a3a30000c9
:104fb0008363000043430000232300000303000039
:104fc000070700000b0f00000f130000171b000065
:104fd0001b1f00001f1f00001f1f00001e1e0000df
:104fe0001e1e00001e1d00001d1d00001d1d0000d6
:104ff0001d1d00001d1d00001d1d00001d1d0000c9
:105000001d1d00001d1d00001d1d00001d1d0000b8
:105010001d1d00001e1e00001e1e00001e1f0000a1
:105020001f1f00001f1f00001b1b000017130000a4
:105030000f0f00000b070000070300000323000010
:10504000234300004363000083a300008363000048
:105050006343000023230000030300000307000054
:105060000b0b00000f130000171700001b1f0000a0
:105070001f1f00001f1f00001e1e00001e1e00003c
:105080001e1d00001d1d00001d1d00001d1c000038
:105090001c1c00001c1c00001c1c00001c1c000030
:1050a0001c1c00001c1c00001d1d00001d1d00001c
:1050b0001d1d00001e1e00001e1e00001e1f000001
:1050c0001f1f00001f1f00001b1700001713000008
:1050d0000f0b00000b070000030300000323000078
:1050e00023430000636300008383000063430000e8
:1050f0004323000003030000030700000b0b000024
:105100000f130000171700001b1f00001f1f0000d7
:105110001f1f00001e1e00001e1e00001d1d00009f
:105120001d1d00001d1d00001c1c00001c1c00009b
:105130001c1c00001c1c00001c1c00001c1c00008f
:105140001c1c00001c1c00001c1d00001d1d00007c
:105150001d1d00001d1e00001e1e00001e1f000061
:105160001f1f00001f1f00001b1700001713000067
:105170000f0b00000b0700000303000003230000d7
:105180004343000063830000636300004323000087
:105190002303000003070000070b00000f130000ab
:1051a000131700001b1b00001f1f00001f1f000023
:1051b0001e1e00001e1e00001d1d00001d1d000003
:1051c0001d1c00001c1c00001c1c00001c1c0000fe
:1051d0001c1c00001c1c00001c1c00001c1c0000ef
:1051e0001c1c00001c1c00001c1c00001d1d0000dd
:1051f0001d1d00001d1e00001e1e00001e1f0000c1
:105200001f1f00001f1b00001b17000013130000ce
:105210000f0b00000707000003030000232300001a
:105220004363000083630000434300002303000046
:1052300003030000070b00000b0f00001317000012
:105240001b1b00001f1f00001f1f00001e1e000070
:105250001e1e00001d1d00001d1d00001c1c000066
:105260001c1c00001c1c00001c1c00003c3c00001e
:105270003c3c00003c3c00003c3c00003c1c00006e
:105280001c1c00001c1c00001c1c00001c1d00003d
:105290001d1d00001d1e00001e1e00001e1f000020
:1052a0001f1f00001f1b00001b170000130f000032
:1052b0000b0b000007030000030300002343000062
:1052c0004383000063430000232300000303000026
:1052d000070700000b0f000013170000171b00004a
:1052e0001f1f00001f1f00001e1e00001e1e0000ca
:1052f0001d1d00001d1d00001c1c00001c1c0000ca
:105300001c1c00003c3c00003c3c00003c5c0000dd
:105310005c5c00005c5c00003c3c00003c3c00002d
:105320003c1c00001c1c00001c1c00001c1d00007c
:105330001d1d00001d1e00001e1e00001e1f00007f
:105340001f1f00001f1b000017170000130f000095
:105350000b070000070300000323000023430000a5
:105360006343000043230000030300000307000021
:105370000b0b00000f130000171b00001b1f000089
:105380001f1f00001e1e00001e1e00001d1d00002d
:105390001d1d00001c1c00001c1c00001c3c00000b
:1053a0003c3c00005c5c00005c5c00005c5c00005d
:1053b0005c5c00005c5c00005c5c00005c3c00002d
:1053c0003c3c00001c1c00001c1c00001c1d0000bc
:1053d0001d1d00001d1e00001e1e00001e1f0000df
:1053e0001f1f00001b1b0000171300000f0b000005
:1053f0000b070000030300000323000043630000c9
:10540000432300002303000003070000070b0000f4
:105410000f130000171700001b1f00001f1f0000c4
:105420001f1e00001e1e00001d1d00001d1d00008f
:105430001c1c00001c1c00001c3c00003c5c00000c
:105440005c5c00007c7c00007c7c00007c7c0000bc
:105450007c7c00007c7c00007c5c00005c5c0000cc
:105460003c3c00001c1c00001c1c00001c1d00001b
:105470001d1d00001d1e00001e1e00001f1f00003d
:105480001f1f00001b170000171300000f0b000068
:10549000070700000303000023230000634300000c
:1054a0002323000003030000070b00000b0f000084
:1054b000131700001b1b00001f1f00001f1e000011
:1054c0001e1e00001e1d00001d1d00001c1c0000f3
:1054d0001c1c00001c3c00003c5c00005c7c0000cc
:1054e0007c7c00009c9c00009c9c00009c9c00001c
:1054f0009c9c00009c7c00007c7c00005c5c0000ac
:105500003c3c00001c1c00001c1c00001c1d00007a
:105510001d1d00001e1e00001e1e00001f1f00009b
:105520001f1b00001b170000130f00000b0b0000d7
:10553000070300000323000023430000432300006f
:1055400003030000030700000b0f00001317000007
:10555000171b00001f1f00001f1f00001e1e000061
:105560001e1d00001d1d00001c1c00001c1c000056
:105570001c3c00003c5c00005c7c00007c9c00004b
:105580009cbc0000bcbc0000bcbc0000bcbc00005b
:10559000bcbc00009c9c00007c7c00005c5c0000ab
:1055a0003c3c00001c1c00001c1c00001c1d0000da
:1055b0001d1d00001e1e00001e1f00001f1f0000fa
:1055c0001f1b000017170000130f00000b0700003f
:1055d0000303000003230000432300002303000013
:1055e00003070000070b00000f130000171b00004b
:1055f0001b1f00001f1f00001e1e00001e1d0000bc
:105600001d1d00001d1c00001c1c00001c3c000097
:105610003c5c00007c7c00009c9c0000bcbc00004a
:10562000bcdc0000dcdc0000dcdc0000dcdc0000ba
:10563000bcbc0000bc9c00009c7c00007c5c0000aa
:105640003c3c00001c1c00001c1c00001d1d000038
:105650001d1d00001e1e00001e1f00001f1f000059
:105660001b1b0000171300000f0b000007070000b2
:105670000303000023430000232300000303000072
:10568000070b00000b0f0000131700001b1f00008a
:105690001f1f00001f1e00001e1e00001d1d000019
:1056a0001d1c00001c1c00001c3c00003c5c000099
:1056b0007c7c00009cbc0000bcbc0000dcdc00006a
:1056c000dcdc0000fcfc0000fcdc0000dcdc00009a
:1056d000dcbc0000bcbc00009c7c00007c5c0000ca
:1056e0003c3c00001c1c00001c1c00001d1d000098
:1056f0001d1e00001e1e00001f1f00001f1f0000b7
:105700001b170000130f00000b0b00000703000025
:1057100003230000432300000303000003070000ed
:105720000b0f000013170000171b00001f1f0000c5
:105730001f1e00001e1e00001e1d00001d1d00007b
:105740001c1c00001c3c00003c5c00005c7c000059
:105750009cbc0000bcdc0000dcdc0000fcfc0000a9
:10576000fcfc0000fcfc0000fcfc0000fcdc000079
:10577000dcdc0000bcbc00009c7c00005c5c000029
:105780003c3c00001c1c00001c1d00001d1d0000f6
:105790001e1e00001e1e00001f1f00001f1b000019
:1057a00017170000130f00000b0700000303000091
:1057b000034300002303000003030000070b000065
:1057c0000f130000171b00001b1f00001f1f00000d
:1057d0001e1e00001e1d00001d1d00001c1c0000e0
:1057e0001c1c00003c5c00005c7c00009cbc0000b9
:1057f000bcdc0000dcfc0000fcfc0000fcfc000049
:10580000f8f80000f8fc0000fcfc0000fcfc0000c4
:10581000dcdc0000bcbc00009c7c00005c5c000088
:105820003c1c00001c1c00001c1d00001d1d000075
:105830001e1e00001e1f00001f1f00001b1b00007b
:10584000171300000f0b0000070300000303000004
:105850004323000003030000070700000b0f0000b4
:10586000131700001b1f00001f1f00001f1e000059
:105870001e1e00001d1d00001d1c00001c1c000041
:105880003c3c00005c7c00007c9c0000bcdc000018
:10589000dcfc0000fcfc0000f8f80000f8f8000058
:1058a000f8f80000f8f80000f8fc0000fcfc00002c
:1058b000dcdc0000bc9c00007c7c00005c3c000048
:1058c0003c1c00001c1c00001d1d00001d1e0000d3
:1058d0001e1e00001f1f00001f1f00001b170000de
:1058e000130f00000b070000070300000323000054
:1058f00023030000030700000b0b00000f13000040
:10590000171b00001f1f00001f1e00001e1e0000ae
:105910001e1d00001d1c00001c1c00001c3c000083
:105920005c5c00007c9c0000bcbc0000dcfc000057
:10593000fcfc0000f8f80000f8f40000f4f40000ab
:10594000f4f40000f8f80000f8fc0000fcfc000093
:10595000dcbc0000bc9c00007c5c00005c3c0000e7
:105960001c1c00001c1c00001d1d00001e1e000051
:105970001e1e00001f1f00001f1b00001713000049
:105980000f0b00000b07000003030000232300009f
:1059900003030000070b00000b0f000013170000ab
:1059a0001b1f00001f1f00001e1e00001e1d000008
:1059b0001d1d00001c1c00001c1c00003c5c0000a5
:1059c0007c7c00009cbc0000dcdc0000fcfc0000d7
:1059d000f8f80000f4f40000f0f00000f0f000002f
:1059e000f0f40000f4f80000f8fc0000fcdc00001b
:1059f000dcbc00009c7c00007c5c00003c1c0000c7
:105a00001c1c00001c1d00001d1d00001e1e0000af
:105a10001e1f00001f1f00001b170000130f0000b7
:105a20000b0b00000703000003230000230300000a
:105a3000030700000b0f000013170000171b0000e6
:105a40001f1f00001f1e00001e1e00001d1d000065
:105a50001d1c00001c1c00003c3c00005c7c000085
:105a60009cbc0000bcdc0000fcfc0000f8f800005e
:105a7000f4f40000f0ec0000ecec0000ecec0000b2
:105a8000f0f40000f4f80000f8fc0000fcdc00007a
:105a9000bcbc00009c7c00005c3c00003c1c000086
:105aa0001c1c00001d1d00001d1e00001e1e00000d
:105ab0001f1f00001f1b000017170000130f00001e
:105ac0000b07000003030000232300000303000072
:105ad000070b00000f130000171b00001b1f000026
:105ae0001f1f00001e1e00001e1d00001d1d0000c7
:105af0001c1c00001c3c00003c5c00007c9c000066
:105b0000bcdc0000dcfc0000fcf80000f8f4000045
:105b1000f0ec0000ece80000e8e80000ecec00002d
:105b2000f0f40000f8f80000fcfc0000dcdc0000f1
:105b3000bc9c00007c5c00003c3c00001c1c000085
:105b40001c1d00001d1d00001e1e00001e1f000069
:105b50001f1f00001b1b0000171300000f0b00008d
:105b600007030000032300000303000003070000f5
:105b70000b0f0000131700001b1b00001f1f00006d
:105b80001f1e00001e1e00001d1d00001d1c000029
:105b90001c1c00003c5c00005c7c00009cbc000005
:105ba000dcdc0000fcfc0000f8f40000f0ec00007d
:105bb000ece80000e4e40000e4e80000ecec0000a5
:105bc000f0f40000f8fc0000fcdc0000dcbc00008d
:105bd0009c7c00005c5c00003c1c00001c1c000065
:105be0001d1d00001d1e00001e1e00001f1f0000c6
:105bf0001f1b00001b170000130f00000b07000005
:105c0000030300002303000003030000070b000050
:105c10000f130000171b00001b1f00001f1f0000b8
:105c20001e1e00001e1d00001d1d00001c1c00008b
:105c30001c3c00005c5c00007c9c0000bcdc0000a4
:105c4000fcfc0000f8f80000f4f00000ece80000b4
:105c5000e4e40000e4e40000e4e80000ecf000000c
:105c6000f4f80000f8fc0000fcdc0000bc9c000024
:105c70007c5c00005c3c00001c1c00001c1d000043
:105c80001d1d00001e1e00001e1f00001f1f000023
:105c90001b1b0000171300000f0b00000703000080
:105ca0000323000003030000030700000b0f0000a4
:105cb000131700001b1b00001f1f00001f1e000009
:105cc0001e1e00001d1d00001d1c00001c1c0000ed
:105cd0003c5c00005c7c00009cbc0000dcfc000024
